:100000000C94930F0C94C40F0C94C40F0C94C40F55
:100010000C94C40F0C94C40F0C94C40F0C94C40F14
:100020000C94C40F0C94C40F0C94C40F0C94C40F04
:100030000C94C40F0C94C40F0C94C40F0C94C40FF4
:100040000C94C40F0C944C700C94C40F0C94C40FFB
:100050000C94C40F0C94C40F0C9453690C949B66BD
:100060000C94C40F0C9496700C948C700C94C40F68
:100070000C94C40F0C94C40F0C94C40F0C94C40FB4
:100080000C94C40F0C94C40F0C94C40F0C94C40FA4
:100090000C94C40F0C94C40F0C94C40F0C94E5661C
:1000A0000C94C40F0C94C40F0C94C40F0C94C40F84
:1000B0000C94C40F0C94C40F0C94C40F0C94C40F74
:1000C0000C94C40F0C94C40F0C94C40F0C94C40F64
:1000D0000C94C40F0C94C40F0C94C40F0C94C40F54
:1000E0000C94C40F084AD73B3BCE016E84BCBFFDC5
:1000F000C12F3D6C74319ABD56833DDA3D00C77FF8
:1001000011BED9E4BB4C3E916BAAAABE0000008090
:100110003F05A84CCDB2D44EB93836A9020C50B91F
:10012000918688083CA6AAAA2ABE000000803F004B
:100130000C9476100C9491100C94B3110C94AB1198
:100140000C9445710C946E100C946D250C948D10CC
:100150000C94D1110C94BB780C9418710C94081267
:100160000C9405280C9462250C9473260C94B825E5
:100170000C94C7110C94FE110C947D250C946925E8
:100180000C9478110C947F100C9479100C948310BB
:100190000C94DD700C940F160C944E260C94277161
:1001A0000C9403270C94EA110C943F100C949115B5
:1001B0000C9451710C9472100C94C70F0C944971EB
:1001C0000C9481250C9480110C94A4100C94662539
:1001D0000C949B100C947A250C94BD110C94641013
:1001E0000C943D710C9404260C94BC270C94327131
:1001F0000C9412120C9490150C9428270C94C60F92
:100200000C9455250C9473250C9472270C94E425BA
:100210000C945F250C9499110C9470250C94DE2697
:100220000C94F4110C946A100C9441710C94B31555
:100230000C949F100C9497100C94E0150C9489105A
:100240000C94E1270C9425250C9477250C94972782
:100250000C9485110C948F110C9429260C9499728E
:100260000C9496260C94A0150C94A5100C94A9102F
:100270000C944D270C94E0110C9484250C94B92611
:100280000C94A3110C9439710C9458250C942A25C4
:100290000C945C254E414E494E495459494E46CD29
:1002A000CCCC3D0AD7233C17B7D13877CC2B32952D
:1002B00095E6241FB14F0A000020410000C842000B
:1002C000401C4620BCBE4CCA1B0E5AAEC59D7400D5
:1002D000407A10F35A00A0724E18090010A5D4E815
:1002E0000000E87648170000E40B54020000CA9AA8
:1002F0003B000000E1F505000080969800000040FA
:10030000420F000000A0860100000010270000003E
:1003100000E803000000006400000000000A000084
:100320000000000100000000002C76D888DC674F38
:100330000823DFC1DFAE59E1B1B796E5E3E453C668
:100340003AE651997696E8E6C28426EB898C9B6260
:10035000ED407C6FFCEFBC9C9F40F2BAA56FA5F40A
:1003600090055A2AF75C936B6CF9676DC11BFCE032
:10037000E40D47FEF520E6B500D0ED902E03009485
:100380003577050080841E080000204E0A0000001A
:10039000C80C333333330F986E12831141EF8D2124
:1003A00014893BE65516CFFEE6DB18D1844B381B8B
:1003B000F77C1D901DA4BBE424203284725E228150
:1003C00000C9F124ECA1E53D275A5F53544F505F1B
:1003D00050494E005A5F535445505F50494E005AA1
:1003E0005F4D41585F50494E005A5F454E41424C67
:1003F000455F50494E005A5F4449525F50494E0094
:10040000595F53544F505F50494E00595F53544504
:10041000505F50494E00595F4D494E5F50494E0064
:10042000595F454E41424C455F50494E00595F442B
:1004300049525F50494E00585F53544F505F5049E6
:100440004E00585F535445505F50494E00585F4D21
:1004500041585F50494E00585F454E41424C455F00
:1004600050494E00585F4449525F50494E00534531
:1004700052564F335F50494E00534552564F325FEC
:1004800050494E00534552564F315F50494E00532C
:100490004552564F305F50494E005344535300521B
:1004A000414D50535F44395F50494E0052414D50C9
:1004B000535F44385F50494E0052414D50535F44A2
:1004C00031305F50494E004D4158363637355F5315
:1004D000535F50494E004C45445F50494E004845DB
:1004E000415445525F4245445F50494E00484541A2
:1004F0005445525F305F50494E0046414E5F50496F
:100500004E0045315F535445505F50494E004531D0
:100510005F454E41424C455F50494E0045315F4476
:1005200049525F50494E0045315F43535F50494E39
:100530000045305F535445505F50494E0045305F91
:10054000454E41424C455F50494E0045305F44495D
:10055000525F50494E00455F4D5558325F50494EED
:1005600000455F4D5558315F50494E00455F4D5530
:1005700058305F50494E00434153455F4C4947480E
:10058000545F50494E004A4F595F585F50494E00E2
:100590004156525F53535F50494E004156525F538C
:1005A000434B5F50494E004156525F4D4F53495F98
:1005B00050494E004156525F4D49534F5F50494E8E
:1005C0000054584430005258443000434F4D4D556C
:1005D0004E49434154494F4E0044525952554E00E2
:1005E0004552524F525300494E464F004543484FE3
:1005F00000627573793A2070617573656420666F67
:100600007220696E7075740A00627573793A207091
:10061000617573656420666F7220757365720A0078
:10062000627573793A2070726F63657373696E6770
:100630000A002121204B494C4C206361757365648D
:1006400020627920746F6F206D75636820696E6118
:1006500063746976652074696D65202D20637572F9
:1006600072656E7420636F6D6D616E643A20005028
:1006700072696E7465722073746F70706564206443
:10068000756520746F206572726F72732E204669D3
:100690007820746865206572726F7220616E6420C4
:1006A000757365204D39393920746F207265737404
:1006B0006172742E202854656D7065726174757254
:1006C000652069732072657365742E2053657420EC
:1006D00069742061667465722072657374617274E6
:1006E000696E67290A004E6F20436865636B7375F6
:1006F0006D2077697468206C696E65206E756D6217
:1007000065722C204C617374204C696E653A200030
:10071000636865636B73756D206D69736D61746378
:10072000682C204C617374204C696E653A20004C33
:10073000696E65204E756D626572206973206E6FFB
:1007400074204C617374204C696E65204E756D6227
:1007500065722B312C204C617374204C696E653AA4
:1007600020004D313130006563686F3A0045727288
:100770006F723A0050574D3A2020253464002020F3
:100780002020434F4D002020206E6F6E2D7374612A
:100790006E646172642050574D206D6F6465002057
:1007A0002020636F6D7061726520696E746572726E
:1007B00075707420656E61626C6564002020206F26
:1007C000766572666C6F7720696E7465727275708B
:1007D0007420656E61626C6564002020202054499D
:1007E0004D534B00423A20002020202054434352D6
:1007F00000413A20002020202043533A20002020AE
:10080000202057474D3A20002020202054494D45B4
:10081000520020697320616C736F207469656420D5
:10082000746F20746869732070696E0054494D4577
:10083000523143000A202E002020506F72743A205B
:1008400000202020416E616C6F6720696E203D2082
:1008500025356C64003C756E757365642F756E6B21
:100860006E6F776E3E0020284125326429202000DB
:10087000253364200050494E3A20004F757470753E
:1008800074203D2000496E70757420203D2000705A
:10089000726F7465637465642000446F6E652E0A20
:1008A0000050756C73696E6720202000556E746F60
:1008B00075636865642000534552564F206E6F740F
:1008C000207365742075702E0A005761746368691F
:1008D0006E672070696E730A0064697300656E64E8
:1008E00073746F70206D6F6E69746F722000204991
:1008F0006E76616C696420657874727564657220C7
:10090000004361703A0047322F4733206261642010
:10091000706172616D65746572730A0050726573FF
:100920007375726520736574746C656420746F6F81
:10093000206C6F772C206D75737420626520677250
:100940006561746572207468616E2000526573651C
:100950006E643A200023646566696E6520444546EE
:1009600041554C545F004B6420004B6920004B7094
:100970002000504944204175746F74756E6520667F
:10098000696E6973686564212050757420746865A8
:10099000206C617374204B702C204B6920616E6455
:1009A000204B6420636F6E7374616E747320667283
:1009B0006F6D2062656C6F7720696E746F20436F76
:1009C0006E66696775726174696F6E2E680A005091
:1009D0004944204175746F74756E65206661696C59
:1009E0006564212074696D656F75740A005049440F
:1009F000204175746F74756E65206661696C6564FD
:100A0000212054656D706572617475726520746F14
:100A10006F20686967680A00204B643A2000204B09
:100A2000693A2000204B703A20000A20436C617321
:100A300073696320504944200A002054753A20000D
:100A4000204B753A2000206D61783A2000206D69B6
:100A50006E3A200020643A200020626961733A20D7
:100A600000504944204175746F74756E652073742D
:100A70006172740A00504944204175746F74756E38
:100A800065206661696C6564212042616420657837
:100A9000747275646572206E756D6265720A0048C5
:100AA000617264636F6465642044656661756C742B
:100AB0002053657474696E6773204C6F616465645C
:100AC0000A0020490020204D333031205000504989
:100AD000442073657474696E67733A0020204D3248
:100AE0003036205800486F6D65206F6666736574F8
:100AF0003A00204A0020204D323035204200416427
:100B000076616E6365643A20423C6D696E5F736521
:100B1000676D656E745F74696D655F75733E2053B4
:100B20003C6D696E5F66656564726174653E2054F4
:100B30003C6D696E5F74726176656C5F6665656455
:100B4000726174653E204A3C6A756E635F646576C7
:100B50003E0020204D323034205000416363656CEC
:100B600065726174696F6E2028756E6974732F7376
:100B700032293A20503C7072696E745F616363651C
:100B80006C3E20523C726574726163745F61636392
:100B9000656C3E20543C74726176656C5F61636382
:100BA000656C3E0020204D3230312058004D617878
:100BB000696D756D20416363656C65726174696F01
:100BC0006E2028756E6974732F7332293A002020C5
:100BD0004D3230332058004D6178696D756D206657
:100BE00065656472617465732028756E6974732F0E
:100BF00073293A0053746570732070657220756EA6
:100C000069743A0020204D3230302044300A0020F0
:100C1000204D3230302044002044697361626C659D
:100C2000640A0046696C616D656E74207365747446
:100C3000696E67733A0020286D6D290020204732C5
:100C400031202020203B20556E69747320696E206E
:100C50006D6D003B20006F70656E00545249474730
:100C600045524544007A5F6D617800795F6D696E29
:100C700000785F6D6178005265706F7274696E679D
:100C800020656E6473746F70207374617475730A79
:100C9000005761726E696E673A20486F6D696E67C2
:100CA0002042756D702044697669736F72203C2014
:100CB000310A0020436F756E7420583A00457272F5
:100CC0003A204D415854454D50004D415854454DE2
:100CD0005020747269676765726564004572723A84
:100CE000204D494E54454D50004D494E54454D50B0
:100CF00020747269676765726564000A0A002020C3
:100D00005A5F4D41583A002020595F4D494E3A00F4
:100D10002020585F4D41583A00202F0020403A00D3
:100D20002020506C616E6E65724275666665724217
:100D3000797465733A20002046726565204D656DB3
:100D40006F72793A2000436F6D70696C65643A2068
:100D50004E6F7620323820323032340A00204C6117
:100D6000737420557064617465643A203230323097
:100D70002D30332D3234207C20417574686F723AE7
:100D800020286E6F6E652C2064656661756C74201A
:100D9000636F6E666967290A00322E302E352E3257
:100DA0000A004D61726C696E0020536F6674776142
:100DB00072652052657365740A0020576174636818
:100DC000646F672052657365740A002042726F7702
:100DD0006E206F75742052657365740A0020457823
:100DE0007465726E616C2052657365740A00506F91
:100DF00077657255700A00656E6473746F70732046
:100E00006869743A20005072696E74657220686176
:100E10006C7465642E206B696C6C28292063616C8E
:100E20006C6564210A002C2073797374656D2073DE
:100E3000746F7070656421204865617465725F49E4
:100E4000443A20006F6B0048756D696469747920BD
:100E50007468726573686F6C643A200048756D69D8
:100E6000646974792073656E736F7220697320648E
:100E7000697361626C6564210A0048756D69646913
:100E800074792073656E736F7220697320656E616B
:100E9000626C6564210A0043617365206C69676850
:100EA000743A206F6E0A0043617365206C6967684D
:100EB000743A206F66660A00454550524F4D2064D3
:100EC000697361626C65640A00546F6F20666172B9
:100ED0002066726F6D207265666572656E6365204F
:100EE000706F696E740A0020646174613A00206258
:100EF000797465733A003A2066726F6D3A00693210
:100F0000632D7265706C79004261642069326320E0
:100F1000726571756573740A0042616420493243D9
:100F200020616464726573732028382D313237294B
:100F30000A0020643A0020693A0020703A00496EA5
:100F400076616C69642065787472756465720A00F4
:100F500020466C6F773A200046523A0020204D61BF
:100F6000783A200020204D696E3A2000536F667455
:100F700020656E6473746F70733A20003F4A206F6F
:100F80007574206F662072616E67652028302E3080
:100F90003120746F20302E33290A00205400205253
:100FA00000416363656C65726174696F6E3A2050CD
:100FB000002F2F20004348414D4245525F54454D7C
:100FC0005045524154555245004D4F54494F4E5F84
:100FD0004D4F44455300544845524D414C5F50528B
:100FE0004F54454354494F4E004155544F5245507C
:100FF0004F52545F53445F53544154555300505221
:101000004F4D50545F535550504F525400454D452D
:101010005247454E43595F50415253455200434158
:1010200053455F4C494748545F4252494748544EE4
:1010300045535300544F47474C455F4C494748542C
:101040005300534F4654574152455F504F574552F6
:10105000004255494C445F50455243454E54004C64
:101060004556454C494E475F44415441005A5F50F4
:10107000524F4245004155544F4C4556454C005047
:1010800052494E545F4A4F420050524F47524553C7
:1010900053004155544F5245504F52545F54454DA3
:1010A0005000564F4C554D4554524943004545500C
:1010B000524F4D0042494E4152595F46494C455F9F
:1010C0005452414E534645520053455249414C5F9C
:1010D000584F4E5F584F4646004649524D57415271
:1010E000455F4E414D453A4D61726C696E20322E1E
:1010F000302E352E322028476974487562292053D6
:101100004F555243455F434F44455F55524C3A68F3
:10111000747470733A2F2F6769746875622E636FE9
:101120006D2F4D61726C696E4669726D7761726583
:101130002F4D61726C696E2050524F544F434F4C8B
:101140005F56455253494F4E3A312E30204D414360
:1011500048494E455F545950453A334420507269CE
:101160006E7465722045585452554445525F434F42
:10117000554E543A3120555549443A6365646532B9
:101180006132662D343161322D343734382D396275
:1011900031322D6335356336326633363766660A4B
:1011A00000446966663A200046726F6D5374703A67
:1011B00000537465707065723A005261773A20206E
:1011C0002020000A4C6F676963616C3A00436F75B9
:1011D0006E7420453A004D3131332053006F6666FE
:1011E0000044454255473A0050726F746563746518
:1011F000642050696E0A00496E76616C6964205003
:10120000696E204D6F64650A00256979202569643F
:10121000202569682025696D202569730050726951
:101220006E742074696D653A200048323A00543279
:101230003A004672657175656E63792073686F75E3
:101240006C6420626520657175616C206F72206C22
:10125000657373207468616E3A00506C65617365E4
:1012600020496E73657274207468652066726571BA
:1012700075656E63792077616E7465640A00095044
:10128000723A200050733A2000506C6561736520FB
:10129000496E73657274207468652070726573732B
:1012A0007572652077616E7465640A0020483A00A3
:1012B000543A00466F7263655B4E5D3A005072654A
:1012C00073737572655B7073695D3A005261774440
:1012D0006174613A004D6173735B67725D3A00201F
:1012E000746F6F206C6F6E672065787472757369A8
:1012F0006F6E2070726576656E7465640A00486F63
:101300006D652025732573257320466972737400FB
:10131000220A00556E6B6E6F776E20636F6D6D6184
:101320006E643A202200205A3A0020593A002045A3
:1013300000205A00205900204D39322058007001F9
:101340002C0190012701B0012201C0011D01F00113
:1013500018011002130130020E016002090190020F
:101360000401C002FF000003FA004003F5008003FF
:10137000F000D003EB002004E6007004E100E0047C
:10138000DC004005D700C005D2004006CD00D006E5
:10139000C8008007C3003008BE00F008B900C009CB
:1013A000B400B00AAF00B00BAA00D00CA500000E2C
:1013B000A000500F9B00C010960050129100001426
:1013C0008C00C0158700B0178200B0197D00D01BBB
:1013D0007800001E730040206E0090226900F02407
:1013E000640040275F0090295A00E02B5500102E22
:1013F000500020304B0010324600E0334100903561
:101400003C001037370070383200A0392D00B03A58
:101410002800A03B2300603C1E00103D1900903DB9
:101420001400103E0F00703E0A00C03E0500003F51
:101430000000403FFBFF803FF6FFC03FF1FF540636
:10144000102F50114F2C0B0C0A3008350717441879
:10145000FF4309000147004800000088008A008C13
:1014600000B300B400000098009A009C00A800AAF5
:1014700000AC0028012A012C01440045006E0080C8
:101480000081006F00B000B1007000900091007109
:1014900000A000A1007200200121017300C6050018
:1014A00001C1050101B4053201A70533019B0534D3
:1014B000019005350186050501770529016C052890
:1014C0000161052A0156052C014B0535013D050733
:1014D000013105080127052C011C0522010E051EFE
:1014E0000102052401FA040901ED041801DE0417C4
:1014F00001D6040D01C7044201B8053201AB053322
:1015000001B9041801AC0417019F0409019F0534B7
:10151000019A0435018F040B018404060179040546
:10152000016E040401CF0435016404060157041060
:10153000014D042F014204540137042F012D0411E1
:101540000120044F0116042C010B04500100042C4F
:1015500001F6030C01E9030A01DF033001D4030B98
:1015600001C9033001000002430000484300009617
:101570004300000000000000000000000000009692
:1015800043000096430000A0400000A0400000C8B7
:10159000420000C8420000C8430000C844B80B0025
:1015A00000B80B00002C01000010270000ABAAA619
:1015B00042ABAAA642555585410202020000A04056
:1015C0000000A0400000803F24F4D43050C38E209F
:1015D000C2A24017828B7011127A910D816CD90AC8
:1015E000A861E108C7586607615143061E4B5D05B7
:1015F000C145A7041A411104093D9803713931030B
:101600004036DB0265339102D4305402802E1D0235
:10161000632CEE01752AC501B028A00110278101B5
:101620008F2564012B244B01E0223401AC211F01E2
:101630008D200D01801FFC00841EED00971DDF0032
:10164000B81CD200E61BC600201BBC00641AB20006
:10165000B219A8000A19A0006A189900D1179100C0
:1016600040178B00B516840031167E00B315790043
:101670003A157300C7146F0058146A00EE13660021
:101680008813630025135E00C7125B006C125700BD
:1016900015125400C111510070114F0021114B005F
:1016A000D61049008D104700461044000210420039
:1016B000C00F4000800F3E00420F3C00060F3B0071
:1016C000CB0E3800930E37005C0E3500270E340029
:1016D000F30D3200C10D3100900D3000600D2E0071
:1016E000320D2D00050D2C00D90C2B00AE0C29005D
:1016F000850C29005C0C2700350C27000E0C2600F9
:10170000E80B2400C40B2400A00B23007D0B230056
:101710005A0B2100390B2100180B2000F80A1F007A
:10172000D90A1E00BB0A1E009D0A1D00800A1D006A
:10173000630A1C00470A1B002C0A1B00110A1A002E
:10174000F7091A00DD091900C4091900AB091900CD
:10175000920917007B091800630917004C0916004D
:1017600036091600200916000A091500F5081500AB
:10177000E0081400CC081400B8081400A4081400F1
:10178000900813007D0812006B081300580812001F
:101790004608120034081100230811001208110035
:1017A00001081100F0071000E0071000D00710003A
:1017B000C0071000B0070F00A107100091070E002E
:1017C00083070F0074070F0065070E0057070E0010
:1017D00049070E003B070D002E070E0020070D00E5
:1017E00013070D0006070D00F9060C00ED060D00AD
:1017F000E0060C00D4060C00C8060C00BC060C0069
:10180000B0060C00A4060B0099060C008D060B0018
:1018100082060B0077060B006C060B0061060A00BF
:1018200057060B004C060A0042060A0038060A005A
:101830002E060A0024060A001A060A0010060900ED
:1018400007060A00FD050900F4050900EB0509007B
:10185000E2050900D9050900D0050900C7050900FE
:10186000BE050900B5050800AD050800A50509007D
:101870009C050800940508008C05080084050800F4
:101880007C050800740508006C0507006505080064
:101890005D050700560508004E05070047050700CF
:1018A0004005080038050700310507002A05070034
:1018B000230507001C050600160507000F05070095
:1018C0000805060002050700FB040600F5040700F2
:1018D000EE040600E8040600E2040700DB0406004C
:1018E000D5040600CF040600C9040600C3040600A0
:1018F000BD040600B7040600B1040500AC040600F0
:10190000A6040600A00405009B040600950405003B
:10191000900406008A040500850405008004060082
:101920007A04050075040500700405006B040500C9
:1019300066040500610405005C0405005704050009
:10194000520405004D040500480405004304050049
:101950003E0404003A040500350405003004040088
:101960002C04050027040400230405001E040400C1
:101970001A04040016040500110404000D040400F8
:10198000090405000404040000040400FC0304002E
:10199000F8030400F4030400F0030400EC03040063
:1019A000E8030400E4030400E0030400DC03040093
:1019B000D8030400D4030400D0030400CC030400C3
:1019C000C8030300C503030024F404D9201BC40C7E
:1019D0005C0E9804C4095F0265077101F405F90003
:1019E000FB04B30048048700C10369005803550095
:1019F00003034500BE023A008402310053022A006C
:101A00002902250004022000E4011C00C80119007D
:101A1000AF01170098011400840113007101100038
:101A20006101100051010E0043010D0036010B0051
:101A30002B010B0020010B00150109000C0109000E
:101A400003010800FB000800F3000800EB0007009A
:101A5000E4000600DE000600D8000600D200060002
:101A6000CC000500C7000500C2000500BD00040051
:101A7000B9000400B5000400B1000400AD0004008A
:101A8000A9000400A5000300A20003009F000400B9
:101A90009B000300980003009500020093000300E0
:101AA000900003008D0002008B00030088000200FC
:101AB0008600020084000300810002007F00020013
:101AC0007D0002007B000200790002007700010027
:101AD0007600020074000200720001007100020032
:101AE0006F0002006D0001006C0002006A0001003E
:101AF0006900020067000100660001006500010046
:101B00006400020062000100610001006000010049
:101B10005F0002005D0001005C0001005B0001004D
:101B20005A0001005900010058000100570001004F
:101B30005600010055000100540001005300000050
:101B4000530001005200010051000100500001004B
:101B50004F0001004E0000004E0001004D0001004A
:101B60004C0001004B0000004B0001004A00010046
:101B70004900010048000000480001004700010042
:101B8000460000004600010045000000450001003D
:101B90004400010043000000430001004200000037
:101BA000420001004100000041000100400001002E
:101BB0003F0000003F0001003E0000003E00010029
:101BC0003D0000003D0001003C0000003C00000022
:101BD0003C0001003B0000003B0001003A00000017
:101BE0003A0001003900000039000100380000000F
:101BF0003800000038000100370000003700010005
:101C000036000000360000003600010035000000FC
:101C100035000000350001003400000034000000F1
:101C200034000100330000003300000033000100E5
:101C300032000000320000003200010031000000DC
:101C400031000000310001003000000030000000D1
:101C5000300001002F0000002F0000002F000000C6
:101C60002F0001002E0000002E0000002E000100B9
:101C70002D0000002D0000002D0000002D000100AF
:101C80002C0000002C0000002C0000002C000100A3
:101C90002B0000002B0000002B0000002B00010097
:101CA0002A0000002A0000002A0000002A0001008B
:101CB0002900000029000000290000002900000080
:101CC0002900010028000000280000002800000072
:101CD0002800000028000100270000002700000065
:101CE0002700000027000000270001002600000058
:101CF000260000002600000026000000260001004B
:101D0000250000002500000025000000250000003F
:101D10002500000025000100240000002400000030
:101D20002400000024000000240001002300000023
:101D30002300000023000000230000002300000017
:101D40002300000023000100220000002200000008
:101D500022000000220000002200000022000100FA
:101D600021000000210000002100000021000000EF
:101D700021000000210000002100010020000000DF
:101D800020000000200000002000000020000000D3
:101D90002000000020000000200001001F000000C3
:101DA0001F0000001F0000001F0000001F000000B7
:101DB0001F0000001F0001001E0000001E000000A8
:101DC0001E0000001E000000043700001E29000055
:101DD000511B00005810000010090000CC04000046
:101DE00078020000410100000000210024002700CB
:101DF0002A002D003000330001010000040107011A
:101E00000A01000020002300260029002C002F00DA
:101E100032000001000003010601090100000A0B65
:101E200002090C0D0E080703040100000000000069
:101E300000000000000000000000000000000000A2
:101E4000000000000000000012111000000000005F
:101E50000000000000000000000000000000000082
:101E6000000001FF01000002430000000000009696
:101E700043EC05E705E005D905CB05000022002568
:101E80000028002B002E0031003400020100000564
:101E90000108010B010505050507050808080802EA
:101EA0000202020A0A0808040404040101010101F3
:101EB0000101010303030303030303040707070CE2
:101EC0000C0C0C0C0C0C0C02020202060606060698
:101ED0000606060B0B0B0B0B0B0B0B010210202045
:101EE000080810204010204080020102010804026E
:101EF00001010204081020408080402010080402E4
:101F0000018004020180402010080402010804023C
:101F10000101020408102040800102040810204042
:101F200080009972BB7811241FBECFEFD1E2DEBFD3
:101F3000CDBF00E00CBF13E0A0E0B2E0EAE2F0E1C8
:101F400001E00BBF02C007900D92AA31B107D9F78B
:101F50002DE0AAE1B3E001C01D92A236B207E1F77D
:101F60001FE0C2E9DFE000E006C021970109802FF1
:101F7000FE010E94CB84C139D10780E00807A9F790
:101F80000E94E6730C9403880C9400000895089551
:101F9000CF92DF92EF92FF921F93CF93DF93EC01EA
:101FA0008E818C3009F44DC038F48B30E1F060E064
:101FB00070E080EC9FE73DC085518230C0F71A8108
:101FC000612F70E0762F662766277F778B81682BDD
:101FD00090E080E00E941F7E2DEC3CEC4CEC5DE339
:101FE0000E94807E48C06A8170E090E080E00E949C
:101FF0001F7E6B017C01CB81C7FF0AC0AC019B0136
:1020000060E070E080E89FEB0E94D3846B017C016C
:10201000CF706C2F70E090E080E00E94217E2DEC6C
:102020003CEC4CEC5DE30E94807EA70196010E948F
:10203000D484DF91CF911F91FF90EF90DF90CF90EC
:1020400008951A81612F70E090E080E00E941F7E69
:102050006B017C016B816F7070E090E080E00E940A
:10206000217E2DEC3CEC4CEC5DE30E94807EA701D0
:1020700096010E94D48417FFDCCF9058DACF80916C
:10208000C00C9091C10C891B990B0895815082312D
:1020900008F05AC0E82FF0E08827EE5AFF4E8F4F25
:1020A0000C94CB847210761064106A106E10A41019
:1020B00079107F10831089108D10911097109B104C
:1020C000A4109F10A510A910809180008F77809395
:1020D00080000895809180008F7DF9CF80918000ED
:1020E000877FF5CF84B58F7784BD089584B58F7DC4
:1020F000FBCF8091B0008F778093B00008958091DE
:10210000B0008F7DF9CF809190008F778093900001
:102110000895809190008F7DF9CF80919000877F06
:10212000F5CF8091A0008F778093A00008958091D3
:10213000A0008F7DF9CF8091A000877FF5CF80919F
:1021400020018F77809320010895809120018F7D59
:10215000F9CF80912001877FF5CFCF93DF93282F90
:1021600030E0F901E45EF14E8491F901E552F14E5F
:10217000D491F901EB56F14EC491CC23A1F0811119
:102180000E944610EC2FF0E0EE0FFF1FEE5FF14EC5
:10219000A591B491EC91ED2381E090E009F480E009
:1021A000DF91CF91089580E090E0FACF1F93CF9315
:1021B000DF93282F30E0F901E45EF14E8491F901BC
:1021C000E552F14ED491F901EB56F14EC491CC2376
:1021D000A9F0162F81110E944610EC2FF0E0EE0FAF
:1021E000FF1FE558F14EA591B4918FB7F894EC918B
:1021F000111108C0D095DE23DC938FBFDF91CF9102
:102200001F910895DE2BF8CFCF93DF9390E0FC0170
:10221000E552F14E24918B56914EFC018491882316
:10222000C9F090E0880F991FFC01E851F24EA5918A
:10223000B491FC01E558F14EC591D49161110DC0E6
:102240009FB7F8948C91209582238C9388812823C2
:1022500028839FBFDF91CF910895623051F49FB7DB
:10226000F8943C91822F809583238C93E8812E2BC8
:10227000EFCF8FB7F894EC912E2B2C938FBFEACF32
:102280001F93CF93DF93182FEB0161E00E9404119D
:10229000209739F460E0812FDF91CF911F910C944A
:1022A000D610CF3FD10511F461E0F5CFE12FF0E07A
:1022B000E45EF14EE491E150E23108F0B3C0F0E0A9
:1022C0008827EA59FE4E8F4F0C94CB8478118011E9
:1022D00085118F1199111212A311AB11B311BD11F8
:1022E000C711D111E011EA111212F411FE110812F6
:1022F00084B5806884BDC7BDDF91CF911F910895DB
:1023000084B5806284BDC8BDF7CF809180008068AD
:1023100080938000D0938900C0938800EDCF809196
:102320008000806280938000D0938B00C0938A00ED
:10233000E3CF80918000886080938000D0938D00EF
:10234000C0938C00D9CF8091B00080688093B0009A
:10235000C093B300D1CF8091B00080628093B00071
:10236000C093B400C9CF80919000806880939000A2
:10237000D0939900C0939800BFCF80919000806265
:1023800080939000D0939B00C0939A00B5CF80912A
:102390009000886080939000D0939D00C0939C0033
:1023A000ABCF8091A00080688093A0008091A000B6
:1023B0008F7B8093A000D093A900C093A8009CCFEE
:1023C0008091A00080628093A000D093AB00C09366
:1023D000AA0092CF8091A00088608093A000D09343
:1023E000AD00C093AC0088CF8091200180688093BD
:1023F0002001D0932901C09328017ECF8091200134
:10240000806280932001D0932B01C0932A0174CF66
:1024100080912001886080932001D0932D01C0938A
:102420002C016ACFC038D1050CF03ECF33CFCF930B
:10243000DF93CEECDCE01A8260E088810E94D61047
:1024400070E060E08881DF91CF910C944011863379
:1024500008F0865320917B00982F9870277F922B4D
:1024600090937B008770806480937C0080917A00D9
:10247000806480937A0080917A0086FDFCCF809101
:1024800078009091790008958230910538F0880F96
:10249000991F880F991F05970197F1F708953FB786
:1024A000F8948091830690918406A0918506B0915E
:1024B000860626B5A89B05C02F3F19F00196A11DE1
:1024C000B11D3FBFBA2FA92F982F8827BC01CD017E
:1024D000620F711D811D911D42E0660F771F881FDD
:1024E000991F4A95D1F708958F929F92AF92BF920C
:1024F000CF92DF92EF92FF926B017C010E944F120C
:102500004B015C01C114D104E104F104B9F00E9453
:102510004F12681979098A099B09683E7340810541
:10252000910580F321E0C21AD108E108F10888EE94
:10253000880E83E0981EA11CB11CE4CFFF90EF90A1
:10254000DF90CF90BF90AF909F908F9008952FB75E
:10255000F89460917F067091800680918106909139
:1025600082062FBF0895CF93DF93CEECDCE081E0AD
:102570008A8361E088810E94D6106FEF70E08881C5
:102580000E9440110E94A712AB01BC018F81988567
:10259000092E000CAA0BBB0B840F951FA61FB71F9B
:1025A0008B839C83AD83BE83DF91CF910895CF92BF
:1025B000DF92EF92FF92CF93DF93DC011796CC91DD
:1025C0001797D0E06111DC2F18962C91189730E006
:1025D000220F331F2E5F314E50E040E0F90185910C
:1025E0009491FC01F080BA0190E080E0EF2DEC23A3
:1025F000ED1310C04F5F5F4F1D96CD90DD90ED90B5
:10260000FC9050976C157D058E059F0538F36FEF94
:102610007FEFCB01DF91CF91FF90EF90DF90CF90D4
:1026200008958F929F92AF92BF92CF92DF92EF92D6
:10263000FF920F931F93CF93DF93CDB7DEB7C054B4
:10264000D1400FB6F894DEBF0FBECDBF8C01F62E81
:102650000E94A712F11029C0F801C184D284E3843A
:10266000F4849B01AC012C193D094E095F096901F5
:102670007A0130EDC31637E0D306E104F104A8F483
:102680008189C05CDE4F0FB6F894DEBF0FBECDBFB0
:10269000DF91CF911F910F91FF90EF90DF90CF903E
:1026A000BF90AF909F908F900895F80161877287D7
:1026B000838794871482138212821182108262E0CF
:1026C00085810E94041161E070E080E090E00E944A
:1026D000741261E0F80185810E94041160E0F80144
:1026E00085810E94D610F801868185518230E8F4F8
:1026F0008BE291E10197F1F762E0F80185810E9498
:102700000411F801828990E00E944412F89460E07C
:10271000C8010E94D7126F3F7F4F8F4F9F4F61F4C8
:10272000F801118A789480E0ACCF64E170E080E039
:1027300090E00E947412E0CF61E0C8010E94D712BD
:102740006F3F7F4F8F4F9F4F59F39E012F5F3F4F3A
:1027500079015E013FEBA31A3EEFB30A670160E027
:10276000C8010E94D712F60160837183828393832C
:1027700061E0C8010E94D712F601648375838683E5
:102780009783F8E0CF0ED11CCA14DB0441F778948C
:1027900030E020E0F70180809180A280B380448106
:1027A000558166817781FFEF8F169F06AF06BF06C2
:1027B00031F04F3F8FEF58076807780719F4F80199
:1027C000118AB1CFF90183E0F595E7958A95E1F794
:1027D000E00FF11F8081880F84169506A606B706C4
:1027E000F0F080832F5F3F4FF8E0EF0EF11C2832AE
:1027F000310581F6F801448120818181280F33273A
:10280000331F8281280F311D8381820F932F911DE9
:1028100099274817190699F681E0818B32CF81609C
:10282000E0CFCF92DF92EF92FF92CF93DF93EC0154
:1028300061E00E941113882341F08E818B3028F0D3
:102840008D3040F08551823030F160E070E080ECF6
:102850009FE71AC0698170E090E080E00E94217ECD
:102860002DEC3CEC4CEC5DE30E94807E6B017C0126
:10287000688170E090E080E00E94217E9B01AC01C5
:10288000C701B6010E94D484DF91CF91FF90EF90F1
:10289000DF90CF9008956881798176276727762722
:1028A00090E080E00E941F7E2DEC3CEC4CEC5DE360
:1028B0000E94807EE9CF2091CD04260F3327331F5D
:1028C00021323105ECF42091800CFC0190E080E095
:1028D000243069F082E00895A091CD042191AC01EB
:1028E00043555B4FA40FB52FB11D2C93019686174E
:1028F00098F38091CD04680F6093CD0480E0089533
:1029000081E008951092800C81E080935F0C10921A
:102910005A0C61E084E10E94D61061E085E10E94DA
:10292000D610E9EBF0E080818E7F808380818D7FFF
:10293000808388E48093B80085E48093BC00089588
:10294000CF93DF9391E09093AC048823B9F0C091CA
:10295000B800D091BA008091BC008A7B8093BC0003
:1029600060E084E10E94D61060E085E10E94D6100C
:102970000E948214D093BA00C093B800DF91CF9127
:102980000895CF92DF92EF92FF920F931F93CF9310
:10299000DF93D82FC62F613208F098C00E944F12E3
:1029A0006B017C018091800C81116BC081E0809370
:1029B000800C80935F0C9FEF90935E0C10925D0CE7
:1029C0009C0F90935C0C80935B0C80915B0CDD0FF3
:1029D000D82BD0935B0C80915A0C813009F078C0D1
:1029E00010925A0C0E944F126B017C0180915B0C7B
:1029F0008093BB008091820C9091830CA091840CF9
:102A0000B091850C892B8A2B8B2BA1F00E944F1241
:102A10000091820C1091830C2091840C3091850CD4
:102A20006C197D098E099F090617170728073907B2
:102A300008F448C08091BC0083FDD8CF85EC80931A
:102A4000BC000E944F126B017C018091800C813090
:102A500009F440C080915D0C8C1710F4C0915D0C9E
:102A6000EAE3FCE0A0E6BCE080E08C1355C08C2FCC
:102A7000DF91CF911F910F91FF90EF90DF90CF905A
:102A800008958091820C9091830CA091840CB09158
:102A9000850C892B8A2B8B2B09F484CF0E944F1233
:102AA0000091820C1091830C2091840C3091850C44
:102AB0006C197D098E099F09061717072807390722
:102AC00008F070CF8091810C0E94A014C0E0CFCF9D
:102AD00085EEB5CF8091820C9091830CA091840CEF
:102AE000B091850C892B8A2B8B2B09F4AECF0E94D9
:102AF0004F120091820C1091830C2091840C309124
:102B0000850C6C197D098E099F0906171707280780
:102B1000390708F09ACFD6CF91919D938F5FA5CFBB
:102B20000895E091C10C8091C00CE81730F4F0E0FA
:102B3000E05AF34F808190E008958FEF9FEF089562
:102B40009091C10C8091C00C2FEF3FEF981748F483
:102B5000E92FF0E0E05AF34F208130E09F5F90933F
:102B6000C10CC9010895CF92DF92EF92FF920F93AB
:102B70001F93CF93DF937C01CB018A012091AC0698
:102B8000222389F0EB016B01C40ED51ECC15DD05A7
:102B900069F06991D701ED91FC910190F081E02DF0
:102BA000C7011995F3CF642F0E945B14C801DF9110
:102BB000CF911F910F91FF90EF90DF90CF900895EC
:102BC000CF93DF931F92CDB7DEB769832091AC0618
:102BD0002223F9F02091BE0C203258F021E030E0A1
:102BE000FC013383228390E080E00F90DF91CF914E
:102BF00008958091BF0CE82FF0E0E557F94F9981D7
:102C000090838F5F8093BF0C8093BE0C81E090E037
:102C1000ECCF61E0CE0101960E945B14F7CF90E00B
:102C200080E0089580913702909138020F9718162E
:102C3000190614F490E080E09093F4068093F30674
:102C40001092F50612980895BC01209177043091F6
:102C5000780440917704509178042417350731F4B3
:102C600081E02617370709F080E008959A01F1CF37
:102C70000000000000008091F00480FF2EC08091D1
:102C800002018870809300018FEF80932D04809162
:102C9000F004869580FF29C08091020181708093A5
:102CA00000018FEF80932E048091F0048695869525
:102CB00080FF23C02E9A8FEF80932F048091F00421
:102CC00086958695869580FF1BC0289A8FEF809306
:102CD00030040000000000000895809102018095FA
:102CE00088708093000181E0D0CF809102018095AF
:102CF00081708093000181E0D5CF2E9881E0DCCFF8
:102D0000289881E0E4CFAF92BF92CF92DF92EF920A
:102D1000FF920F931F93CF93DF93CCEEDBE004E69B
:102D200017E08CEFA82E8BE0B82EC12CD12C7601A9
:102D3000C39469917991899199910E941F7E288904
:102D400039894A895B890E94807E0E944786F80102
:102D500061937193819391938F01C616D706E8060C
:102D6000F90610F46B017C01AC16BD0611F76FEF8C
:102D70007FEFCB01A70196010E944884209374073E
:102D8000309375074093760750937707DF91CF9183
:102D90001F910F91FF90EF90DF90CF90BF90AF9079
:102DA0000895CF92DF92EF92FF928091C10688231F
:102DB00009F457C0C090BD06D090BE06E090BF0693
:102DC000F090C00620E030E0A901C701B6010E94E2
:102DD0001A7E882309F445C020E030E040E05FE33C
:102DE000C701B6010E94807E9B01AC010E94807EDB
:102DF0002BED3FE049E450E40E94807E9B01AC0152
:102E000060E070E080E89FE30E94CE856B017C016A
:102E1000C092AD06D092AE06E092AF06F092B00638
:102E20006091110270911202072E000C880B990B11
:102E30000E94217E2AE037ED43E25CE30E94807E1F
:102E4000A70196010E94807E609353027093540202
:102E50008093550290935602FF90EF90DF90CF90B1
:102E60000895C12CD12C80E8E82E8FE3F82ED0CF26
:102E70008091890C90918A0C891B8F7019F490E0D5
:102E800080E008959091860C992351F0833030F4BE
:102E90008FEF890F19F08093860CF1CF1092860C7A
:102EA00080918A0C26E4829FC00111248757984F95
:102EB000FC01208120FDE3CF20918A0C2F5F2F7031
:102EC0002093870C30918A0C2091880C321304C017
:102ED0002091870C2093880C089590916F0081E0D9
:102EE00091FD02C080E0089590916F009D7F9093C6
:102EF0006F000895EFE6F0E080818260808308959E
:102F0000CF93C82F0E946D1794E0C99F90011124A0
:102F1000F901E658FB4F2253394FD9014D915D918C
:102F20006D917C91408351836283738391E0909390
:102F30007904882319F0CF910C947A17CF910895D2
:102F4000CF92DF92EF92FF92CF93DF93C82F0E9430
:102F50006D1794E0C99FE0011124FE01E253F94F7F
:102F6000C080D180E280F38081110E947A17C75817
:102F7000D84FC701B6010E94217E288139814A813C
:102F80005B810E94807EDF91CF91FF90EF90DF9078
:102F9000CF900895CF92DF92EF92FF92CF93DF937D
:102FA000C82F0E946D1794E0C99FE0011124FE0113
:102FB000E658FB4FC080D180E280F38081110E94EF
:102FC0007A17C758D84FC701B6010E94217E2881C1
:102FD00039814A815B810E94807EDF91CF91FF9091
:102FE000EF90DF90CF900895CF93DF9324E0829FFE
:102FF000C0011124EC01CC5BD84FFC01EF54F94F18
:103000008A5E984FDC012D913D914D915C916081DC
:103010007181828193810E94D484688379838A83B9
:103020009B83DF91CF910895CF92DF92EF92FF9231
:103030001F93CF93DF9320911302222309F48DC0B5
:10304000EC011091410710FF2CC0C0901402D090E9
:103050001502E0901602F0901702288139814A810A
:103060005B81C701B6010E943487181624F4C88218
:10307000D982EA82FB82C0902002D0902102E090A7
:103080002202F0902302288139814A815B81C701A5
:10309000B6010E941A7E87FF04C0C882D982EA82E4
:1030A000FB8211FF2CC0C0901802D0901902E09052
:1030B0001A02F0901B022C813D814E815F81C70175
:1030C000B6010E943487181624F4CC82DD82EE8289
:1030D000FF82C0902402D0902502E0902602F0905A
:1030E00027022C813D814E815F81C701B6010E947C
:1030F0001A7E87FF04C0CC82DD82EE82FF8212FF3F
:103100002CC0C0901C02D0901D02E0901E02F090D6
:103110001F02288539854A855B85C701B6010E9453
:103120003487181624F4C886D986EA86FB86C090B0
:103130002802D0902902E0902A02F0902B022885E4
:1031400039854A855B85C701B6010E941A7E87FFD3
:1031500004C0C886D986EA86FB86DF91CF911F918D
:10316000FF90EF90DF90CF900895CF92DF92EF9293
:10317000FF92CF93DF9381E00E94A0176B017C0147
:1031800080E00E94A017C2ECD6E0688379838A832E
:103190009B83CC82DD82EE82FF8282E00E94A017B8
:1031A000688779878A879B87DF91CF91FF90EF901F
:1031B000DF90CF900895CF92DF92EF92FF9290919F
:1031C000090180912C0492FD64C0806180932C04DD
:1031D0009091090180912C0495FD5DC082608093DF
:1031E0002C049091090180912C0491FF56C08064B9
:1031F00080932C04C0906A04C0FE10C08091F0043B
:1032000080FD0CC080912C0484FF08C080917D0655
:10321000806180937D0680E00E948017D12CF12C84
:10322000E12CD701C601B695A7959795879580FFA4
:1032300011C08091F004869580FF0CC080912C0411
:1032400081FF08C080917D06826080937D0681E0C9
:103250000E94801782E0F694E794D794C7948A95E9
:10326000D1F7C0FE1CC08091F0048695869580FD44
:1032700016C080912C0486FF12C080917D06806468
:1032800080937D0682E0FF90EF90DF90CF900C94CA
:1032900080178F7E9BCF8D7FA2CF8F7BA9CFFF9092
:1032A000EF90DF90CF9008950F931F9380910E07BA
:1032B000813019F50E94A7120091060710910707A7
:1032C0002091080730910907601B710B820B930B4B
:1032D00028EE33E040E050E00E94488460910A0705
:1032E00070910B0780910C0790910D07620F731F6F
:1032F000841F951F1F910F9108956091020770918F
:1033000003078091040790910507D6CF10920E070E
:1033100010920607109207071092080710920907EB
:1033200010920207109203071092040710920507EB
:1033300010920A0710920B0710920C0710920D07BB
:10334000089580910E078150823070F410920E071C
:103350000E94A712609302077093030780930407EB
:103360009093050781E0089580E00895282F9091BB
:103370003C07833021F495FD0FC094FD0FC0892FC9
:1033800090E0B0E0A0E004C0B695A795979587952A
:103390002A95D2F78170089581E0089580E008951C
:1033A000082E000C990BFC01EB56F14EE491EE2334
:1033B00091F0F0E0EE0FFF1FEE5FF14EA591B4919A
:1033C0002C918552914EFC018491282381E090E05C
:1033D00021F480E0089580E090E00895082E000C2C
:1033E000990BFC01EB56F14EE491F0E0EE0FFF1F5C
:1033F000E851F24EA591B4912C918552914EFC0169
:103400008491822391E009F490E0892F08952FEBB5
:10341000280F2A3108F042C0E22FF0E080910F0718
:1034200090911007A0911107B091120704C0B695B2
:10343000A795979587952A95D2F780FD02C0817050
:103440000895E057FC4FE081EE2329F18091420777
:1034500090914307E80FF92FF11D808190ED980FAF
:103460009A3030F08E3251F4818180538A3098F452
:10347000F0938F03E0938E0381E008958D3211F075
:103480008B3249F4818190ED980F9A3088F38E3217
:1034900011F48281EACFF0E0E0E0EACF80E0089525
:1034A0000E94071A882341F081E020918E03309119
:1034B0008F03232B09F480E0089590918A06809170
:1034C0000F02992321F0811102C0A0980895209144
:1034D000100220938D03992311F08823B1F38823E0
:1034E000A1F3A09A08958091020180958071809344
:1034F00000010895809102018095827080930001FF
:1035000080912A078E7F80932A07769A80912A07D6
:103510008D7F80932A072C9A80912A078B7F809336
:103520002A070C94731AC82F89EE93E030E60197AE
:1035300029F0232F2A950000E9F7F9CFF89489EEB6
:1035400093E038EE019729F0232F2A950000E9F740
:10355000F9CF0E941216CC2321F00E947A1AA89566
:10356000FECF0E94731AFBCF9091C00095FFFCCF55
:103570008093C6000895CF93C82FC15020F080E2F9
:103580000E94B41AFACFCF910895CF93DF93EC0144
:10359000FE0184912196882319F00E94B41AF8CF75
:1035A000DF91CF910895CF93C82FCB010E94C51A08
:1035B00082EF97E00E94C51A86E59CE0CC2311F0CB
:1035C0008BE59CE00E94C51A8AE0CF910C94B41A56
:1035D0001F93CF93DF9387E79CE00E94C51AC9E051
:1035E000D1E0888111E082FB882780F961E77CE0E7
:1035F00081270E94D31A888185FB882780F96BE692
:103600007CE081270E94D31A888165E67CE086955C
:103610008170DF91CF911F910C94D31ACF93DF93D8
:10362000C82F88E398E00E94C51A0C2E000CDD0B11
:10363000FE01EB56F14E8491805C0E94B41AFE01AB
:10364000E552F14EE49180E3E13021F0E6958F5FA1
:103650008933D1F7DF91CF910C94B41A0F931F9354
:10366000CF93DF938B010E94C51AE80189918823CB
:1036700019F00E94B41AFACFDF91CF911F910F91E8
:1036800008958DE697E00C94C51A87E697E00C94B0
:10369000C51A0E94451B609142077091430783E160
:1036A00093E10E942E1B80E193E10C94C51A0F93C5
:1036B0001F93CF938C01C62F0E94451B83E59CE08E
:1036C0000E94C51AC8010E94C51ACC2331F08AE0B5
:1036D000CF911F910F910C94B41ACF911F910F911C
:1036E00008958091AA039091AB032FEF3FEF9817B5
:1036F00051F0E92FF0E0E655FC4F228130E09F5F6A
:103700009F779093AB03C9010895CF93DF9362E055
:1037100080912F0D0E94C1141092C10C8093C00C97
:1037200064E070E080E090E00E94741282EC9CE023
:103730000E94A015D82F80E0C82F82EC9CE00E9448
:10374000A015BE01682B792B7F73072E000C880B08
:10375000990B0E94217EDF91CF9108954F925F9245
:103760006F927F92AF92BF92CF92DF92EF92FF92D1
:103770000F931F93CF93DF93C5E0D0E0C12CD12CE2
:1037800076010E94851B9B01AC01C701B6010E9416
:10379000D4846B017C012197A1F720E030E040EA5E
:1037A00050E40E94CE852B013C010091270D109121
:1037B000280D5801E801CC0FDD1FCC0FDD1FC150D3
:1037C000D34FC12CD12C760181E0A81AB1082497DF
:1037D0001A141B048CF4FE0134972081318142813C
:1037E0005381288339834A835B83C701B6010E94D2
:1037F000D4846B017C01E8CFB801110F880B990BC1
:103800000E94217E9B01AC01C301B2010E94CE85C2
:103810009B01AC012093FF0C3093000D4093010DF0
:103820005093020D40902B0D50902C0D60902D0D5B
:1038300070902E0DC701B6010E94D484A30192019D
:103840000E94D38426EC3DEE41E352E40E94807E48
:103850006B017C01A301920160E070E08AE796E4CD
:103860000E94D3849B01AC01C701B6010E94CE85A2
:10387000DF91CF911F910F91FF90EF90DF90CF904C
:10388000BF90AF907F906F905F904F900895CF93CF
:10389000DF93C9E0D0E00E94AE1B2197E1F70E94C0
:1038A000AE1B20E030E04DE952E40E94CE852AEBC9
:1038B00039E041E153E40E94807EDF91CF91089589
:1038C0008F929F92AF92BF92CF92DF92EF92FF9230
:1038D0000F931F93CF93DF93B0E4A0E06A2F70E0C3
:1038E000AB014B0F511D55954795411119C0E0E4AF
:1038F000F3E165917491072E000C880B990B0E94DF
:10390000217EDF91CF911F910F91FF90EF90DF907B
:10391000CF90BF90AF909F908F900895B42FE0CF3D
:103920004A1711F0B41303C0ECE3F4E1E2CF9A01BB
:1039300021503109220F331F220F331FF901E25C9E
:10394000FC4EE590F490F901EE5BFC4EC591D491EC
:103950008E159F051CF3A42FC817D9070CF4BECFF2
:10396000F901E05CFC4E05911491F901EC5BFC4E11
:10397000C590D490BC016E197F09072E000C880BEE
:10398000990B0E94217E4B015C01B601601B710BFB
:10399000072E000C880B990B0E94217E9B01AC0125
:1039A000C501B4010E94807E4B015C01BE016E190D
:1039B0007F09072E000C880B990B0E94217E9B012A
:1039C000AC01C501B4010E94CE856B017C01B80138
:1039D000110F880B990B0E94217E9B01AC01C7013E
:1039E000B6010E94D4848DCFCF93DF93CBEED6E087
:1039F0008A819B810E94601C6C837D838E839F8360
:103A0000A89510929C04DF91CF9108952F923F9238
:103A10004F925F926F927F928F929F92AF92BF92DE
:103A2000CF92DF92EF92FF920F931F93CF93DF938A
:103A300000D000D000D01F921F92CDB7DEB780918A
:103A40009B04811151C080919C04811119C02B9657
:103A50000FB6F894DEBF0FBECDBFDF91CF911F919F
:103A60000F91FF90EF90DF90CF90BF90AF909F901D
:103A70008F907F906F905F904F903F902F90089520
:103A80000E94F41C0E94A712C090EF06D090F0068E
:103A9000E090F106F090F2066091350270913602E6
:103AA000072E000C880B990B0E94217E9B01AC0114
:103AB000C701B6010E943487181694F4609137024A
:103AC00070913802072E000C880B990B0E94217E02
:103AD0009B01AC01C701B6010E941A7E87FD0FC091
:103AE00060E06093F506B3CF0E9412160E94411B5E
:103AF00086E09EE00E94C51A81E00E94931A6091C0
:103B0000F3067091F4066115710509F4F6C0072EED
:103B1000000C880B990B0E94217EA70196010E9440
:103B2000D3842B013C0120E030E040E251EC0E94C4
:103B30001A7E87FDE2C020E030E040E251E4C3019C
:103B4000B2010E94348718160CF4EBC080919A04DD
:103B50008111ECC08090920490909304A090940402
:103B6000B09095048091960490919704A091980448
:103B7000B091990489839A83AB83BC83A701960192
:103B800060918604709187048091880490918904E3
:103B90000E94D3842091FE063091FF0640910007D9
:103BA000509101070E94807EA50194010E94D38458
:103BB00020ED3CEC4CE45DE30E94807EA501940185
:103BC0000E94D4844B015C018092920490929304F1
:103BD000A0929404B09295048091FA069091FB060D
:103BE000A091FC06B091FD068D839E83AF83B887BC
:103BF00029813A814B815C81C301B2010E94D48446
:103C0000162F7B878A87092F20E030E0A9010E94C8
:103C10001A7E87FD95C02D813E814F81588560E0D9
:103C200070E08FE793E40E94CE85698379871C0159
:103C3000212F3B854A85502F0E941A7E87FF05C0A1
:103C4000198199859B872A86032D812F9B85AA85BB
:103C5000B02F8093960490939704A0939804B09308
:103C600099042091F6063091F7064091F80650919C
:103C7000F906C301B2010E94807E2B013C014092F3
:103C80008A0450928B0460928C0470928D04212FD0
:103C90003B854A85502F6D817E818F8198850E945A
:103CA000807E9B01AC0120938E0430938F0440935F
:103CB000900450939104C301B2010E94D484A501E1
:103CC00094010E94D48420E030E0A9010E94D484B1
:103CD0004B015C0120E030E0A9010E941A7E87FDC3
:103CE0000FC020E030E04FE753E4C501B4010E946B
:103CF000348718167CF46FE704C081E080939A043F
:103D000060E0C0928604D0928704E0928804F0922A
:103D10008904E7CEC501B4010E9440867595679578
:103D2000F0CF81E080939A046FE7EBCF10929A0472
:103D300019821A821B821C82812C912C54011ECF65
:103D400010E01B861A8600E080CFCF92DF92EF92C0
:103D5000FF926B017C0183E3C816D104E104F104F6
:103D600070F082E3C81AD108E108F10862E370E05C
:103D700080E090E00E9474120E94061DECCFC70103
:103D8000B6010E947412FF90EF90DF90CF900C94D8
:103D9000061D80912207882331F062E070E080E008
:103DA00090E00C94A51E0895CF92DF92EF92FF92BF
:103DB0000F931F93CF93DF93CDB7DEB7A0970FB6C6
:103DC000F894DEBF0FBECDBF611571058105910569
:103DD00079F100E0C42ED12CF12CE12CA701960141
:103DE0000E94488411E0100FE1E0F0E0EC0FFD1FAD
:103DF000E00FF11D07FDFA956083B901CA01012F9B
:103E0000611571058105910549F7115010F1E1E047
:103E1000F0E0EC0FFD1FE10FF11D17FDFA95908109
:103E200087E39A3008F480E3890F0E94B41AEDCF3B
:103E300080E3A0960FB6F894DEBF0FBECDBFDF9132
:103E4000CF911F910F91FF90EF90DF90CF900C9446
:103E5000B41AA0960FB6F894DEBF0FBECDBFDF91A7
:103E6000CF911F910F91FF90EF90DF90CF90089529
:103E7000CF92DF92EF92FF926B017C01F7FE0BC0B5
:103E80008DE20E94B41AF094E094D094C094C11CC6
:103E9000D11CE11CF11C4AE0C701B601FF90EF9074
:103EA000DF90CF900C94D41ECF93DF93EB010E9450
:103EB000C51ABE01DD0F880B990BDF91CF910C94D1
:103EC000381FCF93DF93EC0180913B07813089F459
:103ED0000E94411BCE010E94C51A86E29EE00E940C
:103EE000C51A60E070E0CB010E94381F8AE00E9492
:103EF000B41A0E94121680918706811111C081E0C8
:103F00008093870680E880933B070E9412160E94E8
:103F1000411B86E09EE00E94C51A80E00E94931A31
:103F2000DF91CF910895CF92DF92EF92FF92CF93DE
:103F3000DF93EC01C880D980EA80FB8083EB9CE0B2
:103F40000E94C51AC701B6010E94381FCC80DD80CF
:103F5000EE80FF808AE293E10E94C51AC701B60194
:103F60000E94381FC884D984EA84FB8486E293E1E6
:103F70000E94C51AC701B6010E94381F8AE0DF916E
:103F8000CF91FF90EF90DF90CF900C94B41A8F9266
:103F90009F92AF92BF92CF92DF92EF92FF92CF9318
:103FA0006B017C01B42E20E030E0A9010E941A7E52
:103FB00087FF07C08DE20E94B41AF7FAF094F7F871
:103FC000F094C0E060E070E080E09FE3CB1541F04A
:103FD0002DEC3CEC4CEC5DE30E94807ECF5FF6CF95
:103FE0009B01AC01C701B6010E94D4846B017C0126
:103FF0000E9447864B015C014AE00E94D41ECC23FC
:1040000091F1C501B4010E941F7E9B01AC01C70163
:10401000B6010E94D3846B017C018EE20E94B41A27
:10402000C15008F120E030E040E251E4C701B601A0
:104030000E94807E4B015C010E9440866B01770FDD
:10404000EE08FF08C701B6010E94381FC701B6017C
:104050000E94217E9B01AC01C501B4010E94D38462
:104060006B017C01DDCFCF91FF90EF90DF90CF907F
:10407000BF90AF909F908F900895CF92DF92EF9274
:10408000FF926A017B010E94C51A42E0C701B60196
:10409000FF90EF90DF90CF900C94C71F8823A9F179
:1040A0000E94451B4091000C5091010C6091020C44
:1040B0007091030C87E393E10E943D204091040C32
:1040C0005091050C6091060C7091070C84E393E10C
:1040D0000E943D204091080C5091090C60910A0CFF
:1040E00070910B0C81E393E10E943D2040910C0CF8
:1040F00050910D0C60910E0C70910F0C8EE293E1BB
:104100000E943D208AE00C94B41A80E20E94B41A06
:10411000C9CF4F925F926F927F928F929F92AF9290
:10412000BF92CF92DF92EF92FF920F931F93CF93A4
:10413000DF93C3E4D2E04C845D846E847F8404E426
:1041400017E0F80124813581468157816C817D819A
:104150008E819F810E94D4844B015C01F8012085EF
:10416000318542855385688579858A859B850E943E
:10417000D4846B017C01F80120813181428153811B
:10418000688179818A819B810E94D484AB01BC01C2
:104190008AEB9CE00E943D20B501A4018AE293E1F4
:1041A0000E943D20B701A60186E293E10E943D20D6
:1041B000B301A20182ED91E1DF91CF911F910F91A7
:1041C000FF90EF90DF90CF90BF90AF909F908F9037
:1041D0007F906F905F904F900C943D20CF93DF9332
:1041E000CDB7DEB72C970FB6F894DEBF0FBECDBFAC
:1041F0000E9489200E946D179CE0EEECF6E0DE0143
:10420000119601900D929A95E1F781110E947A170B
:10421000CE0101960E94931F2C960FB6F894DEBF34
:104220000FBECDBFDF91CF9108958F929F92AF9235
:10423000BF92CF92DF92EF92FF920F931F93CF9393
:10424000C82F0BEE16E0F80160857185072E000C73
:10425000880B990B0E94217E6B017C0120E030E0ED
:10426000A901F80164817581868197810E94D484B7
:104270004B015C0180E20E94B41A84E50E94B41AEA
:104280008AE30E94B41A42E0C501B4010E94C71F2C
:10429000B701A60189E19DE00E943D2062E070E047
:1042A00080E090E00E94741287E1C802F0011124BE
:1042B000E551F94F628570E08CE19DE0CF911F914F
:1042C0000F91FF90EF90DF90CF90BF90AF909F90B5
:1042D0008F900C94541F1F93CF93DF93C82FD1E07E
:1042E000D827811102C00E94451B8CE39CE00E94EC
:1042F000C51A86E39CE00E94C51A8AE00E94B41A9F
:104300008AE00E94B41A1091C106C1110DC060E08C
:1043100083E29CE00E94571B112309F493C18AE0B9
:104320000E94B41A0E94451B4091BD065091BE06E2
:104330006091BF067091C0068FE09CE00E943D2016
:104340008AE00E94B41A111108C0C11102C00E9473
:10435000451B84E09CE00E94C51AC11105C061E0C4
:1043600084EF9BE00E94571B8D2F0E944E20C111AD
:1043700007C061E087ED9BE00E94571B0E94451B30
:104380004091100C5091110C6091120C7091130C13
:104390008EEC9BE00E943D204091140C5091150C36
:1043A0006091160C7091170C84E393E10E943D20FC
:1043B0004091180C5091190C60911A0C70911B0CC3
:1043C00081E393E10E943D2040911C0C50911D0C13
:1043D00060911E0C70911F0C8EE293E10E943D20B3
:1043E0008AE00E94B41AC11107C061E08DEA9BE027
:1043F0000E94571B0E94451B6091EC0B7091ED0BC6
:104400008091EE0B9091EF0B0E941F7EAB01BC01DF
:1044100084EA9BE00E943D206091F00B7091F10BCB
:104420008091F20B9091F30B0E941F7EAB01BC01B7
:1044300084E393E10E943D206091F40B7091F50BB1
:104440008091F60B9091F70B0E941F7EAB01BC018F
:1044500081E393E10E943D206091F80B7091F90B8C
:104460008091FA0B9091FB0B0E941F7EAB01BC0167
:104470008EE293E10E943D208AE00E94B41AC111AD
:1044800007C061E08BE59BE00E94571B0E94451B23
:104490004091200C5091210C6091220C7091230CC2
:1044A00082E59BE00E943D204091240C5091250C18
:1044B0006091260C7091270C8EE99FE00E943D20B0
:1044C0004091280C5091290C60912A0C70912B0C72
:1044D0008BE99FE00E943D208AE00E94B41AC1113E
:1044E00007C061E08EEF9AE00E94571B0E94451BB7
:1044F0006091FC0B7091FD0B8091FE0B9091FF0B76
:104500000E941F7EAB01BC0185EF9AE00E943D2016
:1045100040912C0C50912D0C60912E0C70912F0C11
:104520008AED91E10E943D204091300C5091310C78
:104530006091320C7091330C8BE99FE00E943D201A
:104540004091500750915107609152077091530765
:1045500082EF9AE00E943D208AE00E94B41AC111C5
:1045600007C061E085EE9AE00E94571B0E94451B40
:104570004091B1065091B2066091B3067091B406B5
:104580008CED9AE00E943D204091B5065091B60610
:104590006091B7067091B80684E393E10E943D20D4
:1045A0004091B9065091BA066091BB067091BC0665
:1045B00081E393E10E943D208AE00E94B41AC11178
:1045C00007C061E08EEC9AE00E94571B0E94451BD9
:1045D0004091F6065091F7066091F8067091F90641
:1045E00085EC9AE00E943D202CEA35EC47E25EE340
:1045F0006091FA067091FB068091FC069091FD0691
:104600000E94CE85AB01BC0182EC9AE00E943D2065
:104610002CEA35EC47E25EE36091FE067091FF06FE
:1046200080910007909101070E94807EAB01BC0140
:1046300085E19CE00E943D208AE0DF91CF911F91AF
:104640000C94B41A88E19CE00E94C51A6BCE8DE0F0
:104650000E94B41A8AE00C94B41A8091AA03809341
:10466000AB038CE499E00E94C51A6091360C7091FE
:10467000370C8091380C9091390C6F5F7F4F8F4FC2
:104680009F4F0E94381F0E942723E0918806F0E088
:10469000E156F34F8081882339F084E49EE00E9444
:1046A000C51A8AE00C94B41A0895CF93DF93EC01F5
:1046B0000E94411BCE010E94C51A6091360C709178
:1046C000370C8091380C9091390C0E94381F0E9451
:1046D00027230E94711B0196E1F70E942D2310925F
:1046E000350C1092340CDF91CF9108950F931F93E6
:1046F000CF938C01C62F81E099E00E94C51AC801B2
:104700000E94C51A8AE30E94B41A6C2F70E090E0F0
:1047100080E00E94381FCF911F910F910C942723A6
:10472000CF93DF93EC018991882319F00E94B41A8A
:10473000FACFDF91CF910C942723CF93FC01C08D4A
:10474000C11106C0C18DC11108C08C2FCF91089531
:104750008FE792E00E949023F8CF628173818CE111
:1047600099E00E94541F8AE00E94B41AEECF2F9263
:104770003F924F925F926F927F928F929F92AF92F1
:10478000BF92CF92DF92EF92FF920F931F93CF933E
:10479000DF93CDB7DEB764970FB6F894DEBF0FBED8
:1047A000CDBFF82E062F642E26E0829F60011124D3
:1047B000F601E558FB4E45905490C60187589B4E34
:1047C0005C01FC0125903490F201808190E0B0E022
:1047D000A0E0B695A79597958795F1011081137084
:1047E000282F2470122BF4E04F1302C08870182B6E
:1047F00088E098E00E94C51A30E3732E7F0C872D65
:104800000E94B41A802F0E94B41A83E00E94BB1A3F
:10481000802E002E000C9908F401E154F10923E0E8
:10482000F29EE00DF11D1124EE0FFF1FEB5AFB4E1F
:10483000CE0101967C0193E069121BC0A591B49151
:104840008C911F928F9384E797E09F938F93FF92B1
:10485000EF920E94EA7D0F900F900F900F900F90B3
:104860000F90F70181917F01882309F10E94B41A0A
:10487000F8CFA591B49111968C9111978F938C914B
:104880008F9384E797E09F938F93FF92EF920E941C
:10489000EA7D0F900F900F900F900F900F90F701FF
:1048A00081917F01882319F00E94B41AF8CF612FFB
:1048B00070E08EEF97E00E94541FF501E590F490B0
:1048C0008EE797E00E94C51A872D0E94B41A802FA8
:1048D0000E94B41AF701608170E083E090E08819CB
:1048E0009909880F991F02C0759567958A95E2F717
:1048F0006370772782EF97E00E94541FF201808156
:104900008770882E912CB12CA12C85EF97E00E9406
:10491000C51A4AE0C501B4010E94D41E88EE97E092
:104920000E94C51A872D0E94B41AF101608170E0BF
:1049300081EF97E00E94541F88EE97E00E94C51A0D
:10494000872D0E94B41AF201608170E084EE97E036
:104950000E94541FF601E358FB4EE590F4908AED57
:1049600097E00E94C51A872D0E94B41AF701608152
:1049700070E082EF97E00E94541F0054F3E06F1242
:1049800039C0197F21F486E897E00E94C51AF70123
:10499000808190E0B0E0A0E004C0B695A79597951F
:1049A00087950A95D2F780FF04C08FE997E00E94AF
:1049B000C51AF701808180FF04C08CEB97E00E944C
:1049C000C51A64960FB6F894DEBF0FBECDBFDF9157
:1049D000CF911F910F91FF90EF90DF90CF90BF90FC
:1049E000AF909F908F907F906F905F904F903F908F
:1049F0002F900895812F8B7F31F21C50123038F6A2
:104A0000C2CFCF93DF93C82FD0E0FE01E45EF14E1A
:104A1000E491E150E231F0F4F0E08827ED5EFA4DE8
:104A20008F4F0C94CB842525552558255C255F2573
:104A30002A256225662569256D257025732577252C
:104A40007A252A257D258125842543E061E480E0BF
:104A50000E94B72380EC91E10E94C51AFE01EB563B
:104A6000F14EE491E23009F052C0FE01E552F14E00
:104A7000E491E03809F04BC084E398E00E94C51A45
:104A800082E10E94BB1A8CE298E00E94C51A82E182
:104A900098E00E94C51A8EE00E94BB1A44E063E4CD
:104AA00081E0DF91CF910C94B72343E062E4CFCF54
:104AB00044E061E481E0CCCF44E062E4FBCF44E039
:104AC00063E4F8CF43E061E482E0C2CF43E062E414
:104AD000FBCF44E061E483E0BBCF44E062E4FBCF82
:104AE00044E063E4F8CF44E061E484E0B1CF44E023
:104AF00062E4FBCF44E063E4F8CF44E061E485E0A6
:104B0000A7CF44E062E4FBCF44E063E4F8CFDF9159
:104B1000CF9108950F931F93CF93DF93CDB7DEB757
:104B200064970FB6F894DEBF0FBECDBFE82FF0E05C
:104B3000E45EF14EE491E150E23108F066C2F0E04B
:104B40008827EA55FA4D8F4F0C94CB84B825E4257D
:104B5000042629264E26052873269626B926DE2603
:104B6000032728274D27722705289727BC27E127E9
:104B700084B5807C09F449C287B51F928F9384E77E
:104B800097E09F938F938E010F5F1F4F1F930F939B
:104B90000E94EA7D0F900F900F900F900F900F9052
:104BA000F80181918F0181110CC081E064960FB6EC
:104BB000F894DEBF0FBECDBFDF91CF911F910F9153
:104BC00008950E94B41AECCF84B5807309F41DC215
:104BD00088B51F928F9384E797E09F938F938E0100
:104BE0000F5F1F4F1F930F930E94EA7D0F900F904E
:104BF0000F900F900F900F90F80181918F018823F3
:104C0000A1F20E94B41AF8CF80918000807C09F450
:104C1000FCC180918800909189009F938F9384E7D5
:104C200097E09F938F938E010F5F1F4F1F930F93FA
:104C30000E94EA7D0F900F900F900F900F900F90B1
:104C4000F80181918F01882309F4AFCF0E94B41A33
:104C5000F7CF80918000807309F4D7C180918A00DA
:104C600090918B009F938F9384E797E09F938F930E
:104C70008E010F5F1F4F1F930F930E94EA7D0F90CD
:104C80000F900F900F900F900F90F80181918F016E
:104C9000882309F48ACF0E94B41AF7CF809180004C
:104CA0008C7009F4B2C180918C0090918D009F931B
:104CB0008F9384E797E09F938F938E010F5F1F4F31
:104CC0001F930F930E94EA7D0F900F900F900F900B
:104CD0000F900F90F80181918F01882309F465CF1F
:104CE0000E94B41AF7CF8091B000807C09F48DC186
:104CF0008091B3001F928F9384E797E09F938F93E7
:104D00008E010F5F1F4F1F930F930E94EA7D0F903C
:104D10000F900F900F900F900F90F80181918F01DD
:104D2000882309F442CF0E94B41AF7CF8091B000D3
:104D3000807309F46AC18091B4001F928F9384E755
:104D400097E09F938F938E010F5F1F4F1F930F93D9
:104D50000E94EA7D0F900F900F900F900F900F9090
:104D6000F80181918F01882309F41FCF0E94B41AA2
:104D7000F7CF80919000807C09F447C18091980022
:104D8000909199009F938F9384E797E09F938F93DF
:104D90008E010F5F1F4F1F930F930E94EA7D0F90AC
:104DA0000F900F900F900F900F90F80181918F014D
:104DB000882309F4FACE0E94B41AF7CF80919000AC
:104DC000807309F422C180919A0090919B009F9377
:104DD0008F9384E797E09F938F938E010F5F1F4F10
:104DE0001F930F930E94EA7D0F900F900F900F90EA
:104DF0000F900F90F80181918F01882309F4D5CE8F
:104E00000E94B41AF7CF809190008C7009F4FDC015
:104E100080919C0090919D009F938F9384E797E0F1
:104E20009F938F938E010F5F1F4F1F930F930E94CD
:104E3000EA7D0F900F900F900F900F900F90F80158
:104E400081918F01882309F4B0CE0E94B41AF7CF64
:104E50008091A000807C09F4D8C08091A800909136
:104E6000A9009F938F9384E797E09F938F938E0180
:104E70000F5F1F4F1F930F930E94EA7D0F900F90BB
:104E80000F900F900F900F90F80181918F01882360
:104E900009F48BCE0E94B41AF7CF8091A0008073E2
:104EA00009F4B3C08091AA009091AB009F938F93B7
:104EB00084E797E09F938F938E010F5F1F4F1F939F
:104EC0000F930E94EA7D0F900F900F900F900F901C
:104ED0000F90F80181918F01882309F466CE0E941A
:104EE000B41AF7CF8091A0008C7009F48EC0809125
:104EF000AC009091AD009F938F9384E797E09F93D0
:104F00008F938E010F5F1F4F1F930F930E94EA7DB7
:104F10000F900F900F900F900F900F90F8018191CC
:104F20008F01882309F441CE0E94B41AF7CF8091F3
:104F30002001807C09F469C08091280190912901A9
:104F40009F938F9384E797E09F938F938E010F5FDA
:104F50001F4F1F930F930E94EA7D0F900F900F90A9
:104F60000F900F900F90F80181918F01882309F421
:104F70001CCE0E94B41AF7CF80912001807309F4EF
:104F800044C080912A0190912B019F938F9384E7D5
:104F900097E09F938F938E010F5F1F4F1F930F9387
:104FA0000E94EA7D0F900F900F900F900F900F903E
:104FB000F80181918F01882309F4F7CD0E94B41A7A
:104FC000F7CF809120018C7001F180912C0190919C
:104FD0002D019F938F9384E797E09F938F938E018A
:104FE0000F5F1F4F1F930F930E94EA7D0F900F904A
:104FF0000F900F900F900F90F80181918F018823EF
:1050000009F4D3CD0E94B41AF7CF80E0CFCDEF9250
:10501000FF920F931F93CF93DF93CDB7DEB76297C5
:105020000FB6F894DEBF0FBECDBF9091410786E06A
:1050300090FF87E091FD8D7F92FF12C08B7FC9F5B5
:1050400062960FB6F894DEBF0FBECDBFDF91CF9151
:105050001F910F91FF90EF9008958FE992E00CC09F
:105060002BE932E04AE952E081FF02C04DE952E00B
:1050700080FDF3CF8AE992E03F932F935F934F93A4
:105080009F938F938EEF92E19F938F93CE01019622
:105090007C019F938F930E94EA7D0E94451BC7016C
:1050A0000E9490230FB6F894DEBF0FBECDBF81E003
:1050B000C7CF2AE932E0D6CFAF92BF92CF92DF922C
:1050C000EF92FF920F931F93CF93DF93CDB7DEB78D
:1050D0002C970FB6F894DEBF0FBECDBFE62E29E6A3
:1050E000C22E22E0D22E5C01F12C80E20E94B41A82
:1050F000F60181916F010E94B41A8AE30E94B41AEA
:10510000F50161917191819191915F018E010F5F24
:105110001F4F23E041E00E94CB788C01F801819180
:105120008F01882319F00E94B41AF8CFF394EF107E
:10513000DCCF8AE00E94B41A2C960FB6F894DEBF3A
:105140000FBECDBFDF91CF911F910F91FF90EF90D8
:10515000DF90CF90BF90AF900895FF920F931F9371
:10516000CF93DF931F92CDB7DEB7F82E0EE314E195
:1051700041E050E0B801CE0101960E94A67D8981F0
:105180008F1108C081E00F90DF91CF911F910F9197
:10519000FF9008950F5F1F4F84E10535180741F711
:1051A00080E0F1CF85ED8093BC008091820C9091DE
:1051B000830CA091840CB091850C0796A11DB11DA4
:1051C00023E0B695A795979587952A95D1F72091D5
:1051D000BC0024FD03C01092800C08954091820C05
:1051E0005091830C6091840C7091850C452B462B5B
:1051F000472B69F30097A105B10541F025E32A95F6
:10520000F1F700000197A109B109E1CF8091810C6C
:105210000C94A0144F925F926F927F928F929F9204
:10522000AF92BF92CF92DF92EF92FF920F931F93B4
:10523000CF93DF93CDB7DEB76A970FB6F894DEBF92
:105240000FBECDBF9A8F898F5B018A01DC01D69694
:105250006D917D918D919C91D9970E941F7E6B01DC
:105260007C01F50120813181428153810E94807E41
:105270000E94B2852B013C01D8012D913D914D91A9
:105280005C91C701B6010E94807E0E94B2854B01ED
:105290005C01C301B2010E944786698B7A8B8B8BBC
:1052A0009C8B683771058105910540F428E730E053
:1052B00040E050E0298B3A8B4B8B5C8BC501B401ED
:1052C0000E9447866D877E878F87988B6837710528
:1052D0008105910540F488E790E0A0E0B0E08D877B
:1052E0009E87AF87B88BE98DFA8DEE5BFF4F2081EB
:1052F00031814281538129833A834B835C83CA0184
:10530000B9010E94217E2B013C0169897A898B8930
:105310009C890E941F7E69877A878B879C8720E003
:1053200030E0A901C301B2010E941A7E882309F46A
:105330003BC1A7019601C701B6010E94807E4B01C7
:105340005C0129853A854B855C85CA01B9010E94BB
:10535000807E9B01AC01C501B4010E94D3844B0146
:105360005C01A3019201C301B2010E94D4849B019C
:10537000AC01C501B4010E94CE850E94B2850E9495
:1053800047866D837E838F83988769817A818B813D
:105390009C8190958095709561957F4F8F4F9F4F21
:1053A0000E94217E4B015C016D857E858F859889E9
:1053B0000E941F7E69837A838B839C8320E030E088
:1053C000A901C501B4010E941A7E882309F4F0C026
:1053D00029813A814B815C81CA01B9010E94807E9A
:1053E0006D8B7E8B8F8B988FA7019601C701B601BD
:1053F0000E94807E9B01AC016D897E898F89988D8A
:105400000E94D3846B017C01A5019401C501B40104
:105410000E94D4849B01AC01C701B6010E94CE85D5
:105420000E947686A98DBA8D95968D909D90AD90AF
:10543000BC909897750164012D813E814F815885FC
:10544000C21AD30AE40AF50A0E944786C61AD70A86
:10545000E80AF90AF7FE6EC020E030E0A901C301B6
:10546000B2010E941A7E882309F4A6C0C501B401C6
:105470000E941F7E6B017C01A3019201C301B20156
:105480000E94D4849B01AC01C701B6010E94807EBA
:105490006B017C0129853A854B855C85CA01B90180
:1054A0000E94807E9B01AC01C701B6010E94D3849B
:1054B0006B017C0129813A814B815C81CA01B90170
:1054C0000E94807E9B01AC01C701B6010E94D4847A
:1054D0006B017C0120E030E040E850E4C301B20100
:1054E0000E94807E9B01AC01C701B6010E94CE855F
:1054F0000E94B2856B017C0120E030E0A9010E948E
:10550000348718161CF0C12CD12C7601C701B601C6
:105510000E9447866D837E838F83988786169706C1
:10552000A806B90620F48D829E82AF82B886C12C6F
:10553000D12C76018D819E81AF81B885E98DFA8D60
:1055400081A792A7A3A7B4A7C80ED91EEA1EFB1E67
:10555000C5A6D6A6E7A6F0AA29893A894B895C890F
:1055600022AF33AF44AF55AFFE962D853E854F85B4
:10557000588920833183428353836A960FB6F89407
:10558000DEBF0FBECDBFDF91CF911F910F91FF9076
:10559000EF90DF90CF90BF90AF909F908F907F90D3
:1055A0006F905F904F90089560E070E0CB01E5CE82
:1055B00060E070E0CB0134CF60E070E0CB0198CFC9
:1055C0004F925F926F927F92AF92BF92CF92DF9293
:1055D000EF92FF920F931F93CF93DF9310921507D3
:1055E000109214072FE320933F0710923E0710926A
:1055F0003D0710920F07109210071092110710929A
:1056000012079C01E90198812F5F3F4F9032D1F33F
:105610009E34C9F4898190ED980F9A3020F08D3234
:1056200011F08B3281F422969E012F5F3F4F8881CB
:1056300080538A3008F470C09E012F5F3F4F8881ED
:10564000803209F46BC0D0934307C09342077E01B8
:105650002FEFE21AF20A18816AE270E0C7010E9495
:10566000E687009731F0FC01319780818032E1F3C9
:1056700011821D3421F0143511F01734F1F5F701C2
:1056800080819FEFE91AF90A8032C9F380538A308A
:10569000A0F510933F0790E080E0AAE0AF014F5FD4
:1056A0005F4F2081022E000C330B20533109A89F3D
:1056B000B001A99F700D1124C901860F971FFA012F
:1056C000208120532A3050F390933E0780933D076A
:1056D000DF0131962C912032D9F31D3459F58E31EA
:1056E000910539F0ECF48731910519F08C31910571
:1056F00009F5B0931507A0931407DF91CF911F917F
:105700000F91FF90EF90DF90CF90BF90AF907F9080
:105710006F905F904F900895E90186CFE9018CCF9B
:10572000853791053CF0873791051CF3803AE3E01B
:105730009E07F9F240E050E0BA0130E020E0C12CD1
:10574000D12C7601C394FD0131960C91002309F40C
:105750008CC00132F1F41D34E1F480329105C9F4BA
:1057600040930F075093100760931107709312072F
:10577000F0931507E093140763E270E0CF010E94F5
:10578000E687009709F4B9CFFC011082B6CFDF019C
:10579000DACF01540A3108F063C0DF01BD90D0E2D6
:1057A000AD2EBA1499F0A0EDAB0DAA3008F1AEE21F
:1057B000BA120EC0A181A053AA30D0F02115310534
:1057C00019F49F0121503109B12C16C0FD01E5CF1C
:1057D000ADE2AA2EBA1419F0ABE2BA12EFCFA18152
:1057E000B0EDBA0FBA3020F0AE3241F7A281E3CF6C
:1057F000BE2EBC1A309741F3A02FB0E0260137012E
:1058000004C0440C551C661C771C0A95D2F7442929
:10581000552966297729A057BC4FBC92A081A15475
:10582000AA3108F4B4CFDF010191002309F48BCF32
:10583000D0EDBD2EB00ED9E0AD2EAB14A0F7D3ED58
:10584000BD2EB00EAA24A394AB1468F70B3259F303
:10585000FD0131960C91003209F075CFDF01F8CFD0
:1058600021153105D9F69D01D9CF30931507209325
:10587000140740930F07509310076093110770931C
:1058800012073BCF2F923F924F925F926F927F927F
:105890008F929F92AF92BF92CF92DF92EF92FF9240
:1058A0000F931F93CF93DF93CDB7DEB7AC970FB6AF
:1058B000F894DEBF0FBECDBF582E6CA74AA7790162
:1058C000D12CC12C19A6412C082F082E000C110B2D
:1058D0002AEC280F2BA7CE0101965C01F601E156B8
:1058E000FB4E9490692C712C6016710609F08FC0E4
:1058F000411046C0E114F10419F0C7010E94C51A15
:1059000085E798E00E94C51A1F929F92E0E7F8E0B1
:10591000FF93EF93BF92AF920E94EA7D15010F9023
:105920000F900F900F900F900F904501F40181910F
:105930004F01882319F00E94B41AF8CF852D0E94D8
:105940000E1BFBA588E0F7FD26C026E3621A71084E
:105950007F926F9286E698E09F938F93BF92AF926B
:105960000E94EA7D0F900F900F900F900F900F9074
:10597000F10181911F01882381F00E94B41AF8CFB0
:105980008EE20E94B41A8AE1E114F10421F0C70109
:105990000E94AF7D865E0E94BB1AF601E356FB4E65
:1059A00025903490912C812CF101E80DF91D749013
:1059B00071100DC087E290E0881999094C017814A4
:1059C00019047CF480E20E94B41A7394F8CF872DF6
:1059D0000E94B41A9FEF891A990AE7E28E16910481
:1059E00019F7FAA5FF2369F0852D0E94AD288823B9
:1059F00009F43FC02CA521113CC08FE898E00E941B
:105A0000C51A8AE00E94B41A49A64424439424E0AB
:105A1000C20ED11C88ECC816D10409F05FCF41102A
:105A2000C0C0E114F10419F0C7010E94C51A85E74E
:105A300098E00E94C51A1F930F9380E798E09F9308
:105A40008F93FE0131967F01FF93EF930E94EA7DD1
:105A500067010F900F900F900F900F900F905701CC
:105A6000F50181915F01882309F44BC00E94B41AAB
:105A7000F7CFF601E056FB4EE491E11121C08BA572
:105A80000E942712092E000CAA0BBB0BBF93AF93E9
:105A90009F938F9384E498E09F938F93BF92AF92EC
:105AA0000E94EA7D45010FB6F894DEBF0FBECDBF60
:105AB000F40181914F018823A9F00E94B41AF8CF14
:105AC000852D0E94EE19811114C085E898E00E948E
:105AD000C51A852D0E94D019BC01990F880B990B0E
