:100000000C944A010C947B010C947B010C947B01B1
:100010000C947B010C947B010C947B010C947B0170
:100020000C947B010C947B010C947B010C947B0160
:100030000C947B010C947B010C947B010C947B0150
:100040000C947B010C947B010C947B010C947B0140
:100050000C947B010C947B010C947B010C942C057B
:100060000C947B010C94F6040C94CC040C947B014E
:100070000C947B010C947B010C947B010C947B0110
:100080000C947B010C947B010C947B010C947B0100
:100090000C947B010C947B010C947B010C947B01F0
:1000A0000C947B010C947B010C947B010C947B01E0
:1000B0000C947B010C947B010C947B010C947B01D0
:1000C0000C947B010C947B010C947B010C947B01C0
:1000D0000C947B010C947B010C947B010C947B01B0
:1000E0000C947B010C9477070C9438030C940C034C
:1000F0000C9424030C9415070C9401030C94FD023A
:100100000C9446070C94EF060C94AA010C940A0771
:100110000C9432030C94CD010C944A0A0C941302F3
:100120000C9405030C94DB010C947D010C940903E1
:100130000C9456070C9482070C943C030C94EA062A
:100140000C94F4060C9465020C942E030C94610735
:100150000C9425070C943B070C94EB020C946C0751
:100160000C9412030C942A030C941C030C9420038B
:100170000C948D070C9430070C94E6020C94160333
:100180000C94B9010C94FF060C941D07000022008A
:10019000250028002B002E00310034000201000051
:1001A000050108010B0100000A0B02090C0D0E08E5
:1001B0000703040100000000000000000000000030
:1001C000000000000000000000000000000000002F
:1001D00000001211100000000000000000000000EC
:1001E00000000000000000000000000000002100EE
:1001F000240027002A002D003000330001010000F8
:10020000040107010A010102102020080810204003
:1002100010204080020102010804020101020408CA
:100220001020408080402010080402018004020158
:1002300080402010080402010804020101020408A1
:1002400010204080010204081020408005050505AB
:10025000070508080808020202020A0A080804043E
:10026000040401010101010101010303030303036C
:100270000303040707070C0C0C0C0C0C0C0C0202FB
:10028000020206060606060606060B0B0B0B0B0BF8
:100290000B0B4A0A11241FBECFEFD1E2DEBFCDBF48
:1002A00000E00CBF12E0A0E0B2E0E2E0F5E100E027
:1002B0000BBF02C007900D92AC31B107D9F723E014
:1002C000ACE1B2E001C01D92A23EB207E1F711E03D
:1002D000CAE4D1E000E006C021970109802FFE01A9
:1002E0000E94770AC934D10780E00807A9F70E9465
:1002F00076050C947F0A0C940000AF92BF92CF92C7
:10030000DF92EF92FF920F931F93CF93DF936C01D5
:100310007B018B01040F151FEB015E01AE18BF08B6
:10032000C017D10759F06991D601ED91FC91019068
:10033000F081E02DC6011995892B79F7C501DF9170
:10034000CF911F910F91FF90EF90DF90CF90BF90D2
:10035000AF900895FC01538D448D252F30E0842FFC
:1003600090E0821B930B541710F0CF9608950197DD
:100370000895FC01918D828D981761F0A28DAE0FCA
:10038000BF2FB11D5D968C91928D9F5F9F73928F51
:1003900090E008958FEF9FEF0895FC01918D828D7D
:1003A000981731F0828DE80FF11D858D90E008954A
:1003B0008FEF9FEF0895FC01918D228D892F90E0A2
:1003C000805C9F4F821B91098F739927089585E464
:1003D00093E00E94DB0121E0892B09F420E0822FC9
:1003E0000895FC01A48DA80FB92FB11DA35ABF4FCA
:1003F0002C91848D90E001968F739927848FA68924
:10040000B7892C93A089B1898C91837080648C9377
:10041000938D848D981306C00288F389E02D808126
:100420008F7D80830895EF92FF920F931F93CF9358
:10043000DF93EC0181E0888F9B8D8C8D98131AC01F
:10044000E889F989808185FF15C09FB7F894EE8906
:10045000FF896083E889F989808183708064808363
:100460009FBF81E090E0DF91CF911F910F91FF90AE
:10047000EF900895F62E0B8D10E00F5F1F4F0F7356
:100480001127E02E8C8D8E110CC00FB607FCFACF11
:10049000E889F989808185FFF5CFCE010E94F101BD
:1004A000F1CFEB8DEC0FFD2FF11DE35AFF4FF082E2
:1004B0009FB7F8940B8FEA89FB8980818062CFCF48
:1004C000682F85E493E00C941302CF93DF93EC0143
:1004D000888D8823B9F0AA89BB89E889F9898C912C
:1004E00085FD03C0808186FD0DC00FB607FCF7CFE8
:1004F0008C9185FFF2CF808185FFEDCFCE010E94E8
:10050000F101E9CFDF91CF91089580E090E0892B50
:1005100029F00E94E70181110E94000080E090E034
:10052000892B49F080E090E0892B29F00E9400009F
:1005300081110E94000080E090E0892B49F080E06A
:1005400090E0892B29F00E94000081110E94000098
:1005500080E090E0892B49F080E090E0892B29F041
:100560000E94000081110C9400000895282F30E0B3
:10057000F901EA55FE4F9491F901EA5FFD4F44916C
:10058000245B3D4FF9012491222309F435C09923BE
:1005900011F191509231F8F4E92FF0E08827EC52F4
:1005A000FD4F8F4F0C94770A05030903E602FD0205
:1005B0000103EB020C03120316031C0320032403A4
:1005C0002A032E03EB02320338033C0380918000A0
:1005D0008F7780938000E22FF0E0EE0FFF1FE4574B
:1005E000FE4FA591B4918FB7F894EC91611148C07A
:1005F00040954E234C938FBF0895809180008F7D4E
:10060000E8CF80918000877FE4CF84B58F7784BD69
:10061000E2CF84B58F7DFBCF8091B0008F77809340
:10062000B000D9CF8091B0008F7DF9CF809190003C
:100630008F7780939000CFCF809190008F7DF9CFFE
:1006400080919000877FF5CF8091A0008F77809375
:10065000A000C1CF8091A0008F7DF9CF8091A00034
:10066000877FF5CF809120018F7780932001B3CFD2
:10067000809120018F7DF9CF80912001877FF5CF78
:100680004E2BB8CFCF93DF9390E0FC01EA5FFD4F94
:100690002491845B9D4FFC0184918823D1F090E0EC
:1006A000880F991FFC01E451FE4FA591B491FC0104
:1006B000E457FE4FC591D49161110EC09FB7F894D5
:1006C0008C91E22FE0958E238C932881E223E8839E
:1006D0009FBFDF91CF9108958FB7F894EC91E22BF3
:1006E000EC938FBFF6CF3FB7F89480911D029091A5
:1006F0001E02A0911F02B091200226B5A89B05C042
:100700002F3F19F00196A11DB11D3FBFBA2FA92F90
:10071000982F8827BC01CD01620F711D811D911D8D
:1007200042E0660F771F881F991F4A95D1F70895F9
:100730008F929F92AF92BF92CF92DF92EF92FF92F1
:100740004B015C010E9473036B017C010E947303E7
:100750006C197D098E099F09683E734081059105DA
:10076000A8F321E0821A9108A108B10888EEC80E0A
:1007700083E0D81EE11CF11C81149104A104B10492
:1007800029F7FF90EF90DF90CF90BF90AF909F90B0
:100790008F9008951F93CF93DF93182FC3E0D0E07D
:1007A00061E0812F0E94B6026EE170E080E090E08F
:1007B0000E94980360E0812F0E94B6026EE170E013
:1007C00080E090E00E949803219751F7DF91CF914C
:1007D0001F91089580914103909142030196909357
:1007E00042038093410385E10C946002209134021E
:1007F0003091350280913F039091400320323105C2
:1008000011F4807F08952034310511F4807E08951D
:100810002038310511F4807C08952115314009F408
:100820008078089585E493E00E94DB01892BD1F361
:1008300085E493E00E94B9010895CF93C82F0E94E8
:100840001204803251F484E10E9460028C2F0E94D5
:10085000600280E1CF910C946002809141039091FD
:1008600042030196909342038093410385E1F2CFC6
:100870000E941204803231F484E10E94600280E11F
:100880000C946002809141039091420301969093F1
:1008900042038093410385E1F3CF0F931F93CF93DE
:1008A000DF938C01CCE3D2E0CE018C5392408017D1
:1008B000910724F40E9412048993F6CFDF91CF911F
:1008C0001F910F9108958EBD00000DB407FEFDCF5E
:1008D0008EB508951F93CF93DF93162FD42FC22F79
:1008E0000E946304812F0E9463048D2F0E94630481
:1008F0008C2FDF91CF911F910C946304EF92FF92A4
:100900000F931F93CF93DF93EC018B01CB010E94D8
:100910004D0460E087E00E94B6028CE3E82E82E09E
:10092000F82E0C0F1D1FC017D10781F0F701219180
:100930007F014C2F6D2F80EC0E946A046DE270E005
:1009400080E090E00E9498032196EDCF61E087E07F
:100950000E94B60280E1DF91CF911F910F91FF902D
:10096000EF900895CF93DF93D82FC92F60E087E0F1
:100970000E94B60220E04D2F6C2F8CE40E946A0486
:100980006EE170E080E090E00E94980361E087E013
:10099000DF91CF910C94B6021F920F920FB60F9277
:1009A00011240BB60F922F933F934F935F936F9346
:1009B0007F938F939F93AF93BF93EF93FF9385E4C0
:1009C00093E00E94F101FF91EF91BF91AF919F9150
:1009D0008F917F916F915F914F913F912F910F90E8
:1009E0000BBE0F900FBE0F901F9018951F920F9285
:1009F0000FB60F9211240BB60F922F938F939F93E4
:100A0000EF93FF93E0915503F09156038081E091BD
:100A10005B03F0915C0382FD1DC0908180915E03B9
:100A20008F5F8F7320915F03821741F0E0915E0327
:100A3000F0E0EB5BFC4F958F80935E03FF91EF91AD
:100A40009F918F912F910F900BBE0F900FBE0F9023
:100A50001F9018958081F2CF1F920F920FB60F92C0
:100A600011242F933F938F939F93AF93BF938091C4
:100A7000210290912202A0912302B0912402309190
:100A80001C0223E0230F2D3758F50196A11DB11D3F
:100A900020931C028093210290932202A0932302B0
:100AA000B093240280911D0290911E02A0911F021A
:100AB000B09120020196A11DB11D80931D0290935B
:100AC0001E02A0931F02B0932002BF91AF919F918D
:100AD0008F913F912F910F900FBE0F901F901895FF
:100AE00026E8230F0296A11DB11DD2CF789484B5BC
:100AF000826084BD84B5816084BD85B5826085BD1A
:100B000085B5816085BD80916E00816080936E00A7
:100B10001092810080918100826080938100809199
:100B2000810081608093810080918000816080934A
:100B300080008091B10084608093B1008091B0000A
:100B400081608093B00080919100826080939100D9
:100B500080919100816080939100809190008160EC
:100B6000809390008091A10082608093A100809189
:100B7000A10081608093A1008091A000816080939A
:100B8000A000809121018260809321018091210148
:100B900081608093210180912001816080932001F8
:100BA00080917A00846080937A0080917A008260DC
:100BB00080937A0080917A00816080937A0080919E
:100BC0007A00806880937A001092C100E09155030A
:100BD000F091560382E08083E0915103F09152033B
:100BE0001082E0915303F091540387E680831092C2
:100BF0005D03E0915903F0915A0386E08083E09110
:100C00005703F0915803808180618083E0915703FE
:100C1000F0915803808188608083E0915703F091C0
:100C20005803808180688083E0915703F0915803D6
:100C300080818F7D808361E087E00E94420387E0AE
:100C400090E00E94CA0361E088E00E94420388E0CD
:100C500090E00E94CA0361E089E00E94420389E0BB
:100C600090E00E94CA030FEA202E01E0302E8BE8AC
:100C7000A82EBB24B39488248394912C21E8422E7F
:100C800022E0522E3BE3632E32E0732E8091430329
:100C90009091440361E0892B09F460E087E00E94B1
:100CA000B602809141039091420361E0892B09F4DF
:100CB00060E088E00E94B6022FB7F894809121028C
:100CC00090912202A0912302B09124022FBF409163
:100CD00025025091260260912702709128028C0112
:100CE0009D01041B150B260B370BB901A8014832D7
:100CF00051056105710518F1809325029093260234
:100D0000A0932702B0932802C091010280910002B3
:100D1000C13C20F081958093000202C0C032D0F324
:100D200080910002C80FC093010261E089E00E9437
:100D30004203C1112BC060E089E00E94B60285E445
:100D400093E00E94DB01892B09F4DBC20E941204AC
:100D5000813509F43FC308F06FC1813409F4F9C14A
:100D600008F0DEC0803309F4DBC1813309F4DFC150
:100D7000803209F07FC38091410390914203019634
:100D8000909342038093410385E1B0C2CF3F11F4B9
:100D900061E0D2CFF1018491EFEFE80FE23108F08A
:100DA000BCC0F0E08827E852F94F8F4F0C94770AC7
:100DB000EA06EF06F406FF060A078D0715071D076A
:100DC000250730073B074607560761078D076C0765
:100DD0007707820784B5806884BDC7BDB0CF84B56E
:100DE000806284BDC8BDABCF809180008068809355
:100DF0008000D0E0D0938900C0938800A0CF80917C
:100E00008000806280938000D0E0D0938B00C093FC
:100E10008A0095CF80918000886080938000D0E028
:100E2000D0938D00C0938C008ACF8091B0008068F1
:100E30008093B000C093B30082CF8091B0008062F5
:100E40008093B000C093B4007ACF80919000806806
:100E500080939000D0E0D0939900C09398006FCF1A
:100E600080919000806280939000D0E0D0939B00AE
:100E7000C0939A0064CF8091900088608093900026
:100E8000D0E0D0939D00C0939C0059CF8091A000EA
:100E900080688093A0008091A0008F7B8093A00049
:100EA000D0E0D093A900C093A80049CF8091A000C2
:100EB00080628093A000D0E0D093AB00C093AA00E2
:100EC0003ECF8091A00088608093A000D0E0D093B6
:100ED000AD00C093AC0033CF809120018068809337
:100EE0002001D0E0D0932901C093280128CF809120
:100EF0002001806280932001D0E0D0932B01C09329
:100F00002A011DCF80912001886080932001D0E0CC
:100F1000D0932D01C0932C0112CFC7FD39CF0BCF39
:100F2000853409F42DC1803509F42FC1823409F0CC
:100F3000A1C284E190E00E944D0420913C022093E4
:100F4000290280913D0280932A0280913E02809383
:100F50002B0280913F0280932C028091400280936B
:100F60002D028091410280932E0280914202809353
:100F70002F0280914302809330028091440280933B
:100F800031028091460290E0982F882730914702E5
:100F9000830F911D90933302809332028091480217
:100FA00090E0982F882730914902830F911D9093EC
:100FB00035028093340280914A0290E0982F88276E
:100FC00030914B02830F911D90933702809336022C
:100FD00080914C0290E0B0E0A0E0BA2FA92F982FAA
:100FE000882730914D02830F911DA11DB11DDC0199
:100FF0009927882740914E0250E0542F4427052E10
:10100000000C660B770B840F951FA61FB71F30913E
:101010004F02830F911DA11DB11D80933802909343
:101020003902A0933A02B0933B0281E0203E08F4DB
:1010300080E080933E0378C0813609F422C1C0F479
:10104000863509F4B8C1803609F419C1853509F02F
:1010500011C20E941204C82F0E94120490E0982F1F
:1010600088278C0F911D9093400380933F035CC0B1
:10107000843709F449C1853709F4DBC1843609F0A6
:10108000F9C10E941204C82FD0E0DC2FCC270E94A7
:101090001204C80FD11D0E941204863409F0F8C052
:1010A000CE010E944D040E941204803209F063CEEA
:1010B00084E10E9460020E94F6036C013CE3E32E8F
:1010C00032E0F32EC7018C5392408C179D070CF031
:1010D000DBC00E94F6038C159D0531F0C6010E940D
:1010E000B2040E94F6036C0100913F03109140038B
:1010F000F7012081402F612F80E40E946A04F701EC
:101100002181402F612F88E40E946A040F5F1F4FE6
:101110001093400300933F03F2E0EF0EF11CD2CF97
:1011200010924203109241030E943804EAC00E94C8
:101130001204803209F01FCE84E10E94600247E071
:1011400050E064E172E085E493E00E947D0180E17B
:10115000CDC00E941204813879F020F4803841F02B
:1011600080E007C0823851F08339D1F783E501C0B0
:1011700082E00E941D04C5C081E0FBCF82E1F9CF6F
:1011800085E090E00E944D04CFCF80914303909181
:101190004403892B49F660913E038AE00E94B6021F
:1011A00061E08AE00E944203CFB7F89480913D034A
:1011B000811125C0F2018491F3019491E82FF0E0B0
:1011C000EE0FFF1FE451FE4FA591B4918C9198232F
:1011D00021F461E085E30E94B60261E085E30E94AC
:1011E00042038CB580618CBD8CB580648CBD61E0A0
:1011F00084E30E94420361E083E30E944203809102
:101200003D038F5F80933D03CFBF80913C038823D4
:1012100051F08FB7F89490913C03913021F49DB335
:101220009DB39DBB8FBF83E58CBD1DBC60E084E397
:101230000E94B60264E170E080E090E00E949803B2
:10124000C0913E0361E06C278AE00E94B602C501AE
:101250000197F1F76C2F8AE00E94B60262E370E01A
:1012600080E090E00E94980320E040E063E58CEA93
:101270000E946A04909244038092430355CF0E94D7
:1012800012040E94120450CFC6010E94B2045FCF24
:10129000853409F08EC080913602909137028C1708
:1012A0009D0790F000913F0310914003000F111F24
:1012B000C132D105F0F060E270E0C8010E947E0406
:1012C000005E1F4FA097F4CF80914103909142039D
:1012D00001969093420380934103C1E10E9412045E
:1012E000803269F484E10E9460028C2F0E946002C7
:1012F00008C0BE01C8010E947E04C0E1EFCF0E9479
:10130000EA030E948502C2CC0E941204082F0E94A8
:101310001204F82E0E941204D82F0E941204803268
:1013200019F00E94EA03EDCF10E0102F00270F0DF7
:10133000111D84E10E946002D63419F5F12CE12CD4
:10134000E016F1060CF003CFC0913F03D0914003AB
:1013500020E04C2F6D2F80E20E946A040E94600200
:1013600020E04C2F6D2F88E20E946A040E946002E8
:101370002196D0934003C0933F0322E0E20EF11C7C
:10138000DFCFD534B1F4C0913F03D0914003CC0FEF
:10139000DD1F0C0F1D1F0C171D0709F4D8CE2FEFF2
:1013A0004C2F6D2F80EA0E946A040E9460022196F1
:1013B000F2CF81E19BCF84E090E00E944D04209128
:1013C0003F0240913E0260913D0280913C020E94AA
:1013D0006A04CFCE10924203109241039FB7F89453
:1013E00080913D03882319F0815080933D038091C3
:1013F0003D03811105C08CB58F7B8CBD10923C03E1
:101400009FBF60E083E30E94420360E084E30E94A8
:10141000420360913E0381E068278AE00E94B602A1
:1014200060E08AE00E94420310924403109243035A
:101430007BCE0E941204803209F09DCC84E10E9490
:10144000600220E040E060E080E30E946A040E94C5
:10145000600220E041E060E080E30E946A040E94B4
:10146000600220E042E060E080E30E946A040E94A3
:1014700060026DCE8091410390914203019690935A
:101480004203809341030E941204803209F07CCC15
:1014900082E12CCFE5E4F3E01382128288EE93E040
:1014A000A0E0B0E084839583A683B78386E092E0D2
:1014B0009183808385EC90E09587848784EC90E02D
:1014C0009787868780EC90E0918B808B81EC90E011
:1014D000938B828B82EC90E0958B848B86EC90E0F2
:1014E000978B868B118E128E138E148E0895EE0FAD
:1014F000FF1F881F8BBF0790F691E02D1994F89479
:02150000FFCF1B
:1015020008800000000013027D01AA016502DB01D0
:0C151200B901CD01415652204953500050
:00000001FF
