:100000000C94490D0C947A0D0C947A0D0C947A0D85
:100010000C947A0D0C947A0D0C947A0D0C947A0D44
:100020000C947A0D0C947A0D0C947A0D0C947A0D34
:100030000C947A0D0C947A0D0C947A0D0C947A0D24
:100040000C947A0D0C946B6B0C947A0D0C947A0DC5
:100050000C947A0D0C947A0D0C9472640C94AE612D
:100060000C947A0D0C94B56B0C94AB6B0C947A0DCC
:100070000C947A0D0C947A0D0C947A0D0C947A0DE4
:100080000C947A0D0C947A0D0C947A0D0C947A0DD4
:100090000C947A0D0C947A0D0C947A0D0C94F861F2
:1000A0000C947A0D0C947A0D0C947A0D0C947A0DB4
:1000B0000C947A0D0C947A0D0C947A0D0C947A0DA4
:1000C0000C947A0D0C947A0D0C947A0D0C947A0D94
:1000D0000C947A0D0C947A0D0C947A0D0C947A0D84
:1000E0000C947A0D084AD73B3BCE016E84BCBFFD11
:1000F000C12F3D6C74319ABD56833DDA3D00C77FF8
:1001000011BED9E4BB4C3E916BAAAABE0000008090
:100110003F05A84CCDB2D44EB93836A9020C50B91F
:10012000918688083CA6AAAA2ABE000000803F004B
:100130000C94A00F0C94510E0C94BE0F0C944C1305
:100140000C9474630C94350E0C94550E0C94390E6B
:100150000C94F50D0C945B640C942A130C943913D5
:100160000C942E0F0C941A0E0C94646C0C94436433
:100170000C943B0F0C94590F0C945F640C94516CCD
:100180000C945C6C0C94606C0C9430640C94376C24
:100190000C94870F0C94706C0C9429130C94730FAF
:1001A0000C9433730C94B40F0C942F0E0C945F0EBC
:1001B0000C944D0E0C94200E0C944F0F0C94586C14
:1001C0000C94466C0C9448640C94686C0C947D0FF1
:1001D0000C94960F0C9464630C94430E0C943F0E95
:1001E0000C947D0D0C94470E0C94450F0C945A0EF4
:1001F0000C9424640C9479130C94690F0C94C80F1C
:100200000C94A8130C94FC6B0C945B0E0C94B86DBE
:100210000C94240E0C94AA0F0C94610F0C94280ECD
:100220000C94360F0C947C0D0C942C0E4E414E49C0
:100230004E495459494E46CDCCCC3D0AD7233C17A4
:10024000B7D13877CC2B329595E6241FB14F0A00F1
:100250000020410000C84200401C4620BCBE4CCAE1
:100260001B0E5AAEC59D7400407A10F35A00A0725E
:100270004E18090010A5D4E80000E87648170000E1
:10028000E40B54020000CA9A3B000000E1F50500AF
:100290000080969800000040420F000000A08601F8
:1002A000000000102700000000E8030000000064C8
:1002B00000000000000A0000000000010000000033
:1002C000002C76D888DC674F0823DFC1DFAE59E108
:1002D000B1B796E5E3E453C63AE651997696E8E677
:1002E000C28426EB898C9B62ED407C6FFCEFBC9C4A
:1002F0009F40F2BAA56FA5F490055A2AF75C936B5C
:100300006CF9676DC11BFCE0E40D47FEF520E6B516
:1003100000D0ED902E0300943577050080841E08F0
:100320000000204E0A000000C80C333333330F980E
:100330006E12831141EF8D2114893BE65516CFFED5
:10034000E6DB18D1844B381BF77C1D901DA4BBE461
:1003500024203284725E228100C9F124ECA1E53DA3
:1003600027434F4D4D554E49434154494F4E00444C
:10037000525952554E004552524F525300494E4623
:100380004F004543484F00627573793A207061759C
:1003900073656420666F7220696E7075740A0062FE
:1003A0007573793A2070617573656420666F722089
:1003B000757365720A00627573793A2070726F63A3
:1003C000657373696E670A002121204B494C4C20EC
:1003D00063617573656420627920746F6F206D7539
:1003E000636820696E6163746976652074696D6500
:1003F000202D2063757272656E7420636F6D6D6160
:100400006E643A20005072696E7465722073746F66
:10041000707065642064756520746F206572726FFA
:1004200072732E2046697820746865206572726F39
:100430007220616E6420757365204D3939392074DE
:100440006F20726573746172742E202854656D700C
:100450006572617475726520697320726573657465
:100460002E20536574206974206166746572207251
:10047000657374617274696E67290A004E6F204358
:100480006865636B73756D2077697468206C696E3D
:1004900065206E756D6265722C204C617374204C02
:1004A000696E653A2000636865636B73756D206DD6
:1004B00069736D617463682C204C617374204C699E
:1004C0006E653A20004C696E65204E756D626572EE
:1004D000206973206E6F74204C617374204C696EB8
:1004E00065204E756D6265722B312C204C617374E2
:1004F000204C696E653A20004D31313000656368EB
:100500006F3A004572726F723A0020496E76616CE4
:100510006964206578747275646572200044696648
:10052000663A200046726F6D5374703A00537465DA
:10053000707065723A005261773A20202020000ADC
:100540004C6F676963616C3A00436F756E74204548
:100550003A004361703A0047322F473320626164AA
:1005600020706172616D65746572730A0050726506
:10057000737375726520736574746C656420746F31
:100580006F206C6F772C206D757374206265206707
:10059000726561746572207468616E2000526573C3
:1005A000656E643A200023646566696E6520444583
:1005B0004641554C545F004B6420004B6920004B72
:1005C000702000504944204175746F74756E652029
:1005D00066696E697368656421205075742074685B
:1005E00065206C617374204B702C204B6920616E08
:1005F00064204B6420636F6E7374616E7473206645
:10060000726F6D2062656C6F7720696E746F204326
:100610006F6E66696775726174696F6E2E680A0025
:10062000504944204175746F74756E652066616928
:100630006C6564212074696D656F75740A0050499A
:1006400044204175746F74756E65206661696C65D0
:1006500064212054656D70657261747572652074D3
:100660006F6F20686967680A00204B643A20002099
:100670004B693A2000204B703A20000A20436C61FD
:100680007373696320504944200A000A204E6F208A
:100690006F76657273686F6F740A002054753A2024
:1006A00000204B753A2000206D61783A2000206DC3
:1006B000696E3A200020643A200020626961733A32
:1006C0002000504944204175746F74756E65207325
:1006D000746172740A00504944204175746F7475D6
:1006E0006E65206661696C656421204261642065E5
:1006F00078747275646572206E756D6265720A0039
:1007000048617264636F6465642044656661756CFA
:10071000742053657474696E6773204C6F616465EF
:10072000640A003B200020490020204D3330342053
:10073000500020204D333031205000504944207368
:10074000657474696E67733A0020204D323036202C
:100750005800486F6D65206F66667365743A0020B7
:100760004A0020204D323035204200416476616ECF
:100770006365643A20423C6D696E5F7365676D65C1
:100780006E745F74696D655F75733E20533C6D696F
:100790006E5F66656564726174653E20543C6D6988
:1007A0006E5F74726176656C5F66656564726174B4
:1007B000653E204A3C6A756E635F6465763E002044
:1007C000204D323034205000416363656C657261A6
:1007D00074696F6E2028756E6974732F7332293AAD
:1007E00020503C7072696E745F616363656C3E207B
:1007F000523C726574726163745F616363656C3EE1
:1008000020543C74726176656C5F616363656C3E15
:100810000020204D3230312058004D6178696D75CF
:100820006D20416363656C65726174696F6E202829
:10083000756E6974732F7332293A0020204D32305F
:10084000332058004D6178696D756D20666565646B
:1008500072617465732028756E6974732F73293AF9
:100860000053746570732070657220756E69743AF8
:100870000020204D3230302044300A0020204D32FC
:1008800030302044002044697361626C65640A0062
:1008900046696C616D656E742073657474696E670A
:1008A000733A0020286D6D29002020473231202026
:1008B00020203B20556E69747320696E206D6D0099
:1008C0006F70656E00545249474745524544007A5F
:1008D0005F6D617800795F6D696E00785F6D61783A
:1008E000005265706F7274696E6720656E64737410
:1008F0006F70207374617475730A005761726E694A
:100900006E673A20486F6D696E672042756D702082
:1009100044697669736F72203C20310A0020436F6E
:10092000756E7420583A00626564002C20737973E8
:1009300074656D2073746F70706564212048656103
:100940007465725F49443A20005072696E74657232
:100950002068616C7465642E206B696C6C2829209A
:1009600063616C6C6564210A004572723A204D41E6
:100970005854454D50004D415854454D50207472C7
:1009800069676765726564004572723A204D494E29
:1009900054454D50004D494E54454D502074726998
:1009A00067676572656400202F002042403A00208E
:1009B000403A002020506C616E6E6572427566662A
:1009C000657242797465733A20002046726565202D
:1009D0004D656D6F72793A2000436F6D70696C657B
:1009E000643A2041756720313020323032340A00B9
:1009F000204C61737420557064617465643A2032D0
:100A00003032302D30332D3234207C2041757468E3
:100A10006F723A20286E6F6E652C20646566617572
:100A20006C7420636F6E666967290A00322E302E5F
:100A3000352E320A004D61726C696E0020536F666C
:100A400074776172652052657365740A002057617E
:100A5000746368646F672052657365740A0020428E
:100A6000726F776E206F75742052657365740A001B
:100A70002045787465726E616C2052657365740AE6
:100A800000506F77657255700A00656E6473746FFD
:100A90007073206869743A20006F6B0045455052AE
:100AA0004F4D2064697361626C65640A00546F6F16
:100AB000206661722066726F6D2072656665726570
:100AC0006E636520706F696E740A002064617461E2
:100AD0003A002062797465733A003A2066726F6D4D
:100AE0003A006932632D7265706C7900426164204E
:100AF00069326320726571756573740A00426164BE
:100B00002049324320616464726573732028382D54
:100B1000313237290A0020643A0020693A002070F7
:100B20003A00496E76616C69642065787472756408
:100B300065720A0020466C6F773A200046523A00F0
:100B400020204D61783A200020204D696E3A200027
:100B5000536F667420656E6473746F70733A20000F
:100B60003F4A206F7574206F662072616E67652042
:100B700028302E303120746F20302E33290A002087
:100B80005400205200416363656C65726174696F43
:100B90006E3A2050002F2F20004348414D424552CD
:100BA0005F54454D5045524154555245004D4F54A8
:100BB000494F4E5F4D4F44455300544845524D41B7
:100BC0004C5F50524F54454354494F4E0041555489
:100BD0004F5245504F52545F53445F535441545504
:100BE000530050524F4D50545F535550504F525434
:100BF00000454D455247454E43595F50415253457C
:100C00005200434153455F4C494748545F42524963
:100C10004748544E45535300544F47474C455F4C4B
:100C2000494748545300534F4654574152455F502B
:100C30004F574552004255494C445F504552434539
:100C40004E54004C4556454C494E475F4441544133
:100C5000005A5F50524F4245004155544F4C455643
:100C6000454C005052494E545F4A4F420050524F3B
:100C70004752455353004155544F5245504F5254DB
:100C80005F54454D5000564F4C554D4554524943C5
:100C900000454550524F4D0042494E4152595F4622
:100CA000494C455F5452414E5346455200534552BC
:100CB00049414C5F584F4E5F584F46460046495297
:100CC0004D574152455F4E414D453A4D61726C69F9
:100CD0006E20322E302E352E32202847697448750A
:100CE000622920534F555243455F434F44455F555A
:100CF000524C3A68747470733A2F2F676974687530
:100D0000622E636F6D2F4D61726C696E4669726DF4
:100D1000776172652F4D61726C696E2050524F542D
:100D20004F434F4C5F56455253494F4E3A312E3048
:100D3000204D414348494E455F545950453A33444C
:100D4000205072696E74657220455854525544455E
:100D5000525F434F554E543A3120555549443A63FA
:100D6000656465326132662D343161322D34373439
:100D7000382D396231322D6335356336326633367C
:100D80003766660A0020573A004D31313320530050
:100D90006F66660044454255473A0050726F74656D
:100DA000637465642050696E0A00496E76616C69EF
:100DB000642050696E204D6F64650A0025697920B2
:100DC000256964202569682025696D2025697300DF
:100DD0005072696E742074696D653A200048323A29
:100DE0000054323A004672657175656E63792073FE
:100DF000686F756C6420626520657175616C206F29
:100E000072206C657373207468616E3A00506C6573
:100E100061736520496E736572742074686520661D
:100E200072657175656E63792077616E7465640AA9
:100E3000000950723A200050733A2000506C6561EE
:100E4000736520496E7365727420746865207072D2
:100E50006573737572652077616E7465640A00202E
:100E6000483A00543A00466F7263655B4E5D3A0043
:100E700050726573737572655B7073695D3A005289
:100E80006177446174613A004D6173735B67725DB1
:100E90003A0020746F6F206C6F6E672065787472F3
:100EA0007573696F6E2070726576656E7465640A1D
:100EB00000486F6D65202573257325732046697280
:100EC000737400220A00556E6B6E6F776E20636F2D
:100ED0006D6D616E643A202200205A3A0020593A22
:100EE00000204500205A00205900204D393220585A
:100EF0000070012C0190012701B0012201C0011DE9
:100F000001F00118011002130130020E0160020904
:100F10000190020401C002FF000003FA004003F543
:100F2000008003F000D003EB002004E6007004E131
:100F300000E004DC004005D700C005D2004006CD2B
:100F400000D006C8008007C3003008BE00F008B912
:100F500000C009B400B00AAF00B00BAA00D00CA5C5
:100F600000000EA000500F9B00C010960050129180
:100F70000000148C00C0158700B0178200B0197DE6
:100F800000D01B7800001E730040206E0090226984
:100F900000F024640040275F0090295A00E02B55A0
:100FA00000102E500020304B0010324600E033413C
:100FB0000090353C001037370070383200A0392DD2
:100FC00000B03A2800A03B2300603C1E00103D19F1
:100FD00000903D1400103E0F00703E0A00C03E0518
:100FE00000003F0000403FFBFF803FF6FFC03FF1A5
:100FF000FF5406102F50114F2C0B0C0A30083507E8
:1010000017FF18FFFF170900010000024300004806
:1010100043000096430000000000000000000000B4
:101020000000009643000096430000A0400000A08E
:10103000400000C8420000C8420000C8430000C889
:1010400044B80B0000B80B00002C01000010270072
:101050000055558542555585425555854102020238
:101060000000A0400000A0400000803F24F4D430E5
:1010700050C38E20C2A24017828B7011127A910D3C
:10108000816CD90AA861E108C75866076151430617
:101090001E4B5D05C145A7041A411104093D980383
:1010A000713931034036DB0265339102D43054028A
:1010B000802E1D02632CEE01752AC501B028A00107
:1010C000102781018F2564012B244B01E02234017C
:1010D000AC211F018D200D01801FFC00841EED003E
:1010E000971DDF00B81CD200E61BC600201BBC0009
:1010F000641AB200B219A8000A19A0006A1899006F
:10110000D117910040178B00B516840031167E0070
:10111000B31579003A157300C7146F0058146A00AC
:10112000EE1366008813630025135E00C7125B0090
:101130006C12570015125400C111510070114F006C
:1011400021114B00D61049008D1047004610440075
:1011500002104200C00F4000800F3E00420F3C00D2
:10116000060F3B00CB0E3800930E37005C0E3500A7
:10117000270E3400F30D3200C10D3100900D300008
:10118000600D2E00320D2D00050D2C00D90C2B000A
:10119000AE0C2900850C29005C0C2700350C2700BB
:1011A0000E0C2600E80B2400C40B2400A00B230027
:1011B0007D0B23005A0B2100390B2100180B200056
:1011C000F80A1F00D90A1E00BB0A1E009D0A1D0056
:1011D000800A1D00630A1C00470A1B002C0A1B0022
:1011E000110A1A00F7091A00DD091900C4091900CB
:1011F000AB091900920917007B0918006309170051
:101200004C09160036091600200916000A091500B7
:10121000F5081500E0081400CC081400B808140004
:10122000A4081400900813007D0812006B08130036
:101230005808120046081200340811002308110053
:101240001208110001081100F0071000E00710005B
:10125000D0071000C0071000B0070F00A107100052
:1012600091070E0083070F0074070F0065070E003B
:1012700057070E0049070E003B070D002E070E0012
:1012800020070D0013070D0006070D00F9060C00DE
:10129000ED060D00E0060C00D4060C00C8060C009C
:1012A000BC060C00B0060C00A4060B0099060C004E
:1012B0008D060B0082060B0077060B006C060B00F8
:1012C00061060A0057060B004C060A0042060A0097
:1012D00038060A002E060A0024060A001A060A002A
:1012E0001006090007060A00FD050900F4050900BB
:1012F000EB050900E2050900D9050900D005090040
:10130000C7050900BE050900B5050800AD050800C0
:10131000A50509009C050800940508008C05080037
:10132000840508007C050800740508006C050700AA
:10133000650508005D050700560508004E05070015
:10134000470507004005080038050700310507007C
:101350002A050700230507001C05060016050700DF
:101360000F0507000805060002050700FB0406003C
:10137000F5040700EE040600E8040600E204070096
:10138000DB040600D5040600CF040600C9040600ED
:10139000C3040600BD040600B7040600B10405003E
:1013A000AC040600A6040600A00405009B04060089
:1013B00095040500900406008A04050085040500D4
:1013C000800406007A040500750405007004050019
:1013D0006B04050066040500610405005C0405005B
:1013E00057040500520405004D040500480405009B
:1013F000430405003E0404003A04050035040500DA
:10140000300404002C040500270404002304050014
:101410001E0404001A04040016040500110404004C
:101420000D04040009040500040404000004040081
:10143000FC030400F8030400F4030400F0030400B8
:10144000EC030400E8030400E4030400E0030400E8
:10145000DC030400D8030400D4030400D003040018
:10146000CC030400C8030300C503030024F404D91B
:10147000201BC40C5C0E9804C4095F02650771014F
:10148000F405F900FB04B30048048700C1036900B8
:101490005803550003034500BE023A0084023100A0
:1014A00053022A002902250004022000E4011C0046
:1014B000C8011900AF01170098011400840113003E
:1014C000710110006101100051010E0043010D0077
:1014D00036010B002B010B0020010B001501090048
:1014E0000C01090003010800FB000800F3000800DC
:1014F000EB000700E4000600DE000600D80006004E
:10150000D2000600CC000500C7000500C20005009F
:10151000BD000400B9000400B5000400B1000400DF
:10152000AD000400A9000400A5000300A200030010
:101530009F0004009B000300980003009500020038
:1015400093000300900003008D0002008B00030055
:10155000880002008600020084000300810002006F
:101560007F0002007D0002007B0002007900020083
:101570007700010076000200740002007200010092
:10158000710002006F0002006D0001006C0002009B
:101590006A000100690002006700010066000100A6
:1015A00065000100640002006200010061000100AA
:1015B000600001005F0002005D0001005C000100AE
:1015C0005B0001005A0001005900010058000100B1
:1015D00057000100560001005500010054000100B1
:1015E00053000000530001005200010051000100AF
:1015F000500001004F0001004E0000004E000100AD
:101600004D0001004C0001004B0000004B000100A8
:101610004A000100490001004800000048000100A4
:1016200047000100460000004600010045000000A0
:101630004500010044000100430000004300010098
:101640004200000042000100410000004100010092
:10165000400001003F0000003F0001003E0000008C
:101660003E0001003D0000003D0001003C00000084
:101670003C0000003C0001003B0000003B0001007A
:101680003A0000003A000100390000003900010072
:10169000380000003800000038000100370000006A
:1016A000370001003600000036000000360001005F
:1016B0003500000035000000350001003400000056
:1016C000340000003400010033000000330000004B
:1016D000330001003200000032000000320001003F
:1016E0003100000031000000310001003000000036
:1016F00030000000300001002F0000002F0000002B
:101700002F0000002F0001002E0000002E0000001E
:101710002E0001002D0000002D0000002D00000013
:101720002D0001002C0000002C0000002C00000007
:101730002C0001002B0000002B0000002B000000FB
:101740002B0001002A0000002A0000002A000000EF
:101750002A000100290000002900000029000000E3
:1017600029000000290001002800000028000000D6
:1017700028000000280000002800010027000000C9
:1017800027000000270000002700000027000100BC
:1017900026000000260000002600000026000000B1
:1017A00026000100250000002500000025000000A3
:1017B0002500000025000000250001002400000095
:1017C0002400000024000000240000002400010088
:1017D000230000002300000023000000230000007D
:1017E000230000002300000023000100220000006D
:1017F0002200000022000000220000002200000061
:101800002200010021000000210000002100000052
:101810002100000021000000210000002100010043
:101820002000000020000000200000002000000038
:101830002000000020000000200000002000010027
:101840001F0000001F0000001F0000001F0000001C
:101850001F0000001F0000001F0001001E0000000C
:101860001E0000001E0000001E00000004370000E3
:101870001E290000511B0000581000001009000034
:10188000CC04000078020000410100001000AA030F
:10189000F0013A019002220130031001D00302014D
:1018A0007004F7001005ED00B005E5005006DD00FE
:1018B000F006D7009007D1003008CC00D008C70050
:1018C0007009C300100ABE00B00ABB00500BB7007D
:1018D000F00BB300900CB000D00DAA00100FA500C3
:1018E0005010A00090119B00D0129600B0149000F0
:1018F00090168B0070188500501A8000301C7B00F9
:10190000B01E750030216F00B023690030266400DE
:1019100010285F00902A5A00702C5500F02E4F00BE
:1019200070314800B0324500F03341007036390064
:10193000103737005038330090392D00D03A270047
:10194000B03C1C00503D1700F03D1100903E0900D6
:10195000D03FE5FF00002100240027002A002D00D1
:101960003000330001010000040107010A010000FA
:1019700020002300260029002C002F003200000147
:10198000000003010601090100000A0B02090C0D09
:101990000E08070304010000000000000000000022
:1019A0000000000000000000000000000000000037
:1019B00000000000121110000000000000000000F4
:1019C000000000000000000000000000000001FF17
:1019D0000100000243000000000000964382037DE6
:1019E0000376036F03610300002200250028002B0B
:1019F000002E003100340002010000050108010B37
:101A00000105050505070508080808020202020A83
:101A10000A08080404040401010101010101010391
:101A200003030303030303040707070C0C0C0C0C4C
:101A30000C0C0C0202020206060606060606060B3F
:101A40000B0B0B0B0B0B0B010210202008081020B6
:101A5000401020408002010201080402010102043A
:101A600008102040808040201008040201800402F9
:101A70000180402010080402010804020101020450
:101A80000810204080010204081020408000B86D3A
:101A9000337311241FBECFEFD1E2DEBFCDBF00E014
:101AA0000CBF12E0A0E0B2E0EEEFF4E001E00BBF0B
:101AB00002C007900D92AE3DB107D9F72DE0AEED13
:101AC000B2E001C01D92A534B207E1F71DE0C8E401
:101AD000DDE000E006C021970109802FFE010E9491
:101AE0003A7FC734D10780E00807A9F70E94056F45
:101AF0000C946D820C94000008950895CF92DF92AB
:101B0000EF92FF921F93CF93DF93EC018E818C3085
:101B100009F44DC038F48B30E1F060E070E080EC07
:101B20009FE73DC085518230C0F71A81612F70E078
:101B3000762F662766277F778B81682B90E080E081
:101B40000E948E782DEC3CEC4CEC5DE30E94EF782B
:101B500048C06A8170E090E080E00E948E786B015E
:101B60007C01CB81C7FF0AC0AC019B0160E070E043
:101B700080E89FEB0E94427F6B017C01CF706C2F4D
:101B800070E090E080E00E9490782DEC3CEC4CEC12
:101B90005DE30E94EF78A70196010E94437FDF91E9
:101BA000CF911F91FF90EF90DF90CF9008951A8111
:101BB000612F70E090E080E00E948E786B017C01E4
:101BC0006B816F7070E090E080E00E9490782DEC67
:101BD0003CEC4CEC5DE30E94EF78A70196010E947B
:101BE000437F17FFDCCF9058DACF8091A30C909100
:101BF000A40C891B990B08958150823108F05AC0BA
:101C0000E82FF0E08827E85FF14F8F4F0C943A7F80
:101C1000280E2C0E1A0E200E240E5A0E2F0E350EE4
:101C2000390E3F0E430E470E4D0E510E5A0E550EF5
:101C30005B0E5F0E809180008F7780938000089507
:101C4000809180008F7DF9CF80918000877FF5CFD4
:101C500084B58F7784BD089584B58F7DFBCF809147
:101C6000B0008F778093B00008958091B0008F7D91
:101C7000F9CF809190008F778093900008958091A4
:101C800090008F7DF9CF80919000877FF5CF809174
:101C9000A0008F778093A00008958091A0008F7D91
:101CA000F9CF8091A000877FF5CF809120018F77B9
:101CB000809320010895809120018F7DF9CF80913C
:101CC0002001877FF5CFCF93DF93282F30E0F901F4
:101CD000E857F64E8491F901E95BF54ED491F9018C
:101CE000EF5FF54EC491CC23A1F081110E94FC0D51
:101CF000EC2FF0E0EE0FFF1FE259F64EA591B491E4
:101D0000EC91ED2381E090E009F480E0DF91CF9148
:101D1000089580E090E0FACF1F93CF93DF93282FB0
:101D200030E0F901E857F64E8491F901E95BF54E90
:101D3000D491F901EF5FF54EC491CC23A9F0162F91
:101D400081110E94FC0DEC2FF0E0EE0FFF1FE95116
:101D5000F64EA591B4918FB7F894EC91111108C08B
:101D6000D095DE23DC938FBFDF91CF911F91089533
:101D7000DE2BF8CFCF93DF9390E0FC01E95BF54ECB
:101D800024918F5F954EFC0184918823C9F090E0E7
:101D9000880F991FFC01EC5AF64EA591B491FC01F5
:101DA000E951F64EC591D49161110DC09FB7F894D9
:101DB0008C91209582238C938881282328839FBF30
:101DC000DF91CF910895623051F49FB7F8943C9120
:101DD000822F809583238C93E8812E2BEFCF8FB7B2
:101DE000F894EC912E2B2C938FBFEACF1F93CF93B7
:101DF000DF93182FEB0161E00E94BA0E209739F4AF
:101E000060E0812FDF91CF911F910C948C0ECF3F1A
:101E1000D10511F461E0F5CFE12FF0E0E857F64E7F
:101E2000E491E150E23108F0B3C0F0E08827E45ECD
:101E3000F04F8F4F0C943A7F2E0F360F3B0F450F0C
:101E40004F0FC80F590F610F690F730F7D0F870F69
:101E5000960FA00FC80FAA0FB40FBE0F84B58068ED
:101E600084BDC7BDDF91CF911F91089584B5806275
:101E700084BDC8BDF7CF80918000806880938000CA
:101E8000D0938900C0938800EDCF8091800080625C
:101E900080938000D0938B00C0938A00E3CF809121
:101EA0008000886080938000D0938D00C0938C0068
:101EB000D9CF8091B00080688093B000C093B30008
:101EC000D1CF8091B00080628093B000C093B40005
:101ED000C9CF80919000806880939000D093990042
:101EE000C0939800BFCF8091900080628093900053
:101EF000D0939B00C0939A00B5CF809190008860EA
:101F000080939000D0939D00C0939C00ABCF8091B4
:101F1000A00080688093A0008091A0008F7B8093B8
:101F2000A000D093A900C093A8009CCF8091A000EE
:101F300080628093A000D093AB00C093AA0092CFA0
:101F40008091A00088608093A000D093AD00C093E2
:101F5000AC0088CF80912001806880932001D093CD
:101F60002901C09328017ECF809120018062809357
:101F70002001D0932B01C0932A0174CF80912001BE
:101F8000886080932001D0932D01C0932C016ACFEB
:101F9000C038D1050CF03ECF33CFCF93DF93C1EBE8
:101FA000DCE01A8260E088810E948C0E70E060E0C4
:101FB0008881DF91CF910C94F60E8230910538F034
:101FC000880F991F880F991F05970197F1F70895BA
:101FD0003FB7F8948091740690917506A0917606AB
:101FE000B091770626B5A89B05C02F3F19F0019642
:101FF000A11DB11D3FBFBA2FA92F982F8827BC0163
:10200000CD01620F711D811D911D42E0660F771F8A
:10201000881F991F4A95D1F708958F929F92AF928A
:10202000BF92CF92DF92EF92FF926B017C010E94F0
:10203000E80F4B015C01C114D104E104F104B9F0D3
:102040000E94E80F681979098A099B09683E734064
:102050008105910580F321E0C21AD108E108F10859
:1020600088EE880E83E0981EA11CB11CE4CFFF907F
:10207000EF90DF90CF90BF90AF909F908F9008959A
:102080002FB7F89460917006709171068091720676
:10209000909173062FBF0895CF93DF93C1EBDCE0DF
:1020A00081E08A8361E088810E948C0E6FEF70E08E
:1020B00088810E94F60E0E944010AB01BC018F8106
:1020C0009885092E000CAA0BBB0B840F951FA61F29
:1020D000B71F8B839C83AD83BE83DF91CF9108951F
:1020E000CF92DF92EF92FF92CF93DF93DC011796AE
:1020F000CC911797D0E06111DC2F18962C9118978E
:1021000030E0220F331F2259364E50E040E0F901F3
:1021100085919491FC01F080BA0190E080E0EF2D70
:10212000EC23ED1310C04F5F5F4F1D96CD90DD90F7
:10213000ED90FC9050976C157D058E059F0538F34A
:102140006FEF7FEFCB01DF91CF91FF90EF90DF90AA
:10215000CF9008958F929F92AF92BF92CF92DF92CD
:10216000EF92FF920F931F93CF93DF93CDB7DEB71C
:10217000C054D1400FB6F894DEBF0FBECDBF8C0166
:10218000F62E0E944010F11029C0F801C184D284BB
:10219000E384F4849B01AC012C193D094E095F09CD
:1021A00069017A0130EDC31637E0D306E104F1048A
:1021B000A8F48189C05CDE4F0FB6F894DEBF0FBE75
:1021C000CDBFDF91CF911F910F91FF90EF90DF90E6
:1021D000CF90BF90AF909F908F900895F801618746
:1021E00072878387948714821382128211821082ED
:1021F00062E085810E94BA0E61E070E080E090E0CC
:102200000E940D1061E0F80185810E94BA0E60E025
:10221000F80185810E948C0EF801868185518230FB
:10222000E8F48BE291E10197F1F762E0F801858132
:102230000E94BA0EF801828990E00E94DD0FF894A6
:1022400060E0C8010E9470106F3F7F4F8F4F9F4F1B
:1022500061F4F801118A789480E0ACCF64E170E019
:1022600080E090E00E940D10E0CF61E0C8010E9484
:1022700070106F3F7F4F8F4F9F4F59F39E012F5F1D
:102280003F4F79015E013FEBA31A3EEFB30A6701AE
:1022900060E0C8010E947010F60160837183828340
:1022A000938361E0C8010E947010F6016483758316
:1022B00086839783F8E0CF0ED11CCA14DB0441F764
:1022C000789430E020E0F70180809180A280B38094
:1022D0004481558166817781FFEF8F169F06AF0697
:1022E000BF0631F04F3F8FEF58076807780719F4A2
:1022F000F801118AB1CFF90183E0F595E7958A9548
:10230000E1F7E00FF11F8081880F84169506A6067D
:10231000B706F0F080832F5F3F4FF8E0EF0EF11C1F
:102320002832310581F6F801448120818181280F0E
:102330003327331F8281280F311D8381820F932F12
:10234000911D99274817190699F681E0818B32CFA4
:102350008160E0CFCF92DF92EF92FF92CF93DF9335
:10236000EC0161E00E94AA10882341F08E818B303D
:1023700028F08D3040F08551823030F160E070E01F
:1023800080EC9FE71AC0698170E090E080E00E94D5
:1023900090782DEC3CEC4CEC5DE30E94EF786B0107
:1023A0007C01688170E090E080E00E9490789B0161
:1023B000AC01C701B6010E94437FDF91CF91FF902E
:1023C000EF90DF90CF900895688179817627672715
:1023D000762790E080E00E948E782DEC3CEC4CEC6F
:1023E0005DE30E94EF78E9CF2091C404260F3327E4
:1023F000331F21323105ECF42091630CFC0190E095
:1024000080E0243069F082E00895A091C404219115
:10241000AC014C555B4FA40FB52FB11D2C93019609
:10242000861798F38091C404680F6093C40480E019
:10243000089581E008951092630C81E08093420C2E
:1024400010923D0C61E084E10E948C0E61E085E118
:102450000E948C0EE9EBF0E080818E7F808380818A
:102460008D7F808388E48093B80085E48093BC00EE
:102470000895CF93DF9391E09093A3048823B9F05C
:10248000C091B800D091BA008091BC008A7B809343
:10249000BC0060E084E10E948C0E60E085E10E9457
:1024A0008C0E0E941B12D093BA00C093B800DF912B
:1024B000CF910895CF92DF92EF92FF920F931F93E7
:1024C000CF93DF93D82FC62F613208F098C00E94B7
:1024D000E80F6B017C018091630C81116BC081E07E
:1024E0008093630C8093420C9FEF9093410C109269
:1024F000400C9C0F90933F0C80933E0C80913E0CBF
:10250000DD0FD82BD0933E0C80913D0C813009F02B
:1025100078C010923D0C0E94E80F6B017C01809105
:102520003E0C8093BB008091650C9091660CA0914D
:10253000670CB091680C892B8A2B8B2BA1F00E9421
:10254000E80F0091650C1091660C2091670C30919A
:10255000680C6C197D098E099F0906171707280753
:10256000390708F448C08091BC0083FDD8CF85ECC2
:102570008093BC000E94E80F6B017C018091630C8A
:10258000813009F440C08091400C8C1710F4C09148
:10259000400CEDE1FCE0A3E4BCE080E08C1355C00E
:1025A0008C2FDF91CF911F910F91FF90EF90DF90D3
:1025B000CF9008958091650C9091660CA091670C66
:1025C000B091680C892B8A2B8B2B09F484CF0E9445
:1025D000E80F0091650C1091660C2091670C30910A
:1025E000680C6C197D098E099F09061717072807C3
:1025F000390708F070CF8091640C0E943912C0E056
:10260000CFCF85EEB5CF8091650C9091660CA091EF
:10261000670CB091680C892B8A2B8B2B09F4AECFF9
:102620000E94E80F0091650C1091660C2091670CD8
:102630003091680C6C197D098E099F0906171707E0
:102640002807390708F09ACFD6CF91919D938F5FD5
:10265000A5CF0895E091A40C8091A30CE81730F465
:10266000F0E0ED5BF34F808190E008958FEF9FEFF6
:1026700008959091A40C8091A30C2FEF3FEF981731
:1026800048F4E92FF0E0ED5BF34F208130E09F5FED
:102690009093A40CC9010895CF92DF92EF92FF921C
:1026A0000F931F93CF93DF937C01CB018A0120917D
:1026B0009A06222389F0EB016B01C40ED51ECC15BE
:1026C000DD0569F06991D701ED91FC910190F081F0
:1026D000E02DC7011995F3CF642F0E94F411C801B2
:1026E000DF91CF911F910F91FF90EF90DF90CF90EE
:1026F0000895CF93DF931F92CDB7DEB76983209102
:102700009A062223F9F02091A10C203258F021E002
:1027100030E0FC013383228390E080E00F90DF9172
:10272000CF9108958091A20CE82FF0E0E758F94F7F
:10273000998190838F5F8093A20C8093A10C81E09C
:1027400090E0ECCF61E0CE0101960E94F411F7CF4A
:1027500090E080E008958091DE069091DF06863556
:10276000910554F481E02091C7063091C8062630C7
:1027700031051CF480E0089581E0089580913102D4
:10278000909132020F971816190614F490E080E029
:102790009093DF068093DE061092C8061092C7065B
:1027A0001092E00612981092C906119808958F921F
:1027B0009F92AF92BF92CF92DF92EF92FF920F93D0
:1027C0001F93CF93DF93B2E3A0E06A2F70E0AB01D9
:1027D0004B0F511D55954795411119C0EEE8F8E191
:1027E00065917491072E000C880B990B0E949078CC
:1027F000DF91CF911F910F91FF90EF90DF90CF90DD
:10280000BF90AF909F908F900895B42FE0CFA41702
:1028100011F0B41303C0E2E5F9E1E2CF9A012150CF
:102820003109220F331F220F331FF901E457F74EEE
:10283000E590F490F901E057F74EC591D4918E15CB
:102840009F051CF3A42FC817D9070CF4BECFF901BC
:10285000E257F74E05911491F901EE56F74EC590E7
:10286000D490BC016E197F09072E000C880B990BC0
:102870000E9490784B015C01B601601B710B072E22
:10288000000C880B990B0E9490789B01AC01C5014C
:10289000B4010E94EF784B015C01BE016E197F0903
:1028A000072E000C880B990B0E9490789B01AC01BD
:1028B000C501B4010E943D806B017C01B801110F7C
:1028C000880B990B0E9490789B01AC01C701B6015F
:1028D0000E94437F8DCFBC0120914C0430914D0468
:1028E00040914C0450914D042417350731F481E098
:1028F0002617370709F080E008959A01F1CF00000C
:10290000000000008091E90480FF30C08091020146
:1029100080958870809300018FEF809302048091EE
:10292000E904869580FF29C080910201809581701D
:10293000809300018FEF809303048091E9048695D2
:10294000869580FF21C02E988FEF8093040480919C
:10295000E90486958695869580FF19C0289A8FEFA1
:10296000809305040000000000000895809102019A
:1029700088708093000181E0D0CF80910201817046
:102980008093000181E0D7CF2E9A81E0DECF289896
:1029900081E0E6CFAF92BF92CF92DF92EF92FF92AB
:1029A0000F931F93CF93DF93CFECDBE007E417E0A7
:1029B0008FEDA82E8BE0B82EC12CD12C7601C394BC
:1029C00069917991899199910E948E7828893989A4
:1029D0004A895B890E94EF780E94B680F801619372
:1029E0007193819391938F01C616D706E806F90675
:1029F00010F46B017C01AC16BD0611F76FEF7FEF91
:102A0000CB01A70196010E94B77E20935707309310
:102A100058074093590750935A07DF91CF911F9160
:102A20000F91FF90EF90DF90CF90BF90AF900895FF
:102A3000CF92DF92EF92FF928091B106882309F442
:102A400057C0C090AD06D090AE06E090AF06F090B3
:102A5000B00620E030E0A901C701B6010E948978E4
:102A6000882309F445C020E030E040E05FE3C7017F
:102A7000B6010E94EF789B01AC010E94EF782BED2C
:102A80003FE049E450E40E94EF789B01AC0160E034
:102A900070E080E89FE30E943D806B017C01C09262
:102AA0009B06D0929C06E0929D06F0929E06609155
:102AB0000A0270910B02072E000C880B990B0E94E2
:102AC00090782AE037ED43E25CE30E94EF78A701BB
:102AD00096010E94EF7860934D0270934E028093AE
:102AE0004F0290935002FF90EF90DF90CF900895A7
:102AF000C12CD12C80E8E82E8FE3F82ED0CF809126
:102B00006C0C90916D0C891B8F7019F490E080E033
:102B100008959091690C992351F0833030F48FEF30
:102B2000890F19F08093690CF1CF1092690C809194
:102B30006D0C26E4829FC00111248459984FFC013A
:102B4000208120FDE3CF20916D0C2F5F2F7020930B
:102B50006A0C30916D0C20916B0C321304C02091E3
:102B60006A0C20936B0C089590916F0081E091FDA9
:102B700002C080E0089590916F009D7F90936F0058
:102B80000895EFE6F0E08081826080830895CF931E
:102B9000C82F0E94B41594E0C99F90011124F90137
:102BA000E15BFB4F255A3B4FD9014D915D916D91F2
:102BB0007C91408351836283738391E090934E04B0
:102BC000882319F0CF910C94C115CF910895CF921D
:102BD000DF92EF92FF92CF93DF93C82F0E94B4153C
:102BE00094E0C99FE0011124FE01E55AFB4FC0802B
:102BF000D180E280F38081110E94C115C45AD84F60
:102C0000C701B6010E949078288139814A815B8191
:102C10000E94EF78DF91CF91FF90EF90DF90CF90FF
:102C20000895CF92DF92EF92FF92CF93DF93C82F58
:102C30000E94B41594E0C99FE0011124FE01E15BFC
:102C4000FB4FC080D180E280F38081110E94C115CA
:102C5000C45AD84FC701B6010E94907828813981A3
:102C60004A815B810E94EF78DF91CF91FF90EF90D6
:102C7000DF90CF900895CF93DF9324E0829FC0012F
:102C80001124EC01C95DD84FFC01EF55F94F875075
:102C9000994FDC012D913D914D915C916081718145
:102CA000828193810E94437F688379838A839B8397
:102CB000DF91CF910895CF92DF92EF92FF921F9311
:102CC000CF93DF9320910C02222309F48DC0EC01F5
:102CD0001091240710FF2CC0C0900D02D0900E025E
:102CE000E0900F02F0901002288139814A815B81C7
:102CF000C701B6010E94A381181624F4C882D982A4
:102D0000EA82FB82C0901902D0901A02E0901B0266
:102D1000F0901C02288139814A815B81C701B6018C
:102D20000E94897887FF04C0C882D982EA82FB8228
:102D300011FF2CC0C0901102D0901202E09013023B
:102D4000F09014022C813D814E815F81C701B60154
:102D50000E94A381181624F4CC82DD82EE82FF82C9
:102D6000C0901D02D0901E02E0901F02F090200241
:102D70002C813D814E815F81C701B6010E94897817
:102D800087FF04C0CC82DD82EE82FF8212FF2CC05E
:102D9000C0901502D0901602E0901702F090180231
:102DA000288539854A855B85C701B6010E94A381C4
:102DB000181624F4C886D986EA86FB86C0902102BC
:102DC000D0902202E0902302F090240228853985D9
:102DD0004A855B85C701B6010E94897887FF04C0D8
:102DE000C886D986EA86FB86DF91CF911F91FF9036
:102DF000EF90DF90CF900895CF92DF92EF92FF9205
:102E0000CF93DF9381E00E94E7156B017C0180E0A6
:102E10000E94E715C6EFD3E0688379838A839B839A
:102E2000CC82DD82EE82FF8282E00E94E715688715
:102E300079878A879B87DF91CF91FF90EF90DF9012
:102E4000CF900895CF92DF92EF92FF929091090177
:102E50008091F50392FD64C080618093F5039091A9
:102E600009018091F50395FD5DC082608093F503B3
:102E7000909109018091F50391FF56C08064809381
:102E8000F503C0903F04C0FE10C08091E90480FDAE
:102E90000CC08091F50384FF08C080916E068061AC
:102EA00080936E0680E00E94C715D12CF12CE12C96
:102EB000D701C601B695A7959795879580FF11C054
:102EC0008091E904869580FF0CC08091F50381FF15
:102ED00008C080916E06826080936E0681E00E9439
:102EE000C71582E0F694E794D794C7948A95D1F7F2
:102EF000C0FE1CC08091E9048695869580FD16C0B1
:102F00008091F50386FF12C080916E0680648093E5
:102F10006E0682E0FF90EF90DF90CF900C94C71583
:102F20008F7E9BCF8D7FA2CF8F7BA9CFFF90EF901D
:102F3000DF90CF9008950F931F938091F106813019
:102F400019F50E9440100091F1031091F2032091B5
:102F5000F3033091F403601B710B820B930B28EE8B
:102F600033E040E050E00E94B77E6091ED03709145
:102F7000EE038091EF039091F003620F731F841FA3
:102F8000951F1F910F9108956091ED067091EE06C7
:102F90008091EF069091F006D6CF1092F106109234
:102FA000F1031092F2031092F3031092F4031092C3
:102FB000ED061092EE061092EF061092F0061092B7
:102FC000ED031092EE031092EF031092F0030895B8
:102FD0008091F1068130F1F08230C9F40E949B1794
:102FE0006093ED037093EE038093EF039093F003EF
:102FF00081E08093F1060E9440106093F10370938A
:10300000F2038093F3039093F40381E008950E9408
:10301000CD17EECF80E008958091F1068150823087
:1030200070F41092F1060E9440106093ED067093C8
:10303000EE068093EF069093F00681E0089580E01D
:103040000895282F90911F07833021F495FD0FC01C
:1030500094FD0FC0892F90E0B0E0A0E004C0B695C9
:10306000A795979587952A95D2F78170089581E065
:10307000089580E008952FEB280F2A3108F042C010
:10308000E22FF0E08091F2069091F306A091F40611
:10309000B091F50604C0B695A795979587952A95A2
:1030A000D2F780FD02C081700895EF5AFC4FE08195
:1030B000EE2329F18091250790912607E80FF92F3B
:1030C000F11D808190ED980F9A3030F08E3251F4DE
:1030D000818180538A3098F4F093A006E0939F0694
:1030E00081E008958D3211F08B3249F4818190EDA9
:1030F000980F9A3088F38E3211F48281EACFF0E093
:10310000E0E0EACF80E008950E943B18882341F078
:1031100081E020919F063091A006232B09F480E0E6
:103120000895809102018095807180930001089537
:1031300080910201809582708093000180910D073B
:103140008E7F80930D07769A80910D078D7F8093F7
:103150000D072C9A80910D078B7F80930D070C949F
:103160009118C82F89EE93E030E6019729F0232FBC
:103170002A950000E9F7F9CFF89489EE93E038EE4C
:10318000019729F0232F2A950000E9F7F9CF0E9433
:10319000BE13CC2321F00E949818A895FECF0E9460
:1031A0009118FBCF9091C00095FFFCCF8093C60093
:1031B0000895CF93DF93EC01FE018491219688233B
:1031C00019F00E94D218F8CFDF91CF910895CF93D4
:1031D000C82FCB010E94D91886E499E00E94D91823
:1031E00080EC98E0CC2311F085EC98E00E94D9188F
:1031F0008AE0CF910C94D2181F93CF93DF9381EE86
:1032000098E00E94D918C9E0D1E0888111E082FBE2
:10321000882780F96BED78E081270E94E718888184
:1032200085FB882780F965ED78E081270E94E71803
:1032300088816FEC78E086958170DF91CF911F9146
:103240000C94E7180F931F93CF93DF938B010E9489
:10325000D918E8018991882319F00E94D218FACF71
:10326000DF91CF911F910F91089583E095E00C9429
:10327000D9188DEF94E00C94D9180E9439196091F7
:1032800025077091260786EC9EE00E94221983ECA8
:103290009EE00C94D9180F931F93CF93811113C004
:1032A000C42F8B010E94391983E297E00E94D9183C
:1032B000C8010E94D918CC2331F08AE0CF911F9128
:1032C0000F910C94D218CF911F910F910895809176
:1032D0006B0390916C032FEF3FEF981751F0E92F9C
:1032E000F0E0E559FC4F228130E09F5F9F7790939B
:1032F0006C03C9010895CF93DF9362E08091120DB2
:103300000E945A121092A40C8093A30C64E070E007
:1033100080E090E00E940D1085EA9CE00E94391345
:10332000D82F80E0C82F85EA9CE00E943913BE01A7
:10333000682B792B7F73072E000C880B990B0E944A
:103340009078DF91CF9108954F925F926F927F9224
:10335000AF92BF92CF92DF92EF92FF920F931F93A3
:10336000CF93DF93C5E0D0E0C12CD12C76010E9431
:103370007B199B01AC01C701B6010E94437F6B0121
:103380007C012197A1F720E030E040EA50E40E9460
:103390003D802B013C0100910A0D10910B0D58014D
:1033A000E801CC0FDD1FCC0FDD1FCE51D34FC12C58
:1033B000D12C760181E0A81AB10824971A141B04B5
:1033C0008CF4FE013497208131814281538128831E
:1033D00039834A835B83C701B6010E94437F6B0137
:1033E0007C01E8CFB801110F880B990B0E949078EF
:1033F0009B01AC01C301B2010E943D809B01AC0165
:103400002093E20C3093E30C4093E40C5093E50CD2
:1034100040900E0D50900F0D6090100D7090110D9A
:10342000C701B6010E94437FA30192010E94427F1F
:1034300026EC3DEE41E352E40E94EF786B017C0103
:10344000A301920160E070E08AE796E40E94427F67
:103450009B01AC01C701B6010E943D80DF91CF9175
:103460001F910F91FF90EF90DF90CF90BF90AF90A2
:103470007F906F905F904F900895CF93DF93C9E056
:10348000D0E00E94A4192197E1F70E94A41920E03E
:1034900030E04DE952E40E943D802AEB39E041E101
:1034A00053E40E94EF78DF91CF9108958F929F921D
:1034B000AF92BF92CF92DF92EF92FF920F931F9342
:1034C000CF93DF93B0E4A0E06A2F70E0AB014B0F25
:1034D000511D55954795411119C0E3EFFEE06591E7
:1034E0007491072E000C880B990B0E949078DF9145
:1034F000CF911F910F91FF90EF90DF90CF90BF90F1
:10350000AF909F908F900895B42FE0CF4A1711F09D
:10351000B41303C0EFEEFFE0E2CF9A01215031096E
:10352000220F331F220F331FF901EF50F14FE590A7
:10353000F490F901EB50F14FC591D4918E159F0590
:103540001CF3A42FC817D9070CF4BECFF901ED5016
:10355000F14F05911491F901E950F14FC590D490C4
:10356000BC016E197F09072E000C880B990B0E9475
:1035700090784B015C01B601601B710B072E000CAB
:10358000880B990B0E9490789B01AC01C501B40196
:103590000E94EF784B015C01BE016E197F09072E76
:1035A000000C880B990B0E9490789B01AC01C5011F
:1035B000B4010E943D806B017C01B801110F880BA2
:1035C000990B0E9490789B01AC01C701B6010E9443
:1035D000437F8DCFCF93DF93C6EDD6E08A819B8169
:1035E0000E94561A6C837D838E839F83CFEBD6E037
:1035F0008A819B810E94D7136C837D838E839F83F6
:10360000A89510929604DF91CF9108952F923F9242
:103610004F925F926F927F928F929F92AF92BF92E2
:10362000CF92DF92EF92FF920F931F93CF93DF938E
:1036300000D000D000D01F921F92CDB7DEB780918E
:103640009504811171C080919604811119C02B9647
:103650000FB6F894DEBF0FBECDBFDF91CF911F91A3
:103660000F91FF90EF90DF90CF90BF90AF909F9021
:103670008F907F906F905F904F903F902F90089524
:103680000E94EA1A0E944010C090DA06D090DB0631
:10369000E090DC06F090DD0660912F027091300220
:1036A000072E000C880B990B0E9490789B01AC01AF
:1036B000C701B6010E94A381181694F460913102EB
:1036C00070913202072E000C880B990B0E949078A3
:1036D0009B01AC01C701B6010E94897887FD2FC00C
:1036E00060E06093E0064090C3065090C40660908E
:1036F000C5067090C60620E030E040EA50E4C30101
:10370000B2010E94A38187FD0BC020E030E04CE0B5
:1037100053E4C301B2010E94897818160CF00EC15F
:1037200060E06093C90693CF0E94BE130E943519D2
:1037300089E499E00E94D91881E00E94B118609153
:10374000DE067091DF066115710509F401C2072ECE
:10375000000C880B990B0E949078A70196010E949B
:10376000427F2B013C0120E030E040E251EC0E941E
:10377000897887FDEDC120E030E040E251E4C301EB
:10378000B2010E94A38118160CF4FAC1809194042E
:10379000811100C280908C0490908D04A0908E04C2
:1037A000B0908F048091900490919104A091920424
:1037B000B09193048D839E83AF83B887A701960150
:1037C00060918004709181048091820490918304BF
:1037D0000E94427F2091E9063091EA064091EB0673
:1037E0005091EC060E94EF78A50194010E94427F5F
:1037F00020ED3CEC4CE45DE30E94EF78A5019401E0
:103800000E94437F4B015C0180928C0490928D0456
:10381000A0928E04B0928F048091E5069091E60606
:10382000A091E706B091E80689839A83AB83BC83B5
:103830002D813E814F815885C301B2010E94437F93
:10384000162F7B878A87092F20E030E0A9010E948C
:10385000897887FDA9C129813A814B815C8160E02B
:1038600070E08FE793E40E943D806D8379871C01AF
:10387000212F3B854A85502F0E94897887FF05C0FC
:103880001D8199859B872A86032D812F9B85AA857B
:10389000B02F8093900490939104A0939204B093DE
:1038A00093042091E1063091E2064091E3065091A5
:1038B000E406C301B2010E94EF782B013C01409263
:1038C0008404509285046092860470928704212FAC
:1038D0003B854A85502F69817A818B819C810E942A
:1038E000EF789B01AC0120938804309389044093C6
:1038F0008A0450938B04C301B2010E94437FA50147
:1039000094010E94437F20E030E0A9010E94437FA0
:103910004B015C0120E030E0A9010E94897887FD1D
:103920001AC120E030E04FE753E4C501B4010E9422
:10393000A38118160CF019C16FE70EC16091C7067C
:103940007091C8066115710509F416C1072E000CA7
:10395000880B990B0E949078A30192010E94427FEC
:103960004B015C0120E030E040E251EC0E9489789C
:1039700087FD02C120E030E040E251E4C501B4011E
:103980000E94A38118160CF400C18091CE0690917C
:10399000CF06A091D006B091D10689839A83AB83DC
:1039A000BC8380910402811104C120917C04309178
:1039B0007D0440917E0450917F04C0907804D090A3
:1039C0007904E0907A04F0907B04C501B4010E9470
:1039D000437F162F7B878A87092F20E030E0A901DB
:1039E0000E94897887FDEDC029813A814B815C81F5
:1039F00060E070E08FE793E40E943D80362E272E32
:103A00008D839987212F3B854A85502F0E94897885
:103A100087FF05C0132D2B869D819A870985812FED
:103A20009B85AA85B02F80937C0490937D04A093FE
:103A30007E04B0937F042091CA063091CB0640915A
:103A4000CC065091CD06C501B4010E94EF784B0120
:103A50005C018092700490927104A0927204B09202
:103A60007304212F3B854A85502F69817A818B8190
:103A70009C810E94EF7869837A838B839C83609317
:103A80007404709375048093760490937704A30173
:103A9000920160916C0470916D0480916E0490911C
:103AA0006F040E94427F2091D2063091D30640914C
:103AB000D4065091D5060E94EF78A70196010E9486
:103AC000427F20ED3CEC4CE45DE30E94EF78A701DF
:103AD00096010E94437F6B017C01C0927804D092D2
:103AE0007904E0927A04F0927B0440926C04509244
:103AF0006D0460926E0470926F0429813A814B814B
:103B00005C81C501B4010E94437FA70196010E9418
:103B1000437F20E030E0A9010E94437F6B017C01DC
:103B200020E030E0A9010E94897887FDF9CD20E0EE
:103B300030E04FE753E4C701B6010E94A381181695
:103B40003CF1C701B6010E94AF8075956795E9CD3C
:103B500081E08093940460E0C0928004D09281045C
:103B6000E0928204F0928304BCCDC501B4010E94AE
:103B7000AF8075956795F0CF81E080930402D0CD3A
:103B800081E0809394046FE7E7CF81E080930402A3
:103B90006FE7C7CD109294041D821E821F82188683
:103BA000812C912C54010ACE10E01B861A8600E06D
:103BB0006CCE10920402C12CD12C7601A701960183
:103BC00004CF10E01B861A8600E029CFCF92DF9247
:103BD000EF92FF926B017C0183E3C816D104E104EC
:103BE000F10470F082E3C81AD108E108F10862E339
:103BF00070E080E090E00E940D100E94061BECCF68
:103C0000C701B6010E940D10FF90EF90DF90CF909A
:103C10000C94061B80910507882331F062E070E068
:103C200080E090E00C94E61D0895CF92DF92EF9231
:103C3000FF920F931F93CF93DF93CDB7DEB7A0977B
:103C40000FB6F894DEBF0FBECDBF611571058105BB
:103C5000910579F100E0C42ED12CF12CE12CA701C3
:103C600096010E94B77E11E0100FE1E0F0E0EC0F4A
:103C7000FD1FE00FF11D07FDFA956083B901CA0130
:103C8000012F611571058105910549F7115010F15A
:103C9000E1E0F0E0EC0FFD1FE10FF11D17FDFA95DB
:103CA000908187E39A3008F480E3890F0E94D2184C
:103CB000EDCF80E3A0960FB6F894DEBF0FBECDBF68
:103CC000DF91CF911F910F91FF90EF90DF90CF90F8
:103CD0000C94D218A0960FB6F894DEBF0FBECDBFDD
:103CE000DF91CF911F910F91FF90EF90DF90CF90D8
:103CF0000895CF92DF92EF92FF926B017C01F7FE65
:103D00000BC08DE20E94D218F094E094D094C0943D
:103D1000C11CD11CE11CF11C4AE0C701B601FF9097
:103D2000EF90DF90CF900C94151E0F931F93CF93BD
:103D3000C82F8B0180911E07813099F40E9435199C
:103D4000C8010E94D9188BE299E00E94D918C111CC
:103D50001FC060E070E0CB010E94791E8AE00E94E3
:103D6000D2180E94BE1380916B04811116C081E0AD
:103D700080936B0480E880931E070E94BE130E940C
:103D8000351989E499E00E94D91880E00E94B118A1
:103D900087E299E00E94D918E1CFCF911F910F914E
:103DA0000895CF92DF92EF92FF92CF93DF93EC01D1
:103DB000C880D980EA80FB808DE199E00E94D91803
:103DC000C701B6010E94791ECC80DD80EE80FF80A5
:103DD0008DED9EE00E94D918C701B6010E94791EA0
:103DE000C884D984EA84FB8489ED9EE00E94D918B6
:103DF000C701B6010E94791E8AE0DF91CF91FF9042
:103E0000EF90DF90CF900C94D218CF93DF93EB011B
:103E10000E94D918BE01DD0F880B990BDF91CF915D
:103E20000C94791E8F929F92AF92BF92CF92DF92A5
:103E3000EF92FF92CF936B017C01B42E20E030E033
:103E4000A9010E94897887FF07C08DE20E94D218DD
:103E5000F7FAF094F7F8F094C0E060E070E080E0EA
:103E60009FE3CB1541F02DEC3CEC4CEC5DE30E9464
:103E7000EF78CF5FF6CF9B01AC01C701B6010E947E
:103E8000437F6B017C010E94B6804B015C014AE0DC
:103E90000E94151ECC2391F1C501B4010E948E78B9
:103EA0009B01AC01C701B6010E94427F6B017C01FE
:103EB0008EE20E94D218C15008F120E030E040E2CA
:103EC00051E4C701B6010E94EF784B015C010E94EA
:103ED000AF806B01770FEE08FF08C701B6010E94A3
:103EE000791EC701B6010E9490789B01AC01C50103
:103EF000B4010E94427F6B017C01DDCFCF91FF9026
:103F0000EF90DF90CF90BF90AF909F908F900895EB
:103F1000CF92DF92EF92FF926A017B010E94D91843
:103F200042E0C701B601FF90EF90DF90CF900C9474
:103F3000121F8823A9F10E9439194091E30B509177
:103F4000E40B6091E50B7091E60B8AEE9EE00E9417
:103F5000881F4091E70B5091E80B6091E90B70913D
:103F6000EA0B87EE9EE00E94881F4091EB0B509178
:103F7000EC0B6091ED0B7091EE0B84EE9EE00E94D5
:103F8000881F4091EF0B5091F00B6091F10B7091F5
:103F9000F20B81EE9EE00E94881F8AE00C94D218FA
:103FA00080E20E94D218C9CF4F925F926F927F92A7
:103FB0008F929F92AF92BF92CF92DF92EF92FF9239
:103FC0000F931F93CF93DF93CDE3D2E04C845D84B6
:103FD0006E847F8407E217E0F801248135814681F1
:103FE00057816C817D818E819F810E94437F4B012F
:103FF0005C01F80120853185428553856885798586
:104000008A859B850E94437F6B017C01F80120819A
:10401000318142815381688179818A819B810E94AB
:10402000437FAB01BC0184E299E00E94881FB50187
:10403000A4018DED9EE00E94881FB701A60189EDC5
:104040009EE00E94881FB301A2018EE495E0DF91FB
:10405000CF911F910F91FF90EF90DF90CF90BF9085
:10406000AF909F908F907F906F905F904F900C9447
:10407000881FCF93DF93CDB7DEB72C970FB6F89498
:10408000DEBF0FBECDBF0E94D41F0E94B4159CE0BE
:10409000EBE5F4E0DE01119601900D929A95E1F7BF
:1040A00081110E94C115CE0101960E94D11E2C964D
:1040B0000FB6F894DEBF0FBECDBFDF91CF9108954C
:1040C000EF92FF920F931F93CF937C018B01C2E479
:1040D0004F3F09F0C4E580E20E94D2188C2F0E9465
:1040E000D2188AE30E94D218F7016081718182811F
:1040F000938142E00E94121FF80140815181628148
:10410000738187EA99E00E94881F62E070E080E096
:1041100090E0CF911F910F91FF90EF900C940D10B4
:10412000EF92FF921F93CF93DF9300D000D01F92A6
:104130001F92CDB7DEB7182F86EDE82E86E0F82E59
:10414000F70160857185072E000C880B990B0E9482
:1041500090786D837E838F83988720E030E0A9017B
:10416000F70164817581868197810E94437F69830D
:104170007A838B839C834BEFBE016B5F7F4FCE01B5
:1041800001960E9460209FEBE92E96E0F92EF70140
:1041900060857185072E000C880B990B0E94907822
:1041A0006D837E838F839887F70184819581A681B3
:1041B000B78189839A83AB83BC834FEFBE016B5F6A
:1041C0007F4FCE0101960E94602087E11802F00126
:1041D0001124EA52F94F628570E08FEA99E00E945B
:1041E000051FF701628570E08AEA99E00E94051FC9
:1041F00028960FB6F894DEBF0FBECDBFDF91CF91EA
:104200001F91FF90EF9008951F93CF93DF93C82FD6
:10421000D1E0D827811102C00E94391989EA98E0BB
:104220000E94D91883EA98E00E94D9188AE00E9477
:10423000D2188AE00E94D2181091B106C11112C0A2
:104240000E94391983E297E00E94D91880E998E02A
:104250000E94D918112309F4D3C18AE00E94D21810
:104260000E9439194091AD065091AE066091AF069B
:104270007091B0068CE798E00E94881F8AE00E9447
:10428000D218111108C0C11102C00E94391981E76A
:1042900098E00E94D91841E061E678E08C2F0E94F6
:1042A0004B198D2F0E94991F41E064E478E08C2F18
:1042B0000E944B19C11102C00E9439194091F30BA1
:1042C0005091F40B6091F50B7091F60B8BE398E035
:1042D0000E94881F4091F70B5091F80B6091F90BE9
:1042E0007091FA0B87EE9EE00E94881F4091FB0BB5
:1042F0005091FC0B6091FD0B7091FE0B84EE9EE0E3
:104300000E94881F4091FF0B5091000C6091010C9E
:104310007091020C81EE9EE00E94881F8AE00E944C
:10432000D21841E06AE178E08C2F0E944B19C1114C
:1043300002C00E9439196091CF0B7091D00B80910F
:10434000D10B9091D20B0E948E78AB01BC0181E120
:1043500098E00E94881F6091D30B7091D40B8091DC
:10436000D50B9091D60B0E948E78AB01BC0187EEE5
:104370009EE00E94881F6091D70B7091D80B8091AE
:10438000D90B9091DA0B0E948E78AB01BC0184EEC0
:104390009EE00E94881F6091DB0B7091DC0B809186
:1043A000DD0B9091DE0B0E948E78AB01BC0181EE9B
:1043B0009EE00E94881F8AE00E94D21841E068ECCB
:1043C00077E08C2F0E944B19C11102C00E9439194D
:1043D0004091030C5091040C6091050C7091060CF7
:1043E0008FEB97E00E94881F4091070C5091080CBA
:1043F0006091090C70910A0C82E89BE00E94881F72
:1044000040910B0C50910C0C60910D0C70910E0CA6
:104410008FE79BE00E94881F8AE00E94D21841E04B
:104420006BE677E08C2F0E944B19C11102C00E94ED
:1044300039196091DF0B7091E00B8091E10B909145
:10444000E20B0E948E78AB01BC0182E697E00E94ED
:10445000881F40910F0C5091100C6091110C7091BD
:10446000120C8DE89DE00E94881F4091130C509122
:10447000140C6091150C7091160C8FE79BE00E9454
:10448000881F409133075091340760913507709130
:1044900036078FE597E00E94881F8AE00E94D218B5
:1044A00041E062E577E08C2F0E944B19C11102C0F8
:1044B0000E9439194091A1065091A2066091A3066D
:1044C0007091A40689E497E00E94881F4091A50698
:1044D0005091A6066091A7067091A80687EE9EE00F
:1044E0000E94881F4091A9065091AA066091AB06D0
:1044F0007091AC0684EE9EE00E94881F8AE00E94C4
:10450000D21841E06BE377E08C2F0E944B19C11168
:1045100002C00E9439194091E1065091E206609173
:10452000E3067091E40682E397E00E94881F2CEA7C
:1045300035EC47E25EE36091E5067091E606809116
:10454000E7069091E8060E943D80AB01BC0186E23F
:1045500097E00E94881F2CEA35EC47E25EE3609109
:10456000E9067091EA068091EB069091EC060E94B4
:10457000EF78AB01BC0182E898E00E94881F8AE0D6
:104580000E94D218C11102C00E9439194091CA0676
:104590005091CB066091CC067091CD0689E297E0F0
:1045A0000E94881F2CEA35EC47E25EE36091CE065C
:1045B0007091CF068091D0069091D1060E943D80E7
:1045C000AB01BC0186E297E00E94881F2CEA35EC23
:1045D00047E25EE36091D2067091D3068091D406E3
:1045E0009091D5060E94EF78AB01BC0182E898E07B
:1045F0000E94881F8AE0DF91CF911F910C94D218FE
:1046000085E898E00E94D9182BCE8DE00E94D21840
:104610008AE00C94D21880916B0380936C038DE92F
:1046200095E00E94D9186091190C70911A0C809134
:104630001B0C90911C0C6F5F7F4F8F4F9F4F0E9400
:10464000791E0E940523E0917806F0E0EE57F34FC3
:104650008081882339F089E99AE00E94D9188AE09C
:104660000C94D2180895CF93DF93EC010E94351972
:10467000CE010E94D9186091190C70911A0C80918A
:104680001B0C90911C0C0E94791E0E9405230E9415
:1046900067190196E1F70E940B231092180C1092F3
:1046A000170CDF91CF9108950F931F93CF938C0137
:1046B000C62F82E595E00E94D918C8010E94D9183A
:1046C0008AE30E94D2186C2F70E090E080E00E9494
:1046D000791ECF911F910F910C940523CF93DF93F7
:1046E000EC018991882319F00E94D218FACFDF914A
:1046F000CF910C940523CF93FC01C28DC11106C04C
:10470000C38DC11108C08C2FCF91089589E792E025
:104710000E946E23F8CF628173818DE695E00E943E
:10472000051F8AE00E94D218EECFEF92FF920F93FE
:104730001F93CF93DF93CDB7DEB762970FB6F89490
:10474000DEBF0FBECDBF9091240786E090FF87E0CB
:1047500091FD8D7F92FF12C08B7FC9F562960FB6D7
:10476000F894DEBF0FBECDBFDF91CF911F910F91A7
:10477000FF90EF90089589E992E00CC025E932E0BE
:1047800044E952E081FF02C047E952E080FDF3CFE7
:1047900084E992E03F932F935F934F939F938F937E
:1047A00081EB9EE09F938F93CE0101967C019F93B6
:1047B0008F930E9459780E943919C7010E946E2375
:1047C0000FB6F894DEBF0FBECDBF81E0C7CF24E99E
:1047D00032E0D6CFAF92BF92CF92DF92EF92FF92AC
:1047E0000F931F93CF93DF93CDB7DEB72C970FB600
:1047F000F894DEBF0FBECDBFE62E23E6C22E22E028
:10480000D22E5C01F12C80E20E94D218F601819137
:104810006F010E94D2188AE30E94D218F5016191BB
:104820007191819191915F018E010F5F1F4F23E084
:1048300041E00E9443738C01F80181918F0188232C
:1048400019F00E94D218F8CFF394EF10DCCF8AE071
:104850000E94D2182C960FB6F894DEBF0FBECDBFC3
:10486000DF91CF911F910F91FF90EF90DF90CF904C
:10487000BF90AF900895FF920F931F93CF93DF9354
:104880001F92CDB7DEB7F82E01EF1FE041E050E0F8
:10489000B801CE0101960E941E7889818F1108C04F
:1048A00081E00F90DF91CF911F910F91FF900895BC
:1048B0000F5F1F4F80E10930180741F780E0F1CF0B
:1048C00085ED8093BC008091650C9091660CA09161
:1048D000670CB091680C0796A11DB11D23E0B69539
:1048E000A795979587952A95D1F72091BC0024FD2F
:1048F00003C01092630C08954091650C5091660CB2
:104900006091670C7091680C452B462B472B69F31F
:104910000097A105B10541F025E32A95F1F70000C4
:104920000197A109B109E1CF8091640C0C9439126F
:104930004F925F926F927F928F929F92AF92BF92AF
:10494000CF92DF92EF92FF920F931F93CF93DF935B
:10495000CDB7DEB76A970FB6F894DEBF0FBECDBFF6
:104960009A8F898F5B018A01DC01D6966D917D91CA
:104970008D919C91D9970E948E786B017C01F501F5
:1049800020813181428153810E94EF780E942180F1
:104990002B013C01D8012D913D914D915C91C701B6
:1049A000B6010E94EF780E9421804B015C01C30197
:1049B000B2010E94B680698B7A8B8B8B9C8B683797
:1049C00071058105910540F428E730E040E050E0B2
:1049D000298B3A8B4B8B5C8BC501B4010E94B6804E
:1049E0006D877E878F87988B683771058105910564
:1049F00040F488E790E0A0E0B0E08D879E87AF8725
:104A0000B88BE98DFA8DEE5BFF4F208131814281B9
:104A1000538129833A834B835C83CA01B9010E9485
:104A200090782B013C0169897A898B899C890E9445
:104A30008E7869877A878B879C8720E030E0A90190
:104A4000C301B2010E948978882309F43BC1A70100
:104A50009601C701B6010E94EF784B015C012985E0
:104A60003A854B855C85CA01B9010E94EF789B01AC
:104A7000AC01C501B4010E94427F4B015C01A3015E
:104A80009201C301B2010E94437F9B01AC01C501A9
:104A9000B4010E943D800E9421800E94B6806D83F7
:104AA0007E838F83988769817A818B819C819095A1
:104AB0008095709561957F4F8F4F9F4F0E949078A2
:104AC0004B015C016D857E858F8598890E948E786B
:104AD00069837A838B839C8320E030E0A901C50140
:104AE000B4010E948978882309F4F0C029813A81B1
:104AF0004B815C81CA01B9010E94EF786D8B7E8B7E
:104B00008F8B988FA7019601C701B6010E94EF789D
:104B10009B01AC016D897E898F89988D0E94427FAF
:104B20006B017C01A5019401C501B4010E94437F82
:104B30009B01AC01C701B6010E943D800E94E58047
:104B4000A98DBA8D95968D909D90AD90BC909897BB
:104B5000750164012D813E814F815885C21AD30AA7
:104B6000E40AF50A0E94B680C61AD70AE80AF90ACA
:104B7000F7FE6EC020E030E0A901C301B2010E943F
:104B80008978882309F4A6C0C501B4010E948E78F3
:104B90006B017C01A3019201C301B2010E94437F1A
:104BA0009B01AC01C701B6010E94EF786B017C014B
:104BB00029853A854B855C85CA01B9010E94EF7849
:104BC0009B01AC01C701B6010E94427F6B017C01D1
:104BD00029813A814B815C81CA01B9010E94EF7839
:104BE0009B01AC01C701B6010E94437F6B017C01B0
:104BF00020E030E040E850E4C301B2010E94EF78C9
:104C00009B01AC01C701B6010E943D800E9421803A
:104C10006B017C0120E030E0A9010E94A3811816FD
:104C20001CF0C12CD12C7601C701B6010E94B680C0
:104C30006D837E838F83988786169706A806B906AC
:104C400020F48D829E82AF82B886C12CD12C760151
:104C50008D819E81AF81B885E98DFA8D81A792A75C
:104C6000A3A7B4A7C80ED91EEA1EFB1EC5A6D6A6CA
:104C7000E7A6F0AA29893A894B895C8922AF33AF2C
:104C800044AF55AFFE962D853E854F8558892083CC
:104C90003183428353836A960FB6F894DEBF0FBE0A
:104CA000CDBFDF91CF911F910F91FF90EF90DF90DB
:104CB000CF90BF90AF909F908F907F906F905F90BC
:104CC0004F90089560E070E0CB01E5CE60E070E0C9
:104CD000CB0134CF60E070E0CB0198CF4F925F9270
:104CE0006F927F92AF92BF92CF92DF92EF92FF923C
:104CF0000F931F93CF93DF931092F8061092F7064D
:104D00002FE3209322071092210710922007109280
:104D1000F2061092F3061092F4061092F5069C012A
:104D2000E90198812F5F3F4F9032D1F39E34C9F44F
:104D3000898190ED980F9A3020F08D3211F08B32EE
:104D400081F422969E012F5F3F4F888180538A30E5
:104D500008F470C09E012F5F3F4F8881803209F4B4
:104D60006BC0D0932607C09325077E012FEFE21A70
:104D7000F20A18816AE270E0C7010E94508200972F
:104D800031F0FC01319780818032E1F311821D34D2
:104D900021F0143511F01734F1F5F70180819FEF00
:104DA000E91AF90A8032C9F380538A30A0F51093CA
:104DB000220790E080E0AAE0AF014F5F5F4F2081C3
:104DC000022E000C330B20533109A89FB001A99F7C
:104DD000700D1124C901860F971FFA0120812053FD
:104DE0002A3050F39093210780932007DF013196FA
:104DF0002C912032D9F31D3459F58E31910539F0BB
:104E0000ECF48731910519F08C31910509F5B093D7
:104E1000F806A093F706DF91CF911F910F91FF90B5
:104E2000EF90DF90CF90BF90AF907F906F905F90AA
:104E30004F900895E90186CFE9018CCF8537910520
:104E40003CF0873791051CF3803AE3E09E07F9F2C6
:104E500040E050E0BA0130E020E0C12CD12C7601D6
:104E6000C394FD0131960C91002309F48CC00132EA
:104E7000F1F41D34E1F480329105C9F44093F20657
:104E80005093F3066093F4067093F506F093F806DA
:104E9000E093F70663E270E0CF010E945082009732
:104EA00009F4B9CFFC011082B6CFDF01DACF01548B
:104EB0000A3108F063C0DF01BD90D0E2AD2EBA1414
:104EC00099F0A0EDAB0DAA3008F1AEE2BA120EC017
:104ED000A181A053AA30D0F02115310519F49F010A
:104EE00021503109B12C16C0FD01E5CFADE2AA2E4B
:104EF000BA1419F0ABE2BA12EFCFA181B0EDBA0F3C
:104F0000BA3020F0AE3241F7A281E3CFBE2EBC1AF8
:104F1000309741F3A02FB0E02601370104C0440CC4
:104F2000551C661C771C0A95D2F744295529662919
:104F30007729AF5ABC4FBC92A081A154AA3108F482
:104F4000B4CFDF010191002309F48BCFD0EDBD2E4A
:104F5000B00ED9E0AD2EAB14A0F7D3EDBD2EB00E40
:104F6000AA24A394AB1468F70B3259F3FD013196D0
:104F70000C91003209F075CFDF01F8CF2115310512
:104F8000D9F69D01D9CF3093F8062093F7064093C8
:104F9000F2065093F3066093F4067093F5063BCF48
:104FA00080919F069091A006009731F04AE050E072
:104FB00070E060E00C94127760E070E0CB0108953F
:104FC00080919F069091A006009731F04AE050E052
:104FD00070E060E00C94E47560E070E0CB0108954F
:104FE000CF93DF93EB010E948418882319F00E946D
:104FF000E027EB01CE01DF91CF9108950E94E027D9
:1050000097FD0CC00E94E0276F3F71058105910557
:1050100009F034F40E94E027862F089580E0089577
:105020008FEF0895CF9384E50E948418C0E0882311
:10503000F9F00E94FE27C82F1816D4F40E943919DF
:105040008DE40E94D2186091200770912107072EED
:10505000000C880B990B0E94791E6C2FCC0F770BDC
:105060008AE095E00E94051F8AE00E94D218CFEFE7
:105070008C2FCF910895CF93DF93D82FC62F0E9406
:105080008418882391F080919F069091A006892B27
:1050900029F4C1E08C2FDF91CF9108950E94FE2763
:1050A000C1E08111F7CFC0E0F5CF8D2F0E943B18F2
:1050B000882381F3EECF0F931F93CF9380919F06A8
:1050C0009091A0060097E9F0FC018F01C1912C2F6F
:1050D0002F7D81F0C53411F0C536B9F7F801108283
:1050E00070E060E00E948674F801C083CF911F9148
:1050F0000F91089570E060E0CF911F910F910C9493
:10510000867460E070E0CB01F1CF2F923F924F9216
:105110005F926F927F928F929F92AF92BF92CF9247
:10512000DF92EF92FF920F931F93CF93DF93CDB750
:10513000DEB7ED970FB6F894DEBF0FBECDBF70E0BF
:1051400060E085E40E94F027182F81E0810F823013
:10515000E0F086ED96E0ED960FB6F894DEBF0FBE58
:10516000CDBFDF91CF911F910F91FF90EF90DF9016
:10517000CF90BF90AF909F908F907F906F905F90F7
:105180004F903F902F900C94D91865E070E083E425
:105190000E94F02789A760E085E50E943B288BAF3D
:1051A000C12CD12C0CE8E02E02E4F02E17FD06C035
:1051B000C12CD12CB6E1EB2EB3E4FB2E83E50E948B
:1051C0008418882321F00E945B286B017C01C701B1
:1051D000B6010E94AF80072E000C880B990B0E942D
:1051E00090786DAF79878A879B870E9440106E8B7D
:1051F0007F8B888F998F1F3F09F4C7C2E12E012E44
:10520000000CFF08F701A3E0EE0FFF1FAA95E1F7DE
:10521000E55DFD4F668177816F507109072E000CA7
:10522000880B990B0E9490789B01AC016DAD79853C
:105230008A859B850E94A38118160CF085C18EE398
:1052400096E089CF20E030E040E05EE328AB39AB68
:105250004AAB5BAB8AE999E9A9E1BFE38CAB9DABB3
:10526000AEABBFAB18AF97C1AAA1BBA12C90119652
:105270003C90119712960C9112971396BC91BCAF6B
:10528000F0C1E9ADFAAD80833CC26BEE862E912C65
:10529000A12CB12CEBC284E190E0A0E0B0E08983C6
:1052A0009A83AB83BC8354E1852E912CA12CB12C25
:1052B000EBC289829A82AB82BC82E6C22CA93DA94C
:1052C0004EA95FA9C701B6010E94EF786B017C016E
:1052D000AC019B01C301B2010E94EF7828A939A952
:1052E0004AA95BA90E94EF786A8B7B8B8C8B9D8B84
:1052F000A7019601C701B6010E94437FA301920155
:105300000E943D806E877F87888B998B8BE796E024
:105310000E94D918B701A60185E796E00E94881F70
:105320004E855F85688979898FE696E00E94881F9F
:105330004A895B896C897D8989E696E00E94881F8D
:105340008AE00E94D21889819A81AB81BC81880D44
:10535000991DAA1DBB1DB595A79597958795E9AD94
:10536000FAAD80834EC31F3F71F73DC38D819E818F
:10537000AF81B8852CA53DA54EA55FA5821B930BDB
:10538000A40BB50BB7FD12C088AD0E9490208AE037
:105390000E94D2188D819E81AF81B8858053984F2D
:1053A000AF4FBF4F8CA79DA7AEA7BFA78D819E8192
:1053B000AF81B885880F991FAA1FBB1F4E895F89CF
:1053C000688D798D440D551D661D771D841B950BC9
:1053D000A60BB70B81389F44A241B10518F080E2BB
:1053E00096E0B7C129A53AA54C855D8524173507F8
:1053F0000CF01DC1433051050CF419C183EC95E04C
:105400000E94D9181F3F09F087C087E299E09A836C
:10541000898386EA95E00E94D91889819A810E9441
:10542000D918B701A6018FEB95E00E94881F8AE08A
:105430000E94D21886EA95E00E94D91889819A8143
:105440000E94D9184E855F85688979898BEB95E034
:105450000E94881F8AE00E94D21886EA95E00E9486
:10546000D91889819A810E94D9184A895B896C89E7
:105470007D8987EB95E00E94881F8AE00E94D21800
:10548000BBADBB2381F12CEA35EC47E25EE36E85D0
:105490007F85888999890E94EF782B013C012CEA4D
:1054A00035EC47E25EE36A897B898C899D890E949D
:1054B0003D801F3FB1F5C092CA06D092CB06E09264
:1054C000CC06F092CD064092CE065092CF06609266
:1054D000D0067092D1066093D2067093D306809363
:1054E000D4069093D506ED960FB6F894DEBF0FBEA6
:1054F000CDBFDF91CF911F910F91FF90EF90DF9083
:10550000CF90BF90AF909F908F907F906F905F9063
:105510004F903F902F900895AAE8B6E0BA83A983F0
:1055200078CF27E11202F0011124EA52F94FC38625
:10553000D486E586F6864786508A618A728A638BAE
:10554000748B858B968BCFCF82EC96E00E94D91816
:105550000E94BE1387E18E9DF0018F9DF00D1124F6
:10556000EA52F94F8FE7828781E0809329021F3F3B
:1055700009F068CE2BEA3AEA4AEA5EE328AB39AB97
:105580004AAB5BAB8DEC9CECACE4BEE38CAB9DAB6F
:10559000AEABBFAB18AE4E885F88688C798C4CA6DA
:1055A0005DA66EA67FA62FE730E040E050E029839D
:1055B0003A834B835C831A8A1B8A1C8A1D8A1E8647
:1055C0001F86188A198AC12CD12C76011A8E30E4D4
:1055D0003B8F4CE14C8F56E45D8F1E8E1F8E18A2C0
:1055E00019A2FFE78F2E912CA12CB12C1DA21EA277
:1055F0001FA218A681E08CA31D861C86212C312CAD
:1056000000E01CAEA7E11A02C00111248A52994F92
:10561000FC013A96FAAFE9AF9C012C5F3F4F3BA3E8
:105620002AA349A5042E000C550B5AA749A70E948E
:1056300040106D837E838F839887509196045BA77B
:10564000552309F473C00E94EA1A1F3F09F00CCEDB
:105650002090C3063090C4060091C5068091C6060E
:105660008CAF2E8D3F8D48A159A1B101802F9CADEB
:105670000E94A38118162CF42E8E3F8E08A3ECAD49
:10568000E9A32A8D3B8D4C8D5D8DB101802F9CADA2
:105690000E94897887FF05C02A8E3B8E0C8FFCAD57
:1056A000FD8F2CA1222309F487C09101402F5CAD0E
:1056B0006DAD79858A859B850E94897887FF36C084
:1056C0004D815E816F817885441955096609770996
:1056D000DB01CA0188589341A109B109B7FD26C071
:1056E00089819A81AB81BC8188199909AA09BB0972
:1056F000B595A795979587951F3F09F0C2CD8093E3
:10570000C9064DA35EA36FA378A7FDADFE8F2985C3
:105710002F8F3A8538A34B8549A38D819E81AF8118
:10572000B8858E8B9F8BA88FB98F1CA220E030E0AC
:1057300040EF51E46DAD79858A859B850E94437F5A
:105740009101402F5CAD0E94897887FF0FCE8EE3D8
:1057500096E00E94D918ED960FB6F894DEBF0FBE02
:10576000CDBFDF91CF911F910F91FF90EF90DF9010
:10577000CF90BF90AF909F908F907F906F905F90F1
:105780004F903F902F900C94BE1320E030E042E009
:1057900053E46DAD79858A859B850E94A381181697
:1057A0000CF44DCD82EC96E00E94D9180E94BE13F5
:1057B0008FE78093C906D8CE9101402F5CAD6DADC7
:1057C00079858A859B850E94A38118160CF0AECF3F
:1057D0008D819E81AF81B8852E893F89488D598DF5
:1057E000821B930BA40BB50BAC01BD014858534170
:1057F0006109710977FD9ACF4C855D85452B09F4C8
:10580000B2CD4DA05EA06FA078A4480E591E6A1EAE
:105810007B1E2DA13EA14FA158A5281B390B4A0B79
:105820005B0BC501B4010E94A77EA30192010E94F7
:105830001B7F89809A80AB80BC80820E931EA41E41
:10584000B51E54E185169104A104B1040CF423CDD6
:105850008CEE88169104A104B1040CF016CD90E8EA
:1058600089169104A104B1040CF423CD89829A8293
:10587000AB82BC822EEF30E040E050E028193909BD
:105880004A095B0949015A018AEB96E00E94D9183E
:1058900069817A818B819C810E94791E85EB96E0DB
:1058A0000E94D918C501B4010E94791E4A8D5B8DF2
:1058B0006C8D7D8D8EEA96E00E94881F4E8D5F8DE7
:1058C00068A179A187EA96E00E94881FAC85BD8512
:1058D00013970CF448CDC501B4010E94907820E0E4
:1058E00030E040E850E40E94EF786B017C012A8DA3
:1058F0003B8D4C8D5D8D6E8D7F8D88A199A10E9411
:10590000427F2BED3FE049E450E40E94EF7820E035
:1059100030E040E05FE30E94EF789B01AC01C701FB
:10592000B6010E943D806B017C01C301B2010E945F
:1059300090782FE632E143E85AE30E94EF782B019A
:105940003C01B701A60181EA96E00E94881FB301DD
:10595000A2018BE996E00E94881F1F3F09F0AECCA0
:105960002DEC3CEC4CE45EE3C701B6010E94EF78FD
:105970006B017C01AC019B010E94437FA30192015A
:105980000E943D806E877F87888B998BA701960147
:10599000C301B2010E94EF7820E030E040E450E41F
:1059A0000E943D806A8B7B8B8C8B9D8B8BE896E075
:1059B0000E94D918B701A60185E796E00E94881FCA
:1059C0004E855F85688979898FE696E00E94881FF9
:1059D0004A895B896C897D8989E696E00E94881FE7
:1059E0008AE00E94D21889819A81AB81BC81880D9E
:1059F000991DAA1DBB1DB595A79597958795809371
:105A0000C9062C853D852F5F3F4F3D872C873DADD7
:105A10003A8F49854B8F5A855C8F8B858D8F4D8052
:105A20005E806F8078849BA59CA380CE8F929F928E
:105A3000AF92BF92CF92DF92EF92FF920F931F939C
:105A4000CF938EE0E82E87E0F82E0DE312E097E288
:105A5000C92E97E0D92EC0E088E58C0F0E948418EB
:105A6000882309F47CC00E945B284B015C018C2FC9
:105A70000E942118882309F468C0F801208131812F
:105A800042815381C501B4010E94437FF7016083C5
:105A9000718382839383CF5FF4E0EF0EF11C0C5F80
:105AA0001F4F84E0C80ED11CC330B1F685E40E94BC
:105AB0008418882309F45EC00E945B286B017C0176
:105AC00083E00E942118882371F0209149023091CF
:105AD0004A0240914B0250914C02C701B6010E940C
