:100000000C94F20F0C9423100C9423100C942310D6
:100010000C9423100C9423100C9423100C94231094
:100020000C9423100C9423100C9423100C94231084
:100030000C9423100C9423100C9423100C94231074
:100040000C9423100C94BB760C9423100C94231066
:100050000C9423100C9423100C94C26F0C94A86C75
:100060000C9423100C9405770C94FB760C942310BD
:100070000C9423100C9423100C9423100C94231034
:100080000C9423100C9423100C9423100C94231024
:100090000C9423100C9423100C9423100C94F26CE9
:1000A0000C9423100C9423100C9423100C94231004
:1000B0000C9423100C9423100C9423100C942310F4
:1000C0000C9423100C9423100C9423100C942310E4
:1000D0000C9423100C9423100C9423100C942310D4
:1000E0000C942310084AD73B3BCE016E84BCBFFD65
:1000F000C12F3D6C74319ABD56833DDA3D00C77FF8
:1001000011BED9E4BB4C3E916BAAAABE0000008090
:100110003F05A84CCDB2D44EB93836A9020C50B91F
:10012000918688083CA6AAAA2ABE000000803F004B
:100130000C94FA100C9444290C94C3100C945F6E28
:100140000C9481280C94D72A0C94C0770C945312E9
:100150000C9426120C94D4290C941C120C94402854
:100160000C944C770C946E160C94D3280C94DE10DF
:100170000C94FE100C9467120C9470280C948E282A
:100180000C94C9100C94EF150C94B8770C94A877C4
:100190000C945D120C94D7110C947D280C94DF11F3
:1001A0000C948D6F0C94FF150C943F120C94E2107C
:1001B0000C94432A0C94F0150C94B1290C9408115A
:1001C0000C9449120C9445280C94FC2A0C94B47796
:1001D0000C9403110C9408790C94AC6F0C941212CB
:1001E0000C94202B0C94FF280C94AC770C941216D2
:1001F0000C9477280C94F6100C94AF6F0C94EE11BD
:100200000C9473280C9492280C94CD100C946F6E5F
:100210000C94682A0C94E8100C9487770C947A6FED
:100220000C9495280C94B0770C9402120C94F8114D
:100230000C949F280C94D1100C9488280C94E411F1
:100240000C94D5100C94B22A0C9426100C94041122
:100250000C9498280C941F290C9496770C948D2A52
:100260000C9471120C9484280C941E2A0C948B28E4
:100270000C940A120C94747E0C94756F0C949C2848
:100280000C94D8100C943F160C94EC100C94996FAD
:100290000C9425100C949E100C9430120C94692927
:1002A0000C948E290C94F9290C94A1770C94F010DD
:1002B0000C947A284E414E494E495459494E46CDE8
:1002C000CCCC3D0AD7233C17B7D13877CC2B32950D
:1002D00095E6241FB14F0A000020410000C84200EB
:1002E000401C4620BCBE4CCA1B0E5AAEC59D7400B5
:1002F000407A10F35A00A0724E18090010A5D4E8F5
:100300000000E87648170000E40B54020000CA9A87
:100310003B000000E1F505000080969800000040D9
:10032000420F000000A0860100000010270000001E
:1003300000E803000000006400000000000A000064
:100340000000000100000000002C76D888DC674F18
:100350000823DFC1DFAE59E1B1B796E5E3E453C648
:100360003AE651997696E8E6C28426EB898C9B6240
:10037000ED407C6FFCEFBC9C9F40F2BAA56FA5F4EA
:1003800090055A2AF75C936B6CF9676DC11BFCE012
:10039000E40D47FEF520E6B500D0ED902E03009465
:1003A0003577050080841E080000204E0A000000FA
:1003B000C80C333333330F986E12831141EF8D2104
:1003C00014893BE65516CFFEE6DB18D1844B381B6B
:1003D000F77C1D901DA4BBE424203284725E228130
:1003E00000C9F124ECA1E53D275A5F53544F505FFB
:1003F00050494E005A5F535445505F50494E005A81
:100400005F4D41585F50494E005A5F454E41424C46
:10041000455F50494E005A5F4449525F50494E0073
:10042000595F53544F505F50494E00595F535445E4
:10043000505F50494E00595F4D494E5F50494E0044
:10044000595F454E41424C455F50494E00595F440B
:1004500049525F50494E00585F53544F505F5049C6
:100460004E00585F535445505F50494E00585F4D01
:1004700041585F50494E00585F454E41424C455FE0
:1004800050494E00585F4449525F50494E00534511
:1004900052564F335F50494E00534552564F325FCC
:1004A00050494E00534552564F315F50494E00530C
:1004B0004552564F305F50494E00534453530052FB
:1004C000414D50535F44395F50494E0052414D50A9
:1004D000535F44385F50494E0052414D50535F4482
:1004E00031305F50494E004D4158363637355F53F5
:1004F000535F50494E004C45445F50494E004845BB
:10050000415445525F4245445F50494E0048454181
:100510005445525F305F50494E0046414E5F50494E
:100520004E0045315F535445505F50494E004531B0
:100530005F454E41424C455F50494E0045315F4456
:1005400049525F50494E0045315F43535F50494E19
:100550000045305F535445505F50494E0045305F71
:10056000454E41424C455F50494E0045305F44493D
:10057000525F50494E00455F4D5558325F50494ECD
:1005800000455F4D5558315F50494E00455F4D5510
:1005900058305F50494E00434153455F4C494748EE
:1005A000545F50494E004A4F595F585F50494E00C2
:1005B0004156525F53535F50494E004156525F536C
:1005C000434B5F50494E004156525F4D4F53495F78
:1005D00050494E004156525F4D49534F5F50494E6E
:1005E0000054584430005258443000434F4D4D554C
:1005F0004E49434154494F4E0044525952554E00C2
:100600004552524F525300494E464F004543484FC2
:1006100000627573793A2070617573656420666F46
:100620007220696E7075740A00627573793A207071
:10063000617573656420666F7220757365720A0058
:10064000627573793A2070726F63657373696E6750
:100650000A002121204B494C4C206361757365646D
:1006600020627920746F6F206D75636820696E61F8
:1006700063746976652074696D65202D20637572D9
:1006800072656E7420636F6D6D616E643A20005008
:1006900072696E7465722073746F70706564206423
:1006A000756520746F206572726F72732E204669B3
:1006B0007820746865206572726F7220616E6420A4
:1006C000757365204D39393920746F2072657374E4
:1006D0006172742E202854656D7065726174757234
:1006E000652069732072657365742E2053657420CC
:1006F00069742061667465722072657374617274C6
:10070000696E67290A004E6F20436865636B7375D5
:100710006D2077697468206C696E65206E756D62F6
:1007200065722C204C617374204C696E653A200010
:10073000636865636B73756D206D69736D61746358
:10074000682C204C617374204C696E653A20004C13
:10075000696E65204E756D626572206973206E6FDB
:1007600074204C617374204C696E65204E756D6207
:1007700065722B312C204C617374204C696E653A84
:1007800020004D313130006563686F3A0045727268
:100790006F723A0050574D3A2020253464002020D3
:1007A0002020434F4D002020206E6F6E2D7374610A
:1007B0006E646172642050574D206D6F6465002037
:1007C0002020636F6D7061726520696E746572724E
:1007D00075707420656E61626C6564002020206F06
:1007E000766572666C6F7720696E7465727275706B
:1007F0007420656E61626C6564002020202054497D
:100800004D534B00423A20002020202054434352B5
:1008100000413A20002020202043533A200020208D
:10082000202057474D3A20002020202054494D4594
:10083000520020697320616C736F207469656420B5
:10084000746F20746869732070696E0054494D4557
:10085000523143000A202E002020506F72743A203B
:1008600000202020416E616C6F6720696E203D2062
:1008700025356C64003C756E757365642F756E6B01
:100880006E6F776E3E0020284125326429202000BB
:10089000253364200050494E3A20004F757470751E
:1008A00074203D2000496E70757420203D2000703A
:1008B000726F7465637465642000446F6E652E0A00
:1008C0000050756C73696E6720202000556E746F40
:1008D00075636865642000534552564F206E6F74EF
:1008E000207365742075702E0A00576174636869FF
:1008F0006E672070696E730A0064697300656E64C8
:1009000073746F70206D6F6E69746F722000204970
:100910006E76616C696420657874727564657220A6
:1009200000446966663A200046726F6D5374703AEF
:1009300000537465707065723A005261773A2020F6
:100940002020000A4C6F676963616C3A00436F7541
:100950006E7420453A004361703A0047322F4733A6
:100960002062616420706172616D65746572730AE2
:1009700000507265737375726520736574746C656D
:100980006420746F6F206C6F772C206D75737420EA
:1009900062652067726561746572207468616E209B
:1009A00000526573656E643A200023646566696E63
:1009B000652044454641554C545F004B6420004B34
:1009C0006920004B702000504944204175746F74B9
:1009D000756E652066696E6973686564212050755F
:1009E0007420746865206C617374204B702C204BEC
:1009F0006920616E64204B6420636F6E7374616E56
:100A000074732066726F6D2062656C6F7720696EFB
:100A1000746F20436F6E66696775726174696F6E7B
:100A20002E680A00504944204175746F74756E65D4
:100A3000206661696C6564212074696D656F7574E9
:100A40000A00504944204175746F74756E652066C4
:100A500061696C6564212054656D7065726174759F
:100A6000726520746F6F20686967680A00204B64A4
:100A70003A2000204B693A2000204B703A20000AAF
:100A800020436C617373696320504944200A000A53
:100A9000204E6F206F76657273686F6F740A002046
:100AA00054753A2000204B753A2000206D61783A49
:100AB0002000206D696E3A200020643A20002062F8
:100AC0006961733A2000504944204175746F747510
:100AD0006E652073746172740A0050494420417538
:100AE000746F74756E65206661696C65642120425F
:100AF0006164206578747275646572206E756D62CC
:100B000065720A0048617264636F646564204465BD
:100B10006661756C742053657474696E6773204CDC
:100B20006F616465640A003B200020490020204D6D
:100B300033303420500020204D33303120500050CD
:100B400049442073657474696E67733A0020204DC0
:100B5000323036205800486F6D65206F66667365C9
:100B6000743A00204A0020204D32303520420041A6
:100B70006476616E6365643A20423C6D696E5F73B2
:100B800065676D656E745F74696D655F75733E2032
:100B9000533C6D696E5F66656564726174653E2085
:100BA000543C6D696E5F74726176656C5F666565F5
:100BB00064726174653E204A3C6A756E635F646569
:100BC000763E0020204D3230342050004163636572
:100BD0006C65726174696F6E2028756E6974732F0D
:100BE0007332293A20503C7072696E745F6163639E
:100BF000656C3E20523C726574726163745F616320
:100C000063656C3E20543C74726176656C5F616311
:100C100063656C3E0020204D3230312058004D611C
:100C200078696D756D20416363656C657261746987
:100C30006F6E2028756E6974732F7332293A002005
:100C4000204D3230332058004D6178696D756D202C
:100C50006665656472617465732028756E69747366
:100C60002F73293A00537465707320706572207574
:100C70006E69743A0020204D3230302044300A0032
:100C800020204D3230302044002044697361626C72
:100C900065640A0046696C616D656E7420736574E5
:100CA00074696E67733A0020286D6D290020204713
:100CB0003231202020203B20556E69747320696EEC
:100CC000206D6D006F70656E005452494747455264
:100CD0004544007A5F6D617800795F6D696E0078D8
:100CE0005F6D6178005265706F7274696E67206520
:100CF0006E6473746F70207374617475730A005737
:100D000061726E696E673A20486F6D696E67204246
:100D1000756D702044697669736F72203C20310ACA
:100D20000020436F756E7420583A00626564002C91
:100D30002073797374656D2073746F7070656421AE
:100D4000204865617465725F49443A2000507269B9
:100D50006E7465722068616C7465642E206B696CBA
:100D60006C28292063616C6C6564210A00457272ED
:100D70003A204D415854454D50004D415854454D31
:100D80005020747269676765726564004572723AD3
:100D9000204D494E54454D50004D494E54454D50FF
:100DA00020747269676765726564000A0A00202012
:100DB0005A5F4D41583A002020595F4D494E3A0044
:100DC0002020585F4D41583A00202F002042403AE1
:100DD0000020403A002020506C616E6E65724275B2
:100DE0006666657242797465733A200020467265C2
:100DF00065204D656D6F72793A2000436F6D7069A3
:100E00006C65643A204175672031342032303234C9
:100E10000A00204C61737420557064617465643AF3
:100E200020323032302D30332D3234207C20417549
:100E300074686F723A20286E6F6E652C2064656648
:100E400061756C7420636F6E666967290A00322EC3
:100E5000302E352E320A004D61726C696E002053BF
:100E60006F6674776172652052657365740A00203D
:100E70005761746368646F672052657365740A0014
:100E80002042726F776E206F75742052657365749F
:100E90000A002045787465726E616C205265736536
:100EA000740A00506F77657255700A00656E64733E
:100EB000746F7073206869743A20006F6B0043612F
:100EC0007365206C696768743A206F6E0A0043612D
:100ED0007365206C696768743A206F66660A00451E
:100EE0004550524F4D2064697361626C65640A001D
:100EF000546F6F206661722066726F6D2072656636
:100F00006572656E636520706F696E740A00206497
:100F10006174613A002062797465733A003A206620
:100F2000726F6D3A006932632D7265706C790042A0
:100F300061642069326320726571756573740A009B
:100F40004261642049324320616464726573732096
:100F500028382D313237290A0020643A0020693AB6
:100F60000020703A00496E76616C6964206578747F
:100F700072756465720A0020466C6F773A200046ED
:100F8000523A0020204D61783A200020204D696EB1
:100F90003A2000536F667420656E6473746F7073CB
:100FA0003A20003F4A206F7574206F662072616E90
:100FB00067652028302E303120746F20302E332981
:100FC0000A00205400205200416363656C65726121
:100FD00074696F6E3A2050002F2F20004348414D16
:100FE0004245525F54454D5045524154555245007B
:100FF0004D4F54494F4E5F4D4F4445530054484563
:10100000524D414C5F50524F54454354494F4E004E
:101010004155544F5245504F52545F53445F5354BF
:10102000415455530050524F4D50545F53555050FA
:101030004F525400454D455247454E43595F50412C
:101040005253455200434153455F4C494748545F12
:101050004252494748544E45535300544F47474C1A
:10106000455F4C494748545300534F4654574152EB
:10107000455F504F574552004255494C445F5045DB
:101080005243454E54004C4556454C494E475F44EB
:10109000415441005A5F50524F4245004155544F10
:1010A0004C4556454C005052494E545F4A4F420001
:1010B00050524F4752455353004155544F5245509B
:1010C0004F52545F54454D5000564F4C554D45546A
:1010D00052494300454550524F4D0042494E4152FE
:1010E000595F46494C455F5452414E534645520064
:1010F00053455249414C5F584F4E5F584F4646004A
:101100004649524D574152455F4E414D453A4D611A
:10111000726C696E20322E302E352E3220284769AF
:10112000744875622920534F555243455F434F44DD
:10113000455F55524C3A68747470733A2F2F676943
:10114000746875622E636F6D2F4D61726C696E46A7
:1011500069726D776172652F4D61726C696E205096
:10116000524F544F434F4C5F56455253494F4E3A9E
:10117000312E30204D414348494E455F545950452A
:101180003A3344205072696E746572204558545247
:10119000554445525F434F554E543A3120555549B9
:1011A000443A63656465326132662D343161322DB3
:1011B000343734382D396231322D63353563363268
:1011C0006633363766660A0020573A004D313133B0
:1011D0002053006F66660044454255473A005072FE
:1011E0006F7465637465642050696E0A00496E7699
:1011F000616C69642050696E204D6F64650A00253A
:10120000697920256964202569682025696D202574
:101210006973005072696E742074696D653A2000BC
:1012200048323A0054323A004672657175656E6311
:10123000792073686F756C642062652065717561D3
:101240006C206F72206C657373207468616E3A0055
:10125000506C6561736520496E73657274207468A3
:1012600065206672657175656E63792077616E744D
:1012700065640A000950723A200050733A20005009
:101280006C6561736520496E73657274207468655E
:101290002070726573737572652077616E74656412
:1012A0000A0020483A00543A00466F7263655B4E6C
:1012B0005D3A0050726573737572655B7073695D3A
:1012C0003A00526177446174613A004D6173735B17
:1012D00067725D3A0020746F6F206C6F6E672065D7
:1012E0007874727573696F6E2070726576656E744E
:1012F00065640A00486F6D6520257325732573208A
:10130000466972737400220A00556E6B6E6F776EB9
:1013100020636F6D6D616E643A202200205A3A009E
:1013200020593A00204500205A00205900204D390C
:101330003220580070012C0190012701B0012201D8
:10134000C0011D01F00118011002130130020E014D
:101350006002090190020401C002FF000003FA00CC
:101360004003F5008003F000D003EB002004E6000A
:101370007004E100E004DC004005D700C005D200A5
:101380004006CD00D006C8008007C3003008BE006C
:10139000F008B900C009B400B00AAF00B00BAA0051
:1013A000D00CA500000EA000500F9B00C0109600AE
:1013B0005012910000148C00C0158700B0178200F5
:1013C000B0197D00D01B7800001E730040206E0015
:1013D00090226900F024640040275F0090295A00A1
:1013E000E02B5500102E500020304B0010324600EC
:1013F000E033410090353C00103737007038320040
:10140000A0392D00B03A2800A03B2300603C1E000C
:10141000103D1900903D1400103E0F00703E0A0070
:10142000C03E0500003F0000403FFBFF803FF6FF4D
:10143000C03FF1FF5406102F50114F2C0B0C0A30F7
:10144000083507174418FF431709000147004800F3
:10145000000088008A008C00B300B40000009800EF
:101460009A009C00A800AA00AC0028012A012C01C7
:10147000440045006E00800081006F00B000B100A4
:101480007000900091007100A000A1007200200186
:1014900021017300E6050001E1050101D4053201D7
:1014A000C7053301BB053401B0053501A6050501AB
:1014B000970529018C05280181052A0176052C0153
:1014C0006B0535015D0507015105080147052C0134
:1014D0003C0522012E051E01220524011A050901E1
:1014E0000D051801FE041701F6040D01E704420181
:1014F000D8053201CB053301D9041801CC041701FA
:10150000BF040901BF053401BA043501AF040B0162
:10151000A4040601990405018E040401EF043501B9
:1015200084040601770410016D042F016204540144
:1015300057042F014D04110140044F0136042C01C2
:101540002B04500120042C0116040C0109040A018B
:10155000FF033001F4030B01E903300100000243F3
:101560000000484300009643000000000000000017
:101570000000000000009643000096430000A040D9
:101580000000A0400000C8420000C8420000C8435C
:101590000000C844B80B0000B80B00002C0100008C
:1015A00010270000ABAAA642ABAAA642555585411A
:1015B0000202020000A0400000A0400000803F2482
:1015C000F4D43050C38E20C2A24017828B70111207
:1015D0007A910D816CD90AA861E108C75866076144
:1015E0005143061E4B5D05C145A7041A411104096C
:1015F0003D9803713931034036DB0265339102D4E3
:10160000305402802E1D02632CEE01752AC501B0F4
:1016100028A001102781018F2564012B244B01E0B4
:10162000223401AC211F018D200D01801FFC00849C
:101630001EED00971DDF00B81CD200E61BC600207F
:101640001BBC00641AB200B219A8000A19A0006AF3
:10165000189900D117910040178B00B516840031FE
:10166000167E00B31579003A157300C7146F005841
:10167000146A00EE1366008813630025135E00C72A
:10168000125B006C12570015125400C1115100700A
:10169000114F0021114B00D61049008D1047004614
:1016A00010440002104200C00F4000800F3E004274
:1016B0000F3C00060F3B00CB0E3800930E37005C4A
:1016C0000E3500270E3400F30D3200C10D310090AD
:1016D0000D3000600D2E00320D2D00050D2C00D9AF
:1016E0000C2B00AE0C2900850C29005C0C27003562
:1016F0000C27000E0C2600E80B2400C40B2400A0CD
:101700000B23007D0B23005A0B2100390B210018FD
:101710000B2000F80A1F00D90A1E00BB0A1E009DFC
:101720000A1D00800A1D00630A1C00470A1B002CCA
:101730000A1B00110A1A00F7091A00DD091900C472
:10174000091900AB091900920917007B09180063F9
:101750000917004C09160036091600200916000A60
:10176000091500F5081500E0081400CC081400B8AD
:10177000081400A4081400900813007D0812006BE0
:1017800008130058081200460812003408110023FC
:101790000811001208110001081100F0071000E004
:1017A000071000D0071000C0071000B0070F00A1FD
:1017B00007100091070E0083070F0074070F0065E4
:1017C000070E0057070E0049070E003B070D002EBD
:1017D000070E0020070D0013070D0006070D00F986
:1017E000060C00ED060D00E0060C00D4060C00C847
:1017F000060C00BC060C00B0060C00A4060B0099F9
:10180000060C008D060B0082060B0077060B006CA1
:10181000060B0061060A0057060B004C060A004240
:10182000060A0038060A002E060A0024060A001AD4
:10183000060A001006090007060A00FD050900F463
:10184000050900EB050900E2050900D9050900D0EA
:10185000050900C7050900BE050900B5050800AD6A
:10186000050800A50509009C050800940508008CE2
:10187000050800840508007C050800740508006C54
:10188000050700650508005D050700560508004EC0
:101890000507004705070040050800380507003127
:1018A0000507002A050700230507001C050600168A
:1018B0000507000F0507000805060002050700FBE5
:1018C000040600F5040700EE040600E8040600E242
:1018D000040700DB040600D5040600CF040600C997
:1018E000040600C3040600BD040600B7040600B1E8
:1018F000040500AC040600A6040600A00405009B35
:1019000004060095040500900406008A040500857D
:10191000040500800406007A0405007504050070C3
:101920000405006B04050066040500610405005C05
:1019300004050057040500520405004D0405004845
:10194000040500430405003E0404003A0405003584
:10195000040500300404002C0405002704040023BF
:101960000405001E0404001A0404001604050011F6
:101970000404000D0404000904050004040400002C
:10198000040400FC030400F8030400F4030400F062
:10199000030400EC030400E8030400E4030400E093
:1019A000030400DC030400D8030400D4030400D0C3
:1019B000030400CC030400C8030300C50303002490
:1019C000F404D9201BC40C5C0E9804C4095F0265A2
:1019D000077101F405F900FB04B30048048700C156
:1019E0000369005803550003034500BE023A008412
:1019F00002310053022A002902250004022000E4DB
:101A0000011C00C8011900AF0117009801140084DF
:101A1000011300710110006101100051010E00431B
:101A2000010D0036010B002B010B0020010B0015EE
:101A30000109000C01090003010800FB000800F384
:101A4000000800EB000700E4000600DE000600D8F6
:101A5000000600D2000600CC000500C7000500C249
:101A6000000500BD000400B9000400B5000400B189
:101A7000000400AD000400A9000400A5000300A2BA
:101A80000003009F0004009B0003009800030095E2
:101A900000020093000300900003008D0002008B01
:101AA0000003008800020086000200840003008119
:101AB0000002007F0002007D0002007B000200792E
:101AC000000200770001007600020074000200723C
:101AD000000100710002006F0002006D0001006C47
:101AE0000002006A00010069000200670001006650
:101AF0000001006500010064000200620001006155
:101B0000000100600001005F0002005D0001005C58
:101B10000001005B0001005A00010059000100585B
:101B2000000100570001005600010055000100545B
:101B30000001005300000053000100520001005159
:101B4000000100500001004F0001004E0000004E57
:101B50000001004D0001004C0001004B0000004B53
:101B60000001004A0001004900010048000000484F
:101B7000000100470001004600000046000100454A
:101B80000000004500010044000100430000004344
:101B9000000100420000004200010041000000413D
:101BA000000100400001003F0000003F0001003E36
:101BB0000000003E0001003D0000003D0001003C2F
:101BC0000000003C0000003C0001003B0000003B26
:101BD0000001003A0000003A00010039000000391D
:101BE0000001003800000038000000380001003714
:101BF000000000370001003600000036000000360B
:101C000000010035000000350000003500010034FF
:101C100000000034000000340001003300000033F5
:101C200000000033000100320000003200000032EA
:101C300000010031000000310000003100010030DF
:101C400000000030000000300001002F0000002FD5
:101C50000000002F0000002F0001002E0000002EC9
:101C60000000002E0001002D0000002D0000002DBE
:101C70000000002D0001002C0000002C0000002CB2
:101C80000000002C0001002B0000002B0000002BA6
:101C90000000002B0001002A0000002A0000002A9A
:101CA0000000002A0001002900000029000000298E
:101CB0000000002900000029000100280000002881
:101CC0000000002800000028000000280001002774
:101CD0000000002700000027000000270000002768
:101CE000000100260000002600000026000000265B
:101CF000000000260001002500000025000000254E
:101D0000000000250000002500000025000100243F
:101D10000000002400000024000000240000002433
:101D20000001002300000023000000230000002326
:101D30000000002300000023000000230001002217
:101D4000000000220000002200000022000000220B
:101D500000000022000100210000002100000021FD
:101D600000000021000000210000002100000021EF
:101D700000010020000000200000002000000020E2
:101D800000000020000000200000002000000020D3
:101D90000001001F0000001F0000001F0000001FC6
:101DA0000000001F0000001F0000001F0001001EB7
:101DB0000000001E0000001E0000001E00000004C5
:101DC0003700001E290000511B00005810000010B1
:101DD000090000CC0400007802000041010000105E
:101DE00000AA03F0013A019002220130031001D051
:101DF0000302017004F7001005ED00B005E5005086
:101E000006DD00F006D7009007D1003008CC00D0E6
:101E100008C7007009C300100ABE00B00ABB00501A
:101E20000BB700F00BB300900CB000D00DAA00105F
:101E30000FA5005010A00090119B00D0129600B08A
:101E400014900090168B0070188500501A80003096
:101E50001C7B00B01E750030216F00B0236900307C
:101E600026640010285F00902A5A00702C5500F05C
:101E70002E4F0070314800B0324500F03341007001
:101E8000363900103737005038330090392D00D0E4
:101E90003A2700B03C1C00503D1700F03D11009067
:101EA0003E0900D03FE5FF00002100240027002A62
:101EB000002D003000330001010000040107010A79
:101EC00001000020002300260029002C002F0032F2
:101ED000000001000003010601090100000A0B02D5
:101EE000090C0D0E080703040100000000000000AB
:101EF00000000000000000000000000000000000E2
:101F0000000000000000001211100000000000009E
:101F100000000000000000000000000000000000C1
:101F20000001FF0100000243000000000000964392
:101F30000C0607060006F905EB0500002200250047
:101F400028002B002E0031003400020100000501A2
:101F500008010B0105050505070508080808020228
:101F600002020A0A08080404040401010101010133
:101F700001010303030303030303040707070C0C16
:101F80000C0C0C0C0C0C02020202060606060606DD
:101F900006060B0B0B0B0B0B0B0B01021020200882
:101FA00008102040102040800201020108040201B4
:101FB0000102040810204080804020100804020123
:101FC000800402018040201008040201080402017C
:101FD0000102040810204080010204081020408003
:101FE0000879747E11241FBECFEFD1E2DEBFCDBFD2
:101FF00000E00CBF12E0A0E0B2E0E2E9FBE101E0AA
:102000000BBF02C007900D92A03EB107D9F72DE09B
:10201000A0EEB2E001C01D92AD34B207E1F71FE0BF
:10202000C1EFDFE000E006C021970109802FFE012B
:102030000E94848AC03FD10780E00807A9F70E9468
:10204000557A0C94B78D0C94000008950895CF92A2
:10205000DF92EF92FF921F93CF93DF93EC018E817B
:102060008C3009F44DC038F48B30E1F060E070E062
:1020700080EC9FE73DC085518230C0F71A81612F07
:1020800070E0762F662766277F778B81682B90E03C
:1020900080E00E94D8832DEC3CEC4CEC5DE30E9488
:1020A000398448C06A8170E090E080E00E94D88363
:1020B0006B017C01CB81C7FF0AC0AC019B0160E0D2
:1020C00070E080E89FEB0E948C8A6B017C01CF70EE
:1020D0006C2F70E090E080E00E94DA832DEC3CEC05
:1020E0004CEC5DE30E943984A70196010E948D8A21
:1020F000DF91CF911F91FF90EF90DF90CF900895E7
:102100001A81612F70E090E080E00E94D8836B011B
:102110007C016B816F7070E090E080E00E94DA8358
:102120002DEC3CEC4CEC5DE30E943984A701960158
:102130000E948D8A17FFDCCF9058DACF8091AB0CCC
:102140009091AC0C891B990B08958150823108F055
:102150005AC0E82FF0E08827EF54FF4E8F4F0C94C1
:10216000848AD110D510C310C910CD100311D81016
:10217000DE10E210E810EC10F010F610FA10031167
:10218000FE1004110811809180008F7780938000E9
:102190000895809180008F7DF9CF80918000877FA6
:1021A000F5CF84B58F7784BD089584B58F7DFBCF3F
:1021B0008091B0008F778093B00008958091B00037
:1021C0008F7DF9CF809190008F7780939000089554
:1021D000809190008F7DF9CF80919000877FF5CF1F
:1021E0008091A0008F778093A00008958091A00037
:1021F0008F7DF9CF8091A000877FF5CF809120015E
:102200008F77809320010895809120018F7DF9CFF1
:1022100080912001877FF5CFCF93DF93282F30E087
:10222000F901E552F14E8491F901E656F04ED49150
:10223000F901EC5AF04EC491CC23A1F081110E9417
:10224000A510EC2FF0E0EE0FFF1FEF53F14EA5911C
:10225000B491EC91ED2381E090E009F480E0DF910E
:10226000CF91089580E090E0FACF1F93CF93DF9352
:10227000282F30E0F901E552F14E8491F901E6563C
:10228000F04ED491F901EC5AF04EC491CC23A9F050
:10229000162F81110E94A510EC2FF0E0EE0FFF1F0A
:1022A000E65CF04EA591B4918FB7F894EC911111C2
:1022B00008C0D095DE23DC938FBFDF91CF911F91B3
:1022C0000895DE2BF8CFCF93DF9390E0FC01E65624
:1022D000F04E24918C5A904EFC0184918823C9F0D1
:1022E00090E0880F991FFC01E955F14EA591B4913A
:1022F000FC01E65CF04EC591D49161110DC09FB711
:10230000F8948C91209582238C93888128232883AC
:102310009FBFDF91CF910895623051F49FB7F89439
:102320003C91822F809583238C93E8812E2BEFCFD5
:102330008FB7F894EC912E2B2C938FBFEACF1F937D
:10234000CF93DF93182FEB0161E00E946311209778
:1023500039F460E0812FDF91CF911F910C943511FA
:10236000CF3FD10511F461E0F5CFE12FF0E0E55268
:10237000F14EE491E150E23108F0B3C0F0E088277B
:10238000EB53FE4E8F4F0C94848AD711DF11E4116A
:10239000EE11F811711202120A1212121C122612F8
:1023A00030123F124912711253125D12671284B536
:1023B000806884BDC7BDDF91CF911F91089584B51A
:1023C000806284BDC8BDF7CF809180008068809313
:1023D0008000D0938900C0938800EDCF8091800069
:1023E000806280938000D0938B00C0938A00E3CFFB
:1023F00080918000886080938000D0938D00C0938E
:102400008C00D9CF8091B00080688093B000C093D9
:10241000B300D1CF8091B00080628093B000C093B0
:10242000B400C9CF80919000806880939000D093D1
:102430009900C0939800BFCF8091900080628093F4
:102440009000D0939B00C0939A00B5CF80919000EC
:10245000886080939000D0939D00C0939C00ABCF88
:102460008091A00080688093A0008091A0008F7B65
:102470008093A000D093A900C093A8009CCF809126
:10248000A00080628093A000D093AB00C093AA000C
:1024900092CF8091A00088608093A000D093AD007F
:1024A000C093AC0088CF8091200180688093200188
:1024B000D0932901C09328017ECF809120018062B2
:1024C00080932001D0932B01C0932A0174CF809177
:1024D0002001886080932001D0932D01C0932C01AE
:1024E0006ACFC038D1050CF03ECF33CFCF93DF9306
:1024F000C9EBDCE01A8260E088810E94351170E04F
:1025000060E08881DF91CF910C949F11863308F0B1
:10251000865320917B00982F9870277F922B909361
:102520007B008770806480937C0080917A00806457
:1025300080937A0080917A0086FDFCCF80917800AC
:102540009091790008958230910538F0880F991F95
:10255000880F991F05970197F1F708953FB7F894F1
:1025600080917D0690917E06A0917F06B0918006B5
:1025700026B5A89B05C02F3F19F00196A11DB11DDE
:102580003FBFBA2FA92F982F8827BC01CD01620F1A
:10259000711D811D911D42E0660F771F881F991FD5
:1025A0004A95D1F708958F929F92AF92BF92CF92A2
:1025B000DF92EF92FF926B017C010E94AE124B0101
:1025C0005C01C114D104E104F104B9F00E94AE121F
:1025D000681979098A099B09683E7340810591054C
:1025E00080F321E0C21AD108E108F10888EE880ED4
:1025F00083E0981EA11CB11CE4CFFF90EF90DF9008
:10260000CF90BF90AF909F908F9008952FB7F89480
:102610006091790670917A0680917B0690917C0694
:102620002FBF0895CF93DF93C9EBDCE081E08A836D
:1026300061E088810E9435116FEF70E088810E940F
:102640009F110E940613AB01BC018F819885092E52
:10265000000CAA0BBB0B840F951FA61FB71F8B8303
:102660009C83AD83BE83DF91CF910895CF92DF929B
:10267000EF92FF92CF93DF93DC011796CC911797DF
:10268000D0E06111DC2F18962C91189730E0220FC2
:10269000331F2F53314E50E040E0F9018591949162
:1026A000FC01F080BA0190E080E0EF2DEC23ED1307
:1026B00010C04F5F5F4F1D96CD90DD90ED90FC9068
:1026C00050976C157D058E059F0538F36FEF7FEFF2
:1026D000CB01DF91CF91FF90EF90DF90CF900895E5
:1026E0008F929F92AF92BF92CF92DF92EF92FF9222
:1026F0000F931F93CF93DF93CDB7DEB7C054D14074
:102700000FB6F894DEBF0FBECDBF8C01F62E0E942F
:102710000613F11029C0F801C184D284E384F48443
:102720009B01AC012C193D094E095F0969017A0131
:1027300030EDC31637E0D306E104F104A8F4818933
:10274000C05CDE4F0FB6F894DEBF0FBECDBFDF9189
:10275000CF911F910F91FF90EF90DF90CF90BF909E
:10276000AF909F908F900895F8016187728783875B
:1027700094871482138212821182108262E0858112
:102780000E94631161E070E080E090E00E94D3124B
:1027900061E0F80185810E94631160E0F8018581A4
:1027A0000E943511F801868185518230E8F48BE270
:1027B00091E10197F1F762E0F80185810E946311D0
:1027C000F801828990E00E94A312F89460E0C801A9
:1027D0000E9436136F3F7F4F8F4F9F4F61F4F80178
:1027E000118A789480E0ACCF64E170E080E090E002
:1027F0000E94D312E0CF61E0C8010E9436136F3F00
:102800007F4F8F4F9F4F59F39E012F5F3F4F7901AD
:102810005E013FEBA31A3EEFB30A670160E0C80117
:102820000E943613F601608371838283938361E093
:10283000C8010E943613F6016483758386839783EB
:10284000F8E0CF0ED11CCA14DB0441F7789430E0D5
:1028500020E0F70180809180A280B380448155817F
:1028600066817781FFEF8F169F06AF06BF0631F0B6
:102870004F3F8FEF58076807780719F4F801118A5E
:10288000B1CFF90183E0F595E7958A95E1F7E00F7F
:10289000F11F8081880F84169506A606B706F0F012
:1028A00080832F5F3F4FF8E0EF0EF11C2832310597
:1028B00081F6F801448120818181280F3327331F5D
:1028C0008281280F311D8381820F932F911D9927BB
:1028D0004817190699F681E0818B32CF8160E0CFED
:1028E000CF92DF92EF92FF92CF93DF93EC0161E002
:1028F0000E947013882341F08E818B3028F08D3038
:1029000040F08551823030F160E070E080EC9FE76C
:102910001AC0698170E090E080E00E94DA832DECBB
:102920003CEC4CEC5DE30E9439846B017C016881D6
:1029300070E090E080E00E94DA839B01AC01C70167
:10294000B6010E948D8ADF91CF91FF90EF90DF90CA
:10295000CF9008956881798176276727762790E060
:1029600080E00E94D8832DEC3CEC4CEC5DE30E94AF
:102970003984E9CF2091CD04260F3327331F21322C
:102980003105ECF420916B0CFC0190E080E02430E8
:1029900069F082E00895A091CD042191AC014355E6
:1029A0005B4FA40FB52FB11D2C930196861798F39A
:1029B0008091CD04680F6093CD0480E0089581E09C
:1029C000089510926B0C81E080934A0C1092450C94
:1029D00061E084E10E94351161E085E10E943511DA
:1029E000E9EBF0E080818E7F808380818D7F808322
:1029F00088E48093B80085E48093BC000895CF9369
:102A0000DF9391E09093AC048823B9F0C091B800B3
:102A1000D091BA008091BC008A7B8093BC0060E0BA
:102A200084E10E94351160E085E10E9435110E9429
:102A3000E114D093BA00C093B800DF91CF9108950C
:102A4000CF92DF92EF92FF920F931F93CF93DF937A
:102A5000D82FC62F613208F098C00E94AE126B01C9
:102A60007C0180916B0C81116BC081E080936B0CB9
:102A700080934A0C9FEF9093490C1092480C9C0F46
:102A80009093470C8093460C8091460CDD0FD82B19
:102A9000D093460C8091450C813009F078C010929B
:102AA000450C0E94AE126B017C018091460C809314
:102AB000BB0080916D0C90916E0CA0916F0CB09149
:102AC000700C892B8A2B8B2BA1F00E94AE120091E7
:102AD0006D0C10916E0C20916F0C3091700C6C1974
:102AE0007D098E099F09061717072807390708F47B
:102AF00048C08091BC0083FDD8CF85EC8093BC009A
:102B00000E94AE126B017C0180916B0C813009F444
:102B100040C08091480C8C1710F4C091480CE5E23D
:102B2000FCE0ABE4BCE080E08C1355C08C2FDF915F
:102B3000CF911F910F91FF90EF90DF90CF9008956C
:102B400080916D0C90916E0CA0916F0CB091700CF7
:102B5000892B8A2B8B2B09F484CF0E94AE12009113
:102B60006D0C10916E0C20916F0C3091700C6C19E3
:102B70007D098E099F09061717072807390708F0EE
:102B800070CF80916C0C0E94FF14C0E0CFCF85EE17
:102B9000B5CF80916D0C90916E0CA0916F0CB0919F
:102BA000700C892B8A2B8B2B09F4AECF0E94AE12AE
:102BB00000916D0C10916E0C20916F0C3091700C87
:102BC0006C197D098E099F09061717072807390711
:102BD00008F09ACFD6CF91919D938F5FA5CF08959E
:102BE000E091AC0C8091AB0CE81730F4F0E0E55BC1
:102BF000F34F808190E008958FEF9FEF08959091BB
:102C0000AC0C8091AB0C2FEF3FEF981748F4E92FF5
:102C1000F0E0E55BF34F208130E09F5F9093AC0CD8
:102C2000C9010895CF92DF92EF92FF920F931F9305
:102C3000CF93DF937C01CB018A012091A40622234C
:102C400089F0EB016B01C40ED51ECC15DD0569F0D2
:102C50006991D701ED91FC910190F081E02DC701C0
:102C60001995F3CF642F0E94BA14C801DF91CF9158
:102C70001F910F91FF90EF90DF90CF900895CF9329
:102C8000DF931F92CDB7DEB769832091A40622237C
:102C9000F9F02091A90C203258F021E030E0FC013D
:102CA0003383228390E080E00F90DF91CF910895ED
:102CB0008091AA0CE82FF0E0ED57F94F99819083AD
:102CC0008F5F8093AA0C8093A90C81E090E0ECCFF9
:102CD00061E0CE0101960E94BA14F7CF90E080E047
:102CE00008958091E6069091E7068635910554F4A3
:102CF00081E02091CF063091D006263031051CF4BA
:102D000080E0089581E00895809134029091350229
:102D10000F971816190614F490E080E09093E706D8
:102D20008093E6061092D0061092CF061092E80625
:102D300012981092D106119808958F929F92AF9297
:102D4000BF92CF92DF92EF92FF920F931F93CF9398
:102D5000DF93B2E3A0E06A2F70E0AB014B0F511D8F
:102D600055954795411119C0E1EEFDE165917491CA
:102D7000072E000C880B990B0E94DA83DF91CF910C
:102D80001F910F91FF90EF90DF90CF90BF90AF9089
:102D90009F908F900895B42FE0CFA41711F0B41333
:102DA00003C0E5EAFEE1E2CF9A0121503109220F8A
:102DB000331F220F331FF901E152F24EE590F490D8
:102DC000F901ED51F24EC591D4918E159F051CF37A
:102DD000A42FC817D9070CF4BECFF901EF51F24E5A
:102DE00005911491F901EB51F24EC590D490BC01BC
:102DF0006E197F09072E000C880B990B0E94DA834D
:102E00004B015C01B601601B710B072E000C880B97
:102E1000990B0E94DA839B01AC01C501B4010E94A9
:102E200039844B015C01BE016E197F09072E000C2D
:102E3000880B990B0E94DA839B01AC01C501B40198
:102E40000E94878B6B017C01B801110F880B990BD5
:102E50000E94DA839B01AC01C701B6010E948D8AF2
:102E60008DCFBC0120915104309152044091510406
:102E7000509152042417350731F481E026173707A3
:102E800009F080E008959A01F1CF000000000000F1
:102E90008091F20480FF2EC080910201887080939F
:102EA00000018FEF809307048091F204869580FFE4
:102EB00029C0809102018170809300018FEF80937F
:102EC00008048091F2048695869580FF23C02E9A8F
:102ED0008FEF809309048091F204869586958695FC
:102EE00080FF1BC0289A8FEF80930A040000000027
:102EF0000000089580910201809588708093000100
:102F000081E0D0CF80910201809581708093000193
:102F100081E0D5CF2E9881E0DCCF289881E0E4CF06
:102F2000AF92BF92CF92DF92EF92FF920F931F93D7
:102F3000CF93DF93C7EDDBE00FE417E087EEA82E19
:102F40008BE0B82EC12CD12C7601C3946991799174
:102F5000899199910E94D883288939894A895B8906
:102F60000E9439840E94008CF801619371938193CF
:102F700091938F01C616D706E806F90610F46B0187
:102F80007C01AC16BD0611F76FEF7FEFCB01A701F7
:102F900096010E94018A20935F0730936007409357
:102FA000610750936207DF91CF911F910F91FF90BE
:102FB000EF90DF90CF90BF90AF900895CF92DF92C7
:102FC000EF92FF928091B906882309F457C0C09010
:102FD000B506D090B606E090B706F090B80620E0AF
:102FE00030E0A901C701B6010E94D383882309F408
:102FF00045C020E030E040E05FE3C701B6010E9439
:1030000039849B01AC010E9439842BED3FE049E4F7
:1030100050E40E9439849B01AC0160E070E080E8DC
:103020009FE30E94878B6B017C01C092A506D09222
:10303000A606E092A706F092A80660910D02709194
:103040000E02072E000C880B990B0E94DA832AE0EF
:1030500037ED43E25CE30E943984A70196010E94A8
:10306000398460935002709351028093520290937E
:103070005302FF90EF90DF90CF900895C12CD12C98
:1030800080E8E82E8FE3F82ED0CF8091740C9091D9
:10309000750C891B8F7019F490E080E00895909171
:1030A000710C992351F0833030F48FEF890F19F0B0
:1030B0008093710CF1CF1092710C8091750C26E405
:1030C000829FC00111248C58984FFC01208120FD63
:1030D000E3CF2091750C2F5F2F702093720C3091ED
:1030E000750C2091730C321304C02091720C209344
:1030F000730C089590916F0081E091FD02C080E013
:10310000089590916F009D7F90936F000895EFE672
:10311000F0E08081826080830895CF93C82F0E9461
:103120007A1894E0C99F90011124F901EC5AFB4FE1
:10313000205A3B4FD9014D915D916D917C91408317
:1031400051836283738391E090935304882319F031
:10315000CF910C948718CF910895CF92DF92EF9280
:10316000FF92CF93DF93C82F0E947A1894E0C99FF3
:10317000E0011124FE01E05AFB4FC080D180E280C3
:10318000F38081110E948718CC59D84FC701B6012E
:103190000E94DA83288139814A815B810E943984C7
:1031A000DF91CF91FF90EF90DF90CF900895CF9275
:1031B000DF92EF92FF92CF93DF93C82F0E947A188D
:1031C00094E0C99FE0011124FE01EC5AFB4FC0803E
:1031D000D180E280F38081110E948718CC59D84FAA
:1031E000C701B6010E94DA83288139814A815B8157
:1031F0000E943984DF91CF91FF90EF90DF90CF90C4
:103200000895CF93DF9324E0829FC0011124EC0145
:10321000C15DD84FFC01E755F94F8F5F984FDC0136
:103220002D913D914D915C9160817181828193815D
:103230000E948D8A688379838A839B83DF91CF91F3
:103240000895CF92DF92EF92FF921F93CF93DF9377
:1032500020910F02222309F48DC0EC0110912C075C
:1032600010FF2CC0C0901002D0901102E09012020A
:10327000F0901302288139814A815B81C701B60130
:103280000E94ED8C181624F4C882D982EA82FB824F
:10329000C0901C02D0901D02E0901E02F0901F0210
:1032A000288139814A815B81C701B6010E94D3839D
:1032B00087FF04C0C882D982EA82FB8211FF2CC03A
:1032C000C0901402D0901502E0901602F090170200
:1032D0002C813D814E815F81C701B6010E94ED8C3A
:1032E000181624F4CC82DD82EE82FF82C090200288
:1032F000D0902102E0902202F09023022C813D81A7
:103300004E815F81C701B6010E94D38387FF04C04D
:10331000CC82DD82EE82FF8212FF2CC0C0901802A8
:10332000D0901902E0901A02F0901B02288539858E
:103330004A855B85C701B6010E94ED8C181624F4FE
:10334000C886D986EA86FB86C0902402D0902502E2
:10335000E0902602F0902702288539854A855B8512
:10336000C701B6010E94D38387FF04C0C886D986EF
:10337000EA86FB86DF91CF911F91FF90EF90DF905F
:10338000CF900895CF92DF92EF92FF92CF93DF9389
:1033900081E00E94AD186B017C0180E00E94AD18B5
:1033A000CBEFD3E0688379838A839B83CC82DD82F1
:1033B000EE82FF8282E00E94AD18688779878A8753
:1033C0009B87DF91CF91FF90EF90DF90CF90089592
:1033D000CF92DF92EF92FF92909109018091FA03D0
:1033E00092FD64C080618093FA03909109018091FD
:1033F000FA0395FD5DC082608093FA039091090104
:103400008091FA0391FF56C080648093FA03C090C4
:103410004404C0FE10C08091F20480FD0CC0809175
:10342000FA0384FF08C08091770680618093770655
:1034300080E00E948D18D12CF12CE12CD701C6011F
:10344000B695A7959795879580FF11C08091F20456
:10345000869580FF0CC08091FA0381FF08C080919F
:10346000770682608093770681E00E948D1882E063
:10347000F694E794D794C7948A95D1F7C0FE1CC000
:103480008091F2048695869580FD16C08091FA039E
:1034900086FF12C08091770680648093770682E071
:1034A000FF90EF90DF90CF900C948D188F7E9BCF84
:1034B0008D7FA2CF8F7BA9CFFF90EF90DF90CF9031
:1034C00008950F931F938091F906813019F50E949A
:1034D00006130091F6031091F7032091F803309141
:1034E000F903601B710B820B930B28EE33E040E075
:1034F00050E00E94018A6091F2037091F303809181
:10350000F4039091F503620F731F841F951F1F91A1
:103510000F9108956091F5067091F6068091F70677
:103520009091F806D6CF1092F9061092F6031092F9
:10353000F7031092F8031092F9031092F506109217
:10354000F6061092F7061092F8061092F203109207
:10355000F3031092F4031092F50308958091F90695
:103560008130F1F08230C9F40E94611A6093F20355
:103570007093F3038093F4039093F50381E08093B9
:10358000F9060E9406136093F6037093F703809385
:10359000F8039093F90381E008950E94931AEECF07
:1035A00080E008958091F9068150823070F4109285
:1035B000F9060E9406136093F5067093F606809351
:1035C000F7069093F80681E0089580E00895282F8B
:1035D00090912707833021F495FD0FC094FD0FC013
:1035E000892F90E0B0E0A0E004C0B695A79597952C
:1035F00087952A95D2F78170089581E0089580E03B
:103600000895082E000C990BFC01EC5AF04EE49141
:10361000EE2391F0F0E0EE0FFF1FEF53F14EA59176
:10362000B4912C918656904EFC018491282381E020
:1036300090E021F480E0089580E090E00895082E65
:10364000000C990BFC01EC5AF04EE491F0E0EE0F07
:10365000FF1FE955F14EA591B4912C918656904EDD
:10366000FC018491822391E009F490E0892F089570
:103670002FEB280F2A3108F042C0E22FF0E08091B2
:10368000FA069091FB06A091FC06B091FD0604C0DD
:10369000B695A795979587952A95D2F780FD02C094
:1036A00081700895EA5AFC4FE081EE2329F1809160
:1036B0002D0790912E07E80FF92FF11D808190EDD5
:1036C000980F9A3030F08E3251F4818180538A30D5
:1036D00098F4F0935503E093540381E008958D32FC
:1036E00011F08B3249F4818190ED980F9A3088F374
:1036F0008E3211F48281EACFF0E0E0E0EACF80E0A0
:1037000008950E94381B882341F081E020915403E2
:1037100030915503232B09F480E00895909182069F
:1037200080910B02992321F0811102C0A098089585
:1037300020910C0220935303992311F08823B1F3B5
:103740008823A1F3A09A0895809102018095807149
:10375000809300010895809102018095827080938A
:103760000001809115078E7F80931507769A8091CE
:1037700015078D7F809315072C9A809115078B7FF5
:10378000809315070C94A41BC82F89EE93E030E6B4
:10379000019729F0232F2A950000E9F7F9CFF89433
:1037A00089EE93E038EE019729F0232F2A95000047
:1037B000E9F7F9CF0E948416CC2321F00E94AB1BBD
:1037C000A895FECF0E94A41BFBCF9091C00095FF4F
:1037D000FCCF8093C6000895CF93C82FC15020F02E
:1037E00080E20E94E51BFACFCF910895CF93DF933B
:1037F000EC01FE0184912196882319F00E94E51BBB
:10380000F8CFDF91CF910895CF93C82FCB010E94BD
:10381000F61B82E198E00E94F61B84EC9CE0CC232E
:1038200011F089EC9CE00E94F61B8AE0CF910C9489
:10383000E51B1F93CF93DF9385EE9CE00E94F61B60
:10384000C9E0D1E0888111E082FB882780F96FED23
:103850007CE081270E94041C888185FB882780F9F1
:1038600069ED7CE081270E94041C888163ED7CE087
:1038700086958170DF91CF911F910C94041CCF939A
:10388000DF93C82F88E598E00E94F61B0C2E000CF1
:10389000DD0BFE01EC5AF04E8491805C0E94E51B2A
:1038A000FE01E656F04EE49180E3E13021F0E6952A
:1038B0008F5F8933D1F7DF91CF910C94E51B0F9384
:1038C0001F93CF93DF938B010E94F61BE801899130
:1038D000882319F00E94E51BFACFDF91CF911F9149
:1038E0000F9108958DE897E00C94F61B87E897E018
:1038F0000C94F61B0E94761C60912D0770912E0788
:1039000089E093E10E945F1C86E093E10C94F61B32
:103910000F931F93CF93811113C0C42F8B010E946B
:10392000761C87E29BE00E94F61BC8010E94F61BF2
:10393000CC2331F08AE0CF911F910F910C94E51BBD
:10394000CF911F910F910895809170039091710311
:103950002FEF3FEF981751F0E92FF0E0E059FC4FBF
:10396000228130E09F5F9F7790937103C901089592
:10397000CF93DF9362E080911A0D0E942015109280
:10398000AC0C8093AB0C64E070E080E090E00E94AF
:10399000D3128DEA9CE00E94FF15D82F80E0C82F3B
:1039A0008DEA9CE00E94FF15BE01682B792B7F7386
:1039B000072E000C880B990B0E94DA83DF91CF91C0
:1039C00008954F925F926F927F92AF92BF92CF9283
:1039D000DF92EF92FF920F931F93CF93DF93C5E097
:1039E000D0E0C12CD12C76010E94B81C9B01AC0107
:1039F000C701B6010E948D8A6B017C012197A1F756
:103A000020E030E040EA50E40E94878B2B013C012B
:103A10000091120D1091130D5801E801CC0FDD1F1C
:103A2000CC0FDD1FC651D34FC12CD12C760181E0C4
:103A3000A81AB10824971A141B048CF4FE013497B9
:103A40002081318142815381288339834A835B837A
:103A5000C701B6010E948D8A6B017C01E8CFB801D5
:103A6000110F880B990B0E94DA839B01AC01C301F3
:103A7000B2010E94878B9B01AC012093EA0C30932A
:103A8000EB0C4093EC0C5093ED0C4090160D5090C5
:103A9000170D6090180D7090190DC701B6010E94A6
:103AA0008D8AA30192010E948C8A26EC3DEE41E3AF
:103AB00052E40E9439846B017C01A301920160E011
:103AC00070E08AE796E40E948C8A9B01AC01C701F2
:103AD000B6010E94878BDF91CF911F910F91FF90CC
:103AE000EF90DF90CF90BF90AF907F906F905F90FE
:103AF0004F900895CF93DF93C9E0D0E00E94E11C7E
:103B00002197E1F70E94E11C20E030E04DE952E40A
:103B10000E94878B2AEB39E041E153E40E9439840B
:103B2000DF91CF9108958F929F92AF92BF92CF92E3
:103B3000DF92EF92FF920F931F93CF93DF93B0E446
:103B4000A0E06A2F70E0AB014B0F511D55954795D2
:103B5000411119C0E6E3F3E165917491072E000C61
:103B6000880B990B0E94DA83DF91CF911F910F91FF
:103B7000FF90EF90DF90CF90BF90AF909F908F908D
:103B80000895B42FE0CF4A1711F0B41303C0E2E355
:103B9000F4E1E2CF9A0121503109220F331F220FA5
:103BA000331FF901EC5CFC4EE590F490F901E85C00
:103BB000FC4EC591D4918E159F051CF3A42FC817F8
:103BC000D9070CF4BECFF901EA5CFC4E05911491C3
:103BD000F901E65CFC4EC590D490BC016E197F09DA
:103BE000072E000C880B990B0E94DA834B015C01B5
:103BF000B601601B710B072E000C880B990B0E94FD
:103C0000DA839B01AC01C501B4010E9439844B01E8
:103C10005C01BE016E197F09072E000C880B990B01
:103C20000E94DA839B01AC01C501B4010E94878B1D
:103C30006B017C01B801110F880B990B0E94DA838C
:103C40009B01AC01C701B6010E948D8A8DCFCF9335
:103C5000DF93CEEDD6E08A819B810E94931D6C8319
:103C60007D838E839F83C7ECD6E08A819B810E94EF
:103C70009D166C837D838E839F83A89510929B04F1
:103C8000DF91CF9108952F923F924F925F926F9262
:103C90007F928F929F92AF92BF92CF92DF92EF92DC
:103CA000FF920F931F93CF93DF9300D000D000D0EB
:103CB0001F921F92CDB7DEB780919A04811171C017
:103CC00080919B04811119C02B960FB6F894DEBF2A
:103CD0000FBECDBFDF91CF911F910F91FF90EF905D
:103CE000DF90CF90BF90AF909F908F907F906F901C
:103CF0005F904F903F902F9008950E94271E0E9442
:103D00000613C090E206D090E306E090E406F0903F
:103D1000E5066091320270913302072E000C880B89
:103D2000990B0E94DA839B01AC01C701B6010E9486
:103D3000ED8C181694F46091340270913502072EC0
:103D4000000C880B990B0E94DA839B01AC01C70120
:103D5000B6010E94D38387FD2FC060E06093E80620
:103D60004090CB065090CC066090CD067090CE0669
:103D700020E030E040EA50E4C301B2010E94ED8C43
:103D800087FD0BC020E030E042E053E4C301B20104
:103D90000E94D38318160CF00EC160E06093D10628
:103DA00093CF0E9484160E94721C8DE49DE00E94B5
:103DB000F61B81E00E94C41B6091E6067091E70645
:103DC0006115710509F401C2072E000C880B990BCF
:103DD0000E94DA83A70196010E948C8A2B013C0184
:103DE00020E030E040E251EC0E94D38387FDEDC13A
:103DF00020E030E040E251E4C301B2010E94ED8CCA
:103E000018160CF4FAC180919904811100C28090B7
:103E1000910490909204A0909304B09094048091A7
:103E2000950490919604A0919704B09198048D8385
:103E30009E83AF83B887A701960160918504709136
:103E4000860480918704909188040E948C8A209136
:103E5000F1063091F2064091F3065091F4060E946B
:103E60003984A50194010E948C8A20ED3CEC4CE43D
:103E70005DE30E943984A50194010E948D8A4B0163
:103E80005C018092910490929204A0929304B0926B
:103E900094048091ED069091EE06A091EF06B0910A
:103EA000F00689839A83AB83BC832D813E814F8149
:103EB0005885C301B2010E948D8A162F7B878A879D
:103EC000092F20E030E0A9010E94D38387FDA9C11A
:103ED00029813A814B815C8160E070E08FE793E457
:103EE0000E94878B6D8379871C01212F3B854A8532
:103EF000502F0E94D38387FF05C01D8199859B8722
:103F00002A86032D812F9B85AA85B02F8093950447
:103F100090939604A0939704B09398042091E90697
:103F20003091EA064091EB065091EC06C301B201D4
:103F30000E9439842B013C014092890450928A04EA
:103F400060928B0470928C04212F3B854A85502F00
:103F500069817A818B819C810E9439849B01AC01AB
:103F600020938D0430938E0440938F0450939004DB
:103F7000C301B2010E948D8AA50194010E948D8A1D
:103F800020E030E0A9010E948D8A4B015C0120E015
:103F900030E0A9010E94D38387FD1AC120E030E000
:103FA0004FE753E4C501B4010E94ED8C18160CF0E4
:103FB00019C16FE70EC16091CF067091D0066115EF
:103FC000710509F416C1072E000C880B990B0E948D
:103FD000DA83A30192010E948C8A4B015C0120E0EC
:103FE00030E040E251EC0E94D38387FD02C120E023
:103FF00030E040E251E4C501B4010E94ED8C181696
:104000000CF400C18091D6069091D706A091D806F5
:10401000B091D90689839A83AB83BC8380910402D3
:10402000811104C120918104309182044091830464
:1040300050918404C0907D04D0907E04E0907F0471
:10404000F0908004C501B4010E948D8A162F7B87F1
:104050008A87092F20E030E0A9010E94D38387FDE1
:10406000EDC029813A814B815C8160E070E08FE78F
:1040700093E40E94878B362E272E8D839987212FDC
:104080003B854A85502F0E94D38387FF05C0132D9F
:104090002B869D819A870985812F9B85AA85B02FC4
:1040A0008093810490938204A0938304B09384044A
:1040B0002091D2063091D3064091D4065091D50676
:1040C000C501B4010E9439844B015C0180927504E2
:1040D00090927604A0927704B0927804212F3B85C9
:1040E0004A85502F69817A818B819C810E94398415
:1040F00069837A838B839C836093790470937A04B9
:1041000080937B0490937C04A301920160917104DD
:104110007091720480917304909174040E948C8A4F
:104120002091DA063091DB064091DC065091DD06E5
:104130000E943984A70196010E948C8A20ED3CECF4
:104140004CE45DE30E943984A70196010E948D8AA8
:104150006B017C01C0927D04D0927E04E0927F04CA
:10416000F092800440927104509272046092730441
:104170007092740429813A814B815C81C501B4013C
:104180000E948D8AA70196010E948D8A20E030E06E
:10419000A9010E948D8A6B017C0120E030E0A90119
:1041A0000E94D38387FDF9CD20E030E04FE753E450
:1041B000C701B6010E94ED8C18163CF1C701B6018B
:1041C0000E94F98B75956795E9CD81E080939904FC
:1041D00060E0C0928504D0928604E0928704F09259
:1041E0008804BCCDC501B4010E94F98B7595679513
:1041F000F0CF81E080930402D0CD81E080939904D8
:104200006FE7E7CF81E0809304026FE7C7CD10929C
:1042100099041D821E821F821886812C912C5401C4
:104220000ACE10E01B861A8600E06CCE10920402C3
:10423000C12CD12C7601A701960104CF10E01B867A
:104240001A8600E029CFCF92DF92EF92FF926B01A6
:104250007C0183E3C816D104E104F10470F082E329
:10426000C81AD108E108F10862E370E080E090E04C
:104270000E94D3120E94431EECCFC701B6010E94D8
:10428000D312FF90EF90DF90CF900C94431E80915B
:104290000D07882331F062E070E080E090E00C943C
:1042A00023210895CF92DF92EF92FF920F931F93F5
:1042B000CF93DF93CDB7DEB7A0970FB6F894DEBFEC
:1042C0000FBECDBF611571058105910579F100E043
:1042D000C42ED12CF12CE12CA70196010E94018A59
:1042E00011E0100FE1E0F0E0EC0FFD1FE00FF11D19
:1042F00007FDFA956083B901CA01012F61157105A7
:104300008105910549F7115010F1E1E0F0E0EC0F63
:10431000FD1FE10FF11D17FDFA95908187E39A309B
:1043200008F480E3890F0E94E51BEDCF80E3A0969F
:104330000FB6F894DEBF0FBECDBFDF91CF911F91B6
:104340000F91FF90EF90DF90CF900C94E51BA0961B
:104350000FB6F894DEBF0FBECDBFDF91CF911F9196
:104360000F91FF90EF90DF90CF900895CF92DF9262
:10437000EF92FF926B017C01F7FE0BC08DE20E9471
:10438000E51BF094E094D094C094C11CD11CE11CB6
:10439000F11C4AE0C701B601FF90EF90DF90CF908B
:1043A0000C945221CF93DF93EB010E94F61BBE01C8
:1043B000DD0F880B990BDF91CF910C94B6210F93F1
:1043C0001F93CF93C82F8B0180912607813099F4DA
:1043D0000E94721CC8010E94F61B8FE29DE00E94A1
:1043E000F61BC1111FC060E070E0CB010E94B62136
:1043F0008AE00E94E51B0E9484168091700481115E
:1044000016C081E08093700480E8809326070E94A4
:1044100084160E94721C8DE49DE00E94F61B80E0D1
:104420000E94C41B8BE29DE00E94F61BE1CFCF915E
:104430001F910F910895CF92DF92EF92FF92CF9349
:10444000DF93EC01C880D980EA80FB8081E29DE0A7
:104450000E94F61BC701B6010E94B621CC80DD8008
:10446000EE80FF8080E293E10E94F61BC701B60157
:104470000E94B621C884D984EA84FB848CE193E14C
:104480000E94F61BC701B6010E94B6218AE0DF91A7
:10449000CF91FF90EF90DF90CF900C94E51B8F921F
:1044A0009F92AF92BF92CF92DF92EF92FF92CF9303
:1044B0006B017C01B42E20E030E0A9010E94D3837F
:1044C00087FF07C08DE20E94E51BF7FAF094F7F82A
:1044D000F094C0E060E070E080E09FE3CB1541F035
:1044E0002DEC3CEC4CEC5DE30E943984CF5FF6CFC1
:1044F0009B01AC01C701B6010E948D8A6B017C0152
:104500000E94008C4B015C014AE00E945221CC23A6
:1045100091F1C501B4010E94D8839B01AC01C70190
:10452000B6010E948C8A6B017C018EE20E94E51B21
:10453000C15008F120E030E040E251E4C701B6018B
:104540000E9439844B015C010E94F98B6B01770F4B
:10455000EE08FF08C701B6010E94B621C701B601E7
:104560000E94DA839B01AC01C501B4010E948C8AD0
:104570006B017C01DDCFCF91FF90EF90DF90CF906A
:10458000BF90AF909F908F900895CF92DF92EF925F
:10459000FF926A017B010E94F61B42E0C701B6014F
:1045A000FF90EF90DF90CF900C944F228823A9F1D9
:1045B0000E94761C4091EB0B5091EC0B6091ED0B3F
:1045C0007091EE0B8DE293E10E94C5224091EF0BBA
:1045D0005091F00B6091F10B7091F20B8AE293E134
:1045E0000E94C5224091F30B5091F40B6091F50BA2
:1045F0007091F60B87E293E10E94C5224091F70B80
:104600005091F80B6091F90B7091FA0B84E293E1F1
:104610000E94C5228AE00C94E51B80E20E94E51B03
:10462000C9CF4F925F926F927F928F929F92AF927B
:10463000BF92CF92DF92EF92FF920F931F93CF938F
:10464000DF93C0E4D2E04C845D846E847F840FE20B
:1046500017E0F80124813581468157816C817D8185
:104660008E819F810E948D8A4B015C01F80120851B
:10467000318542855385688579858A859B850E9429
:104680008D8A6B017C01F801208131814281538147
:10469000688179818A819B810E948D8AAB01BC01EE
:1046A00088E29DE00E94C522B501A40180E293E169
:1046B0000E94C522B701A6018CE193E10E94C522A8
:1046C000B301A20182E599E0DF91CF911F910F9193
:1046D000FF90EF90DF90CF90BF90AF909F908F9022
:1046E0007F906F905F904F900C94C522CF93DF9393
:1046F000CDB7DEB72C970FB6F894DEBF0FBECDBF97
:104700000E9411230E947A189CE0E0E6F4E0DE01AA
:10471000119601900D929A95E1F781110E948718E8
:10472000CE0101960E941B222C960FB6F894DEBF94
:104730000FBECDBFDF91CF910895EF92FF920F93FF
:104740001F93CF937C018B01C2E44F3F09F0C4E576
:1047500080E20E94E51B8C2F0E94E51B8AE30E94E9
:10476000E51BF701608171818281938142E00E94A3
:104770004F22F801408151816281738189EC9DE073
:104780000E94C52262E070E080E090E0CF911F912E
:104790000F91FF90EF900C94D312EF92FF921F9322
:1047A000CF93DF9300D000D01F921F92CDB7DEB71A
:1047B000182F8EEDE82E86E0F82EF70160857185C2
:1047C000072E000C880B990B0E94DA836D837E8381
:1047D0008F83988720E030E0A901F701648175811B
:1047E000868197810E948D8A69837A838B839C83DB
:1047F0004BEFBE016B5F7F4FCE0101960E949D2360
:1048000097ECE92E96E0F92EF70160857185072E69
:10481000000C880B990B0E94DA836D837E838F8353
:104820009887F70184819581A681B78189839A83CE
:10483000AB83BC834FEFBE016B5F7F4FCE01019610
:104840000E949D2387E11802F0011124E252F94FE2
:10485000628570E081ED9DE00E94D221F7016285C2
:1048600070E08CEC9DE00E94D22128960FB6F8945F
:10487000DEBF0FBECDBFDF91CF911F91FF90EF90B4
:1048800008951F93CF93DF93C82FD1E0D8278111CC
:1048900002C00E94761C8DEA9CE00E94F61B87EA0B
:1048A0009CE00E94F61B8AE00E94E51B8AE00E94C1
:1048B000E51B1091B906C11112C00E94761C87E257
:1048C0009BE00E94F61B84E99CE00E94F61B1123EA
:1048D00009F4D3C18AE00E94E51B0E94761C409136
:1048E000B5065091B6066091B7067091B80680E89B
:1048F0009CE00E94C5228AE00E94E51B111108C0BD
:10490000C11102C00E94761C85E79CE00E94F61B44
:1049100041E065E67CE08C2F0E94881C8D2F0E9470
:10492000D62241E068E47CE08C2F0E94881CC111F3
:1049300002C00E94761C4091FB0B5091FC0B6091D1
:10494000FD0B7091FE0B8FE39CE00E94C52240910D
:10495000FF0B5091000C6091010C7091020C8AE2E7
:1049600093E10E94C5224091030C5091040C609188
:10497000050C7091060C87E293E10E94C5224091DC
:10498000070C5091080C6091090C70910A0C84E29C
:1049900093E10E94C5228AE00E94E51B41E06EE19E
:1049A0007CE08C2F0E94881CC11102C00E94761CE2
:1049B0006091D70B7091D80B8091D90B9091DA0B45
:1049C0000E94D883AB01BC0185E19CE00E94C52216
:1049D0006091DB0B7091DC0B8091DD0B9091DE0B15
:1049E0000E94D883AB01BC018AE293E10E94C522F8
:1049F0006091DF0B7091E00B8091E10B9091E20BE5
:104A00000E94D883AB01BC0187E293E10E94C522DA
:104A10006091E30B7091E40B8091E50B9091E60BB4
:104A20000E94D883AB01BC0184E293E10E94C522BD
:104A30008AE00E94E51B41E06CEC7BE08C2F0E9439
:104A4000881CC11102C00E94761C40910B0C509131
:104A50000C0C60910D0C70910E0C83EC9BE00E948D
:104A6000C52240910F0C5091100C6091110C709167
:104A7000120C85EC9FE00E94C5224091130C5091CE
:104A8000140C6091150C7091160C82EC9FE00E9442
:104A9000C5228AE00E94E51B41E06FE67BE08C2F97
:104AA0000E94881CC11102C00E94761C6091E70B15
:104AB0007091E80B8091E90B9091EA0B0E94D883EA
:104AC000AB01BC0186E69BE00E94C5224091170C19
:104AD0005091180C6091190C70911A0C80ED91E1B5
:104AE0000E94C52240911B0C50911C0C60911D0C22
:104AF00070911E0C82EC9FE00E94C52240913B0702
:104B000050913C0760913D0770913E0783E69BE022
:104B10000E94C5228AE00E94E51B41E066E57BE039
:104B20008C2F0E94881CC11102C00E94761C4091EB
:104B3000A9065091AA066091AB067091AC068DE46F
:104B40009BE00E94C5224091AD065091AE06609157
:104B5000AF067091B0068AE293E10E94C5224091AF
:104B6000B1065091B2066091B3067091B40687E227
:104B700093E10E94C5228AE00E94E51B41E06FE3B9
:104B80007BE08C2F0E94881CC11102C00E94761C01
:104B90004091E9065091EA066091EB067091EC06AF
:104BA00086E39BE00E94C5222CEA35EC47E25EE3F7
:104BB0006091ED067091EE068091EF069091F006FF
:104BC0000E94878BAB01BC018AE29BE00E94C52258
:104BD0002CEA35EC47E25EE36091F1067091F20653
:104BE0008091F3069091F4060E943984AB01BC01D8
:104BF00086E89CE00E94C5228AE00E94E51BC11164
:104C000002C00E94761C4091D2065091D30660915A
:104C1000D4067091D5068DE29BE00E94C5222CEA55
:104C200035EC47E25EE36091D6067091D70680913D
:104C3000D8069091D9060E94878BAB01BC018AE20D
:104C40009BE00E94C5222CEA35EC47E25EE36091CE
:104C5000DA067091DB068091DC069091DD060E94F9
:104C60003984AB01BC0186E89CE00E94C5228AE041
:104C7000DF91CF911F910C94E51B89E89CE00E9485
:104C8000F61B2BCE8DE00E94E51B8AE00C94E51B01
:104C9000809170038093710381EA99E00E94F61B72
:104CA0006091210C7091220C8091230C9091240C26
:104CB0006F5F7F4F8F4F9F4F0E94B6210E94422609
:104CC000E0918106F0E0E657F34F8081882339F0C8
:104CD0008BEB9EE00E94F61B8AE00C94E51B089586
:104CE000CF93DF93EC010E94721CCE010E94F61B51
:104CF0006091210C7091220C8091230C9091240CD6
:104D00000E94B6210E9442260E94A41C0196E1F74F
:104D10000E9448261092200C10921F0CDF91CF9118
:104D200008950F931F93CF938C01C62F86E599E0CA
:104D30000E94F61BC8010E94F61B8AE30E94E51B35
:104D40006C2F70E090E080E00E94B621CF911F911F
:104D50000F910C944226CF93DF93EC018991882325
:104D600019F00E94E51BFACFDF91CF910C944226F7
:104D7000CF93FC01C08DC11106C0C18DC11108C007
:104D80008C2FCF9108958CE792E00E94AB26F8CF4C
:104D90006281738181E799E00E94D2218AE00E94BA
:104DA000E51BEECF2F923F924F925F926F927F92D0
:104DB0008F929F92AF92BF92CF92DF92EF92FF922B
:104DC0000F931F93CF93DF93CDB7DEB764970FB6E2
:104DD000F894DEBF0FBECDBFF82E062F642E26E05E
:104DE000829F60011124F601EE58FB4E45905490CD
:104DF000C60180599B4E5C01FC0125903490F20164
:104E0000808190E0B0E0A0E0B695A7959795879552
:104E1000F10110811370282F2470122BF4E04F132E
:104E200002C08870182B88E298E00E94F61B30E3DD
:104E3000732E7F0C872D0E94E51B802F0E94E51B9F
:104E400083E00E94EC1B802E002E000C9908F401D8
:104E5000E154F10923E0F29EE00DF11D1124EE0F63
:104E6000FF1FE45BFB4ECE0101967C0193E06912CB
:104E70001BC0A591B4918C911F928F9384E997E008
:104E80009F938F93FF92EF920E94A3830F900F90B6
:104E90000F900F900F900F90F70181917F01882361
:104EA00009F10E94E51BF8CFA591B49111968C9160
:104EB00011978F938C918F9384E997E09F938F93B1
:104EC000FF92EF920E94A3830F900F900F900F908C
:104ED0000F900F90F70181917F01882319F00E94B4
:104EE000E51BF8CF612F70E08EE198E00E94D2219F
:104EF000F501E590F4908EE997E00E94F61B872D6E
:104F00000E94E51B802F0E94E51BF701608170E085
:104F100083E090E088199909880F991F02C0759560
:104F200067958A95E2F76370772782E198E00E949F
:104F3000D221F20180818770882E912CB12CA12C76
:104F400085E198E00E94F61B4AE0C501B4010E9489
:104F5000522188E098E00E94F61B872D0E94E51BF5
:104F6000F101608170E081E198E00E94D22188E047
:104F700098E00E94F61B872D0E94E51BF2016081DC
:104F800070E084E098E00E94D221F601EC58FB4EDC
:104F9000E590F4908AEF97E00E94F61B872D0E941F
:104FA000E51BF701608170E082E198E00E94D22168
:104FB0000054F3E06F1239C0197F21F486EA97E0BC
:104FC0000E94F61BF701808190E0B0E0A0E004C0F1
:104FD000B695A795979587950A95D2F780FF04C057
:104FE0008FEB97E00E94F61BF701808180FF04C0E1
:104FF0008CED97E00E94F61B64960FB6F894DEBF26
:105000000FBECDBFDF91CF911F910F91FF90EF9019
:10501000DF90CF90BF90AF909F908F907F906F90D8
:105020005F904F903F902F900895812F8B7F31F2AA
:105030001C50123038F6C2CFCF93DF93C82FD0E088
:10504000FE01E552F14EE491E150E231F0F4F0E07E
:105050008827E25DF74D8F4F0C94848A4028702892
:10506000732877287A2845287D288128842888284D
:105070008B288E2892289528452898289C289F2898
:1050800043E061E480E00E94D22680E499E00E943F
:10509000F61BFE01EC5AF04EE491E23009F052C0EA
:1050A000FE01E656F04EE491E03809F04BC084E58D
:1050B00098E00E94F61B82E10E94EC1B8CE498E0D1
:1050C0000E94F61B82E398E00E94F61B8EE00E948D
:1050D000EC1B44E063E481E0DF91CF910C94D22695
:1050E00043E062E4CFCF44E061E481E0CCCF44E030
:1050F00062E4FBCF44E063E4F8CF43E061E482E0A4
:10510000C2CF43E062E4FBCF44E061E483E0BBCF85
:1051100044E062E4FBCF44E063E4F8CF44E061E4C0
:1051200084E0B1CF44E062E4FBCF44E063E4F8CF35
:1051300044E061E485E0A7CF44E062E4FBCF44E0D3
:1051400063E4F8CFDF91CF9108950F931F93CF932E
:10515000DF93CDB7DEB764970FB6F894DEBF0FBE0E
:10516000CDBFE82FF0E0E552F14EE491E150E2319D
:1051700008F066C2F0E08827EF53F74D8F4F0C948C
:10518000848AD328FF281F2944296929202B8E29A6
:10519000B129D429F9291E2A432A682A8D2A202BCD
:1051A000B22AD72AFC2A84B5807C09F449C287B583
:1051B0001F928F9384E997E09F938F938E010F5FE7
:1051C0001F4F1F930F930E94A3830F900F900F9078
:1051D0000F900F900F90F80181918F0181110CC0F9
:1051E00081E064960FB6F894DEBF0FBECDBFDF91AD
:1051F000CF911F910F9108950E94E51BECCF84B5CC
:10520000807309F41DC288B51F928F9384E997E0DB
:105210009F938F938E010F5F1F4F1F930F930E94D9
:10522000A3830F900F900F900F900F900F90F801A5
:1052300081918F018823A1F20E94E51BF8CF809114
:105240008000807C09F4FCC18091880090918900E5
:105250009F938F9384E997E09F938F938E010F5FC5
:105260001F4F1F930F930E94A3830F900F900F90D7
:105270000F900F900F90F80181918F01882309F40E
:10528000AFCF0E94E51BF7CF80918000807309F4B7
:10529000D7C180918A0090918B009F938F9384E96E
:1052A00097E09F938F938E010F5F1F4F1F930F9374
:1052B0000E94A3830F900F900F900F900F900F906C
:1052C000F80181918F01882309F48ACF0E94E51BA0
:1052D000F7CF809180008C7009F4B2C180918C006E
:1052E00090918D009F938F9384E997E09F938F9384
:1052F0008E010F5F1F4F1F930F930E94A3830F9088
:105300000F900F900F900F900F90F80181918F01E7
:10531000882309F465CF0E94E51BF7CF8091B00088
:10532000807C09F48DC18091B3001F928F9384E932
:1053300097E09F938F938E010F5F1F4F1F930F93E3
:105340000E94A3830F900F900F900F900F900F90DB
:10535000F80181918F01882309F442CF0E94E51B57
:10536000F7CF8091B000807309F46AC18091B400D6
:105370001F928F9384E997E09F938F938E010F5F25
:105380001F4F1F930F930E94A3830F900F900F90B6
:105390000F900F900F90F80181918F01882309F4ED
:1053A0001FCF0E94E51BF7CF80919000807C09F40D
:1053B00047C180919800909199009F938F9384E9C1
:1053C00097E09F938F938E010F5F1F4F1F930F9353
:1053D0000E94A3830F900F900F900F900F900F904B
:1053E000F80181918F01882309F4FACE0E94E51B10
:1053F000F7CF80919000807309F422C180919A00C8
:1054000090919B009F938F9384E997E09F938F9354
:105410008E010F5F1F4F1F930F930E94A3830F9066
:105420000F900F900F900F900F90F80181918F01C6
:10543000882309F4D5CE0E94E51BF7CF8091900018
:105440008C7009F4FDC080919C0090919D009F9309
:105450008F9384E997E09F938F938E010F5F1F4F87
:105460001F930F930E94A3830F900F900F900F90A4
:105470000F900F90F80181918F01882309F4B0CE2D
:105480000E94E51BF7CF8091A000807C09F4D8C072
:105490008091A8009091A9009F938F9384E997E051
:1054A0009F938F938E010F5F1F4F1F930F930E9447
:1054B000A3830F900F900F900F900F900F90F80113
:1054C00081918F01882309F48BCE0E94E51BF7CFD1
:1054D0008091A000807309F4B3C08091AA009091DC
:1054E000AB009F938F9384E997E09F938F938E01F6
:1054F0000F5F1F4F1F930F930E94A3830F900F9076
:105500000F900F900F900F90F80181918F018823D9
:1055100009F466CE0E94E51BF7CF8091A0008C7045
:1055200009F48EC08091AC009091AD009F938F9351
:1055300084E997E09F938F938E010F5F1F4F1F9316
:105540000F930E94A3830F900F900F900F900F90D6
:105550000F90F80181918F01882309F441CE0E94B8
:10556000E51BF7CF80912001807C09F469C0809110
:105570002801909129019F938F9384E997E09F934D
:105580008F938E010F5F1F4F1F930F930E94A38372
:105590000F900F900F900F900F900F90F801819146
:1055A0008F01882309F41CCE0E94E51BF7CF809160
:1055B0002001807309F444C080912A0190912B014D
:1055C0009F938F9384E997E09F938F938E010F5F52
:1055D0001F4F1F930F930E94A3830F900F900F9064
:1055E0000F900F900F90F80181918F01882309F49B
:1055F000F7CD0E94E51BF7CF809120018C7001F15F
:1056000080912C0190912D019F938F9384E997E0D5
:105610009F938F938E010F5F1F4F1F930F930E94D5
:10562000A3830F900F900F900F900F900F90F801A1
:1056300081918F01882309F4D3CD0E94E51BF7CF18
:1056400080E0CFCDEF92FF920F931F93CF93DF9324
:10565000CDB7DEB762970FB6F894DEBF0FBECDBFF1
:1056600090912C0786E090FF87E091FD8D7F92FF5F
:1056700012C08B7FC9F562960FB6F894DEBF0FBEDD
:10568000CDBFDF91CF911F910F91FF90EF900895C3
:105690008CE992E00CC028E932E047E952E081FF52
:1056A00002C04AE952E080FDF3CF87E992E03F93E0
:1056B0002F935F934F939F938F9384EF92E19F93E8
:1056C0008F93CE0101967C019F938F930E94A383B9
:1056D0000E94761CC7010E94AB260FB6F894DEBF6D
:1056E0000FBECDBF81E0C7CF27E932E0D6CFAF9262
:1056F000BF92CF92DF92EF92FF920F931F93CF93BF
:10570000DF93CDB7DEB72C970FB6F894DEBF0FBE90
:10571000CDBFE62E26E6C22E22E0D22E5C01F12C71
:1057200080E20E94E51BF60181916F010E94E51B5A
:105730008AE30E94E51BF50161917191819191913C
:105740005F018E010F5F1F4F23E041E00E94847EC6
:105750008C01F80181918F01882319F00E94E51BCB
:10576000F8CFF394EF10DCCF8AE00E94E51B2C9673
:105770000FB6F894DEBF0FBECDBFDF91CF911F9162
:105780000F91FF90EF90DF90CF90BF90AF90089572
:10579000FF920F931F93CF93DF931F92CDB7DEB786
:1057A000F82E04E314E141E050E0B801CE01019687
:1057B0000E945F8389818F1108C081E00F90DF9183
:1057C000CF911F910F91FF9008950F5F1F4F84E1BC
:1057D0000C34180741F780E0F1CF85ED8093BC00D1
:1057E00080916D0C90916E0CA0916F0CB091700C2B
:1057F0000796A11DB11D23E0B695A79597958795AE
:105800002A95D1F72091BC0024FD03C010926B0CA7
:10581000089540916D0C50916E0C60916F0C7091D9
:10582000700C452B462B472B69F30097A105B1055A
:1058300041F025E32A95F1F700000197A109B1098C
:10584000E1CF80916C0C0C94FF144F925F926F9299
:105850007F928F929F92AF92BF92CF92DF92EF9200
:10586000FF920F931F93CF93DF93CDB7DEB76A9765
:105870000FB6F894DEBF0FBECDBF9A8F898F5B0144
:105880008A01DC01D6966D917D918D919C91D9977D
:105890000E94D8836B017C01F50120813181428116
:1058A00053810E9439840E946B8B2B013C01D801EB
:1058B0002D913D914D915C91C701B6010E943984B3
:1058C0000E946B8B4B015C01C301B2010E94008CF2
:1058D000698B7A8B8B8B9C8B683771058105910561
:1058E00040F428E730E040E050E0298B3A8B4B8BC6
:1058F0005C8BC501B4010E94008C6D877E878F8709
:10590000988B683771058105910540F488E790E030
:10591000A0E0B0E08D879E87AF87B88BE98DFA8DC8
:10592000EE5BFF4F208131814281538129833A838D
:105930004B835C83CA01B9010E94DA832B013C01CD
:1059400069897A898B899C890E94D88369877A873B
:105950008B879C8720E030E0A901C301B2010E943F
:10596000D383882309F43BC1A7019601C701B6017F
:105970000E9439844B015C0129853A854B855C8501
:10598000CA01B9010E9439849B01AC01C501B4016F
:105990000E948C8A4B015C01A3019201C301B201F8
:1059A0000E948D8A9B01AC01C501B4010E94878BC6
:1059B0000E946B8B0E94008C6D837E838F839887FF
:1059C00069817A818B819C81909580957095619594
:1059D0007F4F8F4F9F4F0E94DA834B015C016D8593
:1059E0007E858F8598890E94D88369837A838B838B
:1059F0009C8320E030E0A901C501B4010E94D3835B
:105A0000882309F4F0C029813A814B815C81CA0165
:105A1000B9010E9439846D8B7E8B8F8B988FA70183
:105A20009601C701B6010E9439849B01AC016D89C2
:105A30007E898F89988D0E948C8A6B017C01A501DB
:105A40009401C501B4010E948D8A9B01AC01C7017C
:105A5000B6010E94878B0E942F8CA98DBA8D9596D6
:105A60008D909D90AD90BC909897750164012D81AB
:105A70003E814F815885C21AD30AE40AF50A0E9472
:105A8000008CC61AD70AE80AF90AF7FE6EC020E0B1
:105A900030E0A901C301B2010E94D383882309F435
:105AA000A6C0C501B4010E94D8836B017C01A3018B
:105AB0009201C301B2010E948D8A9B01AC01C70112
:105AC000B6010E9439846B017C0129853A854B859A
:105AD0005C85CA01B9010E9439849B01AC01C701F0
